{
	"contracts/ICFT.sol": {
		"IndependentCapitalFundToken": {
			"abi": [
				{
					"inputs": [
						{
							"internalType": "address",
							"name": "initialOwner",
							"type": "address"
						},
						{
							"internalType": "address",
							"name": "_investors",
							"type": "address"
						},
						{
							"internalType": "address",
							"name": "_projectTeam",
							"type": "address"
						},
						{
							"internalType": "address",
							"name": "_reserve",
							"type": "address"
						},
						{
							"internalType": "address",
							"name": "_marketing",
							"type": "address"
						},
						{
							"internalType": "address",
							"name": "_communityIncentives",
							"type": "address"
						},
						{
							"internalType": "uint256",
							"name": "initialSupply",
							"type": "uint256"
						}
					],
					"stateMutability": "nonpayable",
					"type": "constructor"
				},
				{
					"inputs": [
						{
							"internalType": "address",
							"name": "spender",
							"type": "address"
						},
						{
							"internalType": "uint256",
							"name": "allowance",
							"type": "uint256"
						},
						{
							"internalType": "uint256",
							"name": "needed",
							"type": "uint256"
						}
					],
					"name": "ERC20InsufficientAllowance",
					"type": "error"
				},
				{
					"inputs": [
						{
							"internalType": "address",
							"name": "sender",
							"type": "address"
						},
						{
							"internalType": "uint256",
							"name": "balance",
							"type": "uint256"
						},
						{
							"internalType": "uint256",
							"name": "needed",
							"type": "uint256"
						}
					],
					"name": "ERC20InsufficientBalance",
					"type": "error"
				},
				{
					"inputs": [
						{
							"internalType": "address",
							"name": "approver",
							"type": "address"
						}
					],
					"name": "ERC20InvalidApprover",
					"type": "error"
				},
				{
					"inputs": [
						{
							"internalType": "address",
							"name": "receiver",
							"type": "address"
						}
					],
					"name": "ERC20InvalidReceiver",
					"type": "error"
				},
				{
					"inputs": [
						{
							"internalType": "address",
							"name": "sender",
							"type": "address"
						}
					],
					"name": "ERC20InvalidSender",
					"type": "error"
				},
				{
					"inputs": [
						{
							"internalType": "address",
							"name": "spender",
							"type": "address"
						}
					],
					"name": "ERC20InvalidSpender",
					"type": "error"
				},
				{
					"inputs": [
						{
							"internalType": "address",
							"name": "owner",
							"type": "address"
						}
					],
					"name": "OwnableInvalidOwner",
					"type": "error"
				},
				{
					"inputs": [
						{
							"internalType": "address",
							"name": "account",
							"type": "address"
						}
					],
					"name": "OwnableUnauthorizedAccount",
					"type": "error"
				},
				{
					"anonymous": false,
					"inputs": [
						{
							"indexed": true,
							"internalType": "address",
							"name": "owner",
							"type": "address"
						},
						{
							"indexed": true,
							"internalType": "address",
							"name": "spender",
							"type": "address"
						},
						{
							"indexed": false,
							"internalType": "uint256",
							"name": "value",
							"type": "uint256"
						}
					],
					"name": "Approval",
					"type": "event"
				},
				{
					"anonymous": false,
					"inputs": [
						{
							"indexed": true,
							"internalType": "address",
							"name": "previousOwner",
							"type": "address"
						},
						{
							"indexed": true,
							"internalType": "address",
							"name": "newOwner",
							"type": "address"
						}
					],
					"name": "OwnershipTransferred",
					"type": "event"
				},
				{
					"anonymous": false,
					"inputs": [
						{
							"indexed": true,
							"internalType": "address",
							"name": "from",
							"type": "address"
						},
						{
							"indexed": true,
							"internalType": "address",
							"name": "to",
							"type": "address"
						},
						{
							"indexed": false,
							"internalType": "uint256",
							"name": "value",
							"type": "uint256"
						}
					],
					"name": "Transfer",
					"type": "event"
				},
				{
					"inputs": [
						{
							"internalType": "address",
							"name": "owner",
							"type": "address"
						},
						{
							"internalType": "address",
							"name": "spender",
							"type": "address"
						}
					],
					"name": "allowance",
					"outputs": [
						{
							"internalType": "uint256",
							"name": "",
							"type": "uint256"
						}
					],
					"stateMutability": "view",
					"type": "function"
				},
				{
					"inputs": [
						{
							"internalType": "address",
							"name": "spender",
							"type": "address"
						},
						{
							"internalType": "uint256",
							"name": "value",
							"type": "uint256"
						}
					],
					"name": "approve",
					"outputs": [
						{
							"internalType": "bool",
							"name": "",
							"type": "bool"
						}
					],
					"stateMutability": "nonpayable",
					"type": "function"
				},
				{
					"inputs": [
						{
							"internalType": "address",
							"name": "account",
							"type": "address"
						}
					],
					"name": "balanceOf",
					"outputs": [
						{
							"internalType": "uint256",
							"name": "",
							"type": "uint256"
						}
					],
					"stateMutability": "view",
					"type": "function"
				},
				{
					"inputs": [
						{
							"internalType": "uint256",
							"name": "amount",
							"type": "uint256"
						}
					],
					"name": "burn",
					"outputs": [],
					"stateMutability": "nonpayable",
					"type": "function"
				},
				{
					"inputs": [],
					"name": "communityIncentives",
					"outputs": [
						{
							"internalType": "address",
							"name": "",
							"type": "address"
						}
					],
					"stateMutability": "view",
					"type": "function"
				},
				{
					"inputs": [],
					"name": "decimals",
					"outputs": [
						{
							"internalType": "uint8",
							"name": "",
							"type": "uint8"
						}
					],
					"stateMutability": "view",
					"type": "function"
				},
				{
					"inputs": [],
					"name": "investors",
					"outputs": [
						{
							"internalType": "address",
							"name": "",
							"type": "address"
						}
					],
					"stateMutability": "view",
					"type": "function"
				},
				{
					"inputs": [
						{
							"internalType": "address",
							"name": "",
							"type": "address"
						}
					],
					"name": "lockupExpiry",
					"outputs": [
						{
							"internalType": "uint256",
							"name": "",
							"type": "uint256"
						}
					],
					"stateMutability": "view",
					"type": "function"
				},
				{
					"inputs": [],
					"name": "marketing",
					"outputs": [
						{
							"internalType": "address",
							"name": "",
							"type": "address"
						}
					],
					"stateMutability": "view",
					"type": "function"
				},
				{
					"inputs": [
						{
							"internalType": "address",
							"name": "to",
							"type": "address"
						},
						{
							"internalType": "uint256",
							"name": "amount",
							"type": "uint256"
						}
					],
					"name": "mint",
					"outputs": [],
					"stateMutability": "nonpayable",
					"type": "function"
				},
				{
					"inputs": [],
					"name": "name",
					"outputs": [
						{
							"internalType": "string",
							"name": "",
							"type": "string"
						}
					],
					"stateMutability": "view",
					"type": "function"
				},
				{
					"inputs": [],
					"name": "owner",
					"outputs": [
						{
							"internalType": "address",
							"name": "",
							"type": "address"
						}
					],
					"stateMutability": "view",
					"type": "function"
				},
				{
					"inputs": [],
					"name": "projectTeam",
					"outputs": [
						{
							"internalType": "address",
							"name": "",
							"type": "address"
						}
					],
					"stateMutability": "view",
					"type": "function"
				},
				{
					"inputs": [],
					"name": "renounceOwnership",
					"outputs": [],
					"stateMutability": "nonpayable",
					"type": "function"
				},
				{
					"inputs": [],
					"name": "reserve",
					"outputs": [
						{
							"internalType": "address",
							"name": "",
							"type": "address"
						}
					],
					"stateMutability": "view",
					"type": "function"
				},
				{
					"inputs": [],
					"name": "symbol",
					"outputs": [
						{
							"internalType": "string",
							"name": "",
							"type": "string"
						}
					],
					"stateMutability": "view",
					"type": "function"
				},
				{
					"inputs": [],
					"name": "totalSupply",
					"outputs": [
						{
							"internalType": "uint256",
							"name": "",
							"type": "uint256"
						}
					],
					"stateMutability": "view",
					"type": "function"
				},
				{
					"inputs": [
						{
							"internalType": "address",
							"name": "to",
							"type": "address"
						},
						{
							"internalType": "uint256",
							"name": "amount",
							"type": "uint256"
						}
					],
					"name": "transfer",
					"outputs": [
						{
							"internalType": "bool",
							"name": "",
							"type": "bool"
						}
					],
					"stateMutability": "nonpayable",
					"type": "function"
				},
				{
					"inputs": [
						{
							"internalType": "address",
							"name": "from",
							"type": "address"
						},
						{
							"internalType": "address",
							"name": "to",
							"type": "address"
						},
						{
							"internalType": "uint256",
							"name": "amount",
							"type": "uint256"
						}
					],
					"name": "transferFrom",
					"outputs": [
						{
							"internalType": "bool",
							"name": "",
							"type": "bool"
						}
					],
					"stateMutability": "nonpayable",
					"type": "function"
				},
				{
					"inputs": [
						{
							"internalType": "address",
							"name": "newOwner",
							"type": "address"
						}
					],
					"name": "transferOwnership",
					"outputs": [],
					"stateMutability": "nonpayable",
					"type": "function"
				},
				{
					"inputs": [],
					"name": "upgradeContract",
					"outputs": [],
					"stateMutability": "nonpayable",
					"type": "function"
				}
			],
			"devdoc": {
				"errors": {
					"ERC20InsufficientAllowance(address,uint256,uint256)": [
						{
							"details": "Indicates a failure with the `spender`’s `allowance`. Used in transfers.",
							"params": {
								"allowance": "Amount of tokens a `spender` is allowed to operate with.",
								"needed": "Minimum amount required to perform a transfer.",
								"spender": "Address that may be allowed to operate on tokens without being their owner."
							}
						}
					],
					"ERC20InsufficientBalance(address,uint256,uint256)": [
						{
							"details": "Indicates an error related to the current `balance` of a `sender`. Used in transfers.",
							"params": {
								"balance": "Current balance for the interacting account.",
								"needed": "Minimum amount required to perform a transfer.",
								"sender": "Address whose tokens are being transferred."
							}
						}
					],
					"ERC20InvalidApprover(address)": [
						{
							"details": "Indicates a failure with the `approver` of a token to be approved. Used in approvals.",
							"params": {
								"approver": "Address initiating an approval operation."
							}
						}
					],
					"ERC20InvalidReceiver(address)": [
						{
							"details": "Indicates a failure with the token `receiver`. Used in transfers.",
							"params": {
								"receiver": "Address to which tokens are being transferred."
							}
						}
					],
					"ERC20InvalidSender(address)": [
						{
							"details": "Indicates a failure with the token `sender`. Used in transfers.",
							"params": {
								"sender": "Address whose tokens are being transferred."
							}
						}
					],
					"ERC20InvalidSpender(address)": [
						{
							"details": "Indicates a failure with the `spender` to be approved. Used in approvals.",
							"params": {
								"spender": "Address that may be allowed to operate on tokens without being their owner."
							}
						}
					],
					"OwnableInvalidOwner(address)": [
						{
							"details": "The owner is not a valid owner account. (eg. `address(0)`)"
						}
					],
					"OwnableUnauthorizedAccount(address)": [
						{
							"details": "The caller account is not authorized to perform an operation."
						}
					]
				},
				"events": {
					"Approval(address,address,uint256)": {
						"details": "Emitted when the allowance of a `spender` for an `owner` is set by a call to {approve}. `value` is the new allowance."
					},
					"Transfer(address,address,uint256)": {
						"details": "Emitted when `value` tokens are moved from one account (`from`) to another (`to`). Note that `value` may be zero."
					}
				},
				"kind": "dev",
				"methods": {
					"allowance(address,address)": {
						"details": "See {IERC20-allowance}."
					},
					"approve(address,uint256)": {
						"details": "See {IERC20-approve}. NOTE: If `value` is the maximum `uint256`, the allowance is not updated on `transferFrom`. This is semantically equivalent to an infinite approval. Requirements: - `spender` cannot be the zero address."
					},
					"balanceOf(address)": {
						"details": "See {IERC20-balanceOf}."
					},
					"decimals()": {
						"details": "Returns the number of decimals used to get its user representation. For example, if `decimals` equals `2`, a balance of `505` tokens should be displayed to a user as `5.05` (`505 / 10 ** 2`). Tokens usually opt for a value of 18, imitating the relationship between Ether and Wei. This is the default value returned by this function, unless it's overridden. NOTE: This information is only used for _display_ purposes: it in no way affects any of the arithmetic of the contract, including {IERC20-balanceOf} and {IERC20-transfer}."
					},
					"name()": {
						"details": "Returns the name of the token."
					},
					"owner()": {
						"details": "Returns the address of the current owner."
					},
					"renounceOwnership()": {
						"details": "Leaves the contract without owner. It will not be possible to call `onlyOwner` functions. Can only be called by the current owner. NOTE: Renouncing ownership will leave the contract without an owner, thereby disabling any functionality that is only available to the owner."
					},
					"symbol()": {
						"details": "Returns the symbol of the token, usually a shorter version of the name."
					},
					"totalSupply()": {
						"details": "See {IERC20-totalSupply}."
					},
					"transferOwnership(address)": {
						"details": "Transfers ownership of the contract to a new account (`newOwner`). Can only be called by the current owner."
					}
				},
				"version": 1
			},
			"evm": {
				"assembly": "    /* \"contracts/ICFT.sol\":167:3025  contract IndependentCapitalFundToken is ERC20, Ownable {... */\n  mstore(0x40, 0x80)\n    /* \"contracts/ICFT.sol\":523:1896  constructor(... */\n  callvalue\n  dup1\n  iszero\n  tag_1\n  jumpi\n  0x00\n  dup1\n  revert\ntag_1:\n  pop\n  mload(0x40)\n  sub(codesize, bytecodeSize)\n  dup1\n  bytecodeSize\n  dup4\n  codecopy\n  dup2\n  dup2\n  add\n  0x40\n  mstore\n  dup2\n  add\n  swap1\n  tag_2\n  swap2\n  swap1\n  tag_3\n  jump\t// in\ntag_2:\n    /* \"contracts/ICFT.sol\":808:820  initialOwner */\n  dup7\n    /* \"@openzeppelin/contracts/token/ERC20/ERC20.sol\":1601:1714  constructor(string memory name_, string memory symbol_) {... */\n  mload(0x40)\n  dup1\n  0x40\n  add\n  0x40\n  mstore\n  dup1\n  0x1e\n  dup2\n  mstore\n  0x20\n  add\n  0x496e646570656e64656e74204361706974616c2046756e6420546f6b656e0000\n  dup2\n  mstore\n  pop\n  mload(0x40)\n  dup1\n  0x40\n  add\n  0x40\n  mstore\n  dup1\n  0x04\n  dup2\n  mstore\n  0x20\n  add\n  0x4943465400000000000000000000000000000000000000000000000000000000\n  dup2\n  mstore\n  pop\n    /* \"@openzeppelin/contracts/token/ERC20/ERC20.sol\":1675:1680  name_ */\n  dup2\n    /* \"@openzeppelin/contracts/token/ERC20/ERC20.sol\":1667:1672  _name */\n  0x03\n    /* \"@openzeppelin/contracts/token/ERC20/ERC20.sol\":1667:1680  _name = name_ */\n  swap1\n  dup2\n  tag_8\n  swap2\n  swap1\n  tag_9\n  jump\t// in\ntag_8:\n  pop\n    /* \"@openzeppelin/contracts/token/ERC20/ERC20.sol\":1700:1707  symbol_ */\n  dup1\n    /* \"@openzeppelin/contracts/token/ERC20/ERC20.sol\":1690:1697  _symbol */\n  0x04\n    /* \"@openzeppelin/contracts/token/ERC20/ERC20.sol\":1690:1707  _symbol = symbol_ */\n  swap1\n  dup2\n  tag_10\n  swap2\n  swap1\n  tag_9\n  jump\t// in\ntag_10:\n  pop\n    /* \"@openzeppelin/contracts/token/ERC20/ERC20.sol\":1601:1714  constructor(string memory name_, string memory symbol_) {... */\n  pop\n  pop\n    /* \"@openzeppelin/contracts/access/Ownable.sol\":1297:1298  0 */\n  0x00\n    /* \"@openzeppelin/contracts/access/Ownable.sol\":1273:1299  initialOwner == address(0) */\n  0xffffffffffffffffffffffffffffffffffffffff\n  and\n    /* \"@openzeppelin/contracts/access/Ownable.sol\":1273:1285  initialOwner */\n  dup2\n    /* \"@openzeppelin/contracts/access/Ownable.sol\":1273:1299  initialOwner == address(0) */\n  0xffffffffffffffffffffffffffffffffffffffff\n  and\n  sub\n    /* \"@openzeppelin/contracts/access/Ownable.sol\":1269:1364  if (initialOwner == address(0)) {... */\n  tag_12\n  jumpi\n    /* \"@openzeppelin/contracts/access/Ownable.sol\":1350:1351  0 */\n  0x00\n    /* \"@openzeppelin/contracts/access/Ownable.sol\":1322:1353  OwnableInvalidOwner(address(0)) */\n  mload(0x40)\n  0x1e4fbdf700000000000000000000000000000000000000000000000000000000\n  dup2\n  mstore\n  0x04\n  add\n  tag_13\n  swap2\n  swap1\n  tag_14\n  jump\t// in\ntag_13:\n  mload(0x40)\n  dup1\n  swap2\n  sub\n  swap1\n  revert\n    /* \"@openzeppelin/contracts/access/Ownable.sol\":1269:1364  if (initialOwner == address(0)) {... */\ntag_12:\n    /* \"@openzeppelin/contracts/access/Ownable.sol\":1373:1405  _transferOwnership(initialOwner) */\n  tag_15\n    /* \"@openzeppelin/contracts/access/Ownable.sol\":1392:1404  initialOwner */\n  dup2\n    /* \"@openzeppelin/contracts/access/Ownable.sol\":1373:1391  _transferOwnership */\n  shl(0x20, tag_16)\n    /* \"@openzeppelin/contracts/access/Ownable.sol\":1373:1405  _transferOwnership(initialOwner) */\n  0x20\n  shr\n  jump\t// in\ntag_15:\n    /* \"@openzeppelin/contracts/access/Ownable.sol\":1225:1412  constructor(address initialOwner) {... */\n  pop\n    /* \"contracts/ICFT.sol\":864:865  0 */\n  0x00\n    /* \"contracts/ICFT.sol\":840:866  initialOwner != address(0) */\n  0xffffffffffffffffffffffffffffffffffffffff\n  and\n    /* \"contracts/ICFT.sol\":840:852  initialOwner */\n  dup8\n    /* \"contracts/ICFT.sol\":840:866  initialOwner != address(0) */\n  0xffffffffffffffffffffffffffffffffffffffff\n  and\n  sub\n    /* \"contracts/ICFT.sol\":832:892  require(initialOwner != address(0), \"Invalid owner address\") */\n  tag_18\n  jumpi\n  mload(0x40)\n  0x08c379a000000000000000000000000000000000000000000000000000000000\n  dup2\n  mstore\n  0x04\n  add\n  tag_19\n  swap1\n  tag_20\n  jump\t// in\ntag_19:\n  mload(0x40)\n  dup1\n  swap2\n  sub\n  swap1\n  revert\ntag_18:\n    /* \"contracts/ICFT.sol\":960:970  _investors */\n  dup6\n    /* \"contracts/ICFT.sol\":948:957  investors */\n  0x06\n  0x00\n    /* \"contracts/ICFT.sol\":948:970  investors = _investors */\n  0x0100\n  exp\n  dup2\n  sload\n  dup2\n  0xffffffffffffffffffffffffffffffffffffffff\n  mul\n  not\n  and\n  swap1\n  dup4\n  0xffffffffffffffffffffffffffffffffffffffff\n  and\n  mul\n  or\n  swap1\n  sstore\n  pop\n    /* \"contracts/ICFT.sol\":994:1006  _projectTeam */\n  dup5\n    /* \"contracts/ICFT.sol\":980:991  projectTeam */\n  0x07\n  0x00\n    /* \"contracts/ICFT.sol\":980:1006  projectTeam = _projectTeam */\n  0x0100\n  exp\n  dup2\n  sload\n  dup2\n  0xffffffffffffffffffffffffffffffffffffffff\n  mul\n  not\n  and\n  swap1\n  dup4\n  0xffffffffffffffffffffffffffffffffffffffff\n  and\n  mul\n  or\n  swap1\n  sstore\n  pop\n    /* \"contracts/ICFT.sol\":1026:1034  _reserve */\n  dup4\n    /* \"contracts/ICFT.sol\":1016:1023  reserve */\n  0x08\n  0x00\n    /* \"contracts/ICFT.sol\":1016:1034  reserve = _reserve */\n  0x0100\n  exp\n  dup2\n  sload\n  dup2\n  0xffffffffffffffffffffffffffffffffffffffff\n  mul\n  not\n  and\n  swap1\n  dup4\n  0xffffffffffffffffffffffffffffffffffffffff\n  and\n  mul\n  or\n  swap1\n  sstore\n  pop\n    /* \"contracts/ICFT.sol\":1056:1066  _marketing */\n  dup3\n    /* \"contracts/ICFT.sol\":1044:1053  marketing */\n  0x09\n  0x00\n    /* \"contracts/ICFT.sol\":1044:1066  marketing = _marketing */\n  0x0100\n  exp\n  dup2\n  sload\n  dup2\n  0xffffffffffffffffffffffffffffffffffffffff\n  mul\n  not\n  and\n  swap1\n  dup4\n  0xffffffffffffffffffffffffffffffffffffffff\n  and\n  mul\n  or\n  swap1\n  sstore\n  pop\n    /* \"contracts/ICFT.sol\":1098:1118  _communityIncentives */\n  dup2\n    /* \"contracts/ICFT.sol\":1076:1095  communityIncentives */\n  0x0a\n  0x00\n    /* \"contracts/ICFT.sol\":1076:1118  communityIncentives = _communityIncentives */\n  0x0100\n  exp\n  dup2\n  sload\n  dup2\n  0xffffffffffffffffffffffffffffffffffffffff\n  mul\n  not\n  and\n  swap1\n  dup4\n  0xffffffffffffffffffffffffffffffffffffffff\n  and\n  mul\n  or\n  swap1\n  sstore\n  pop\n    /* \"contracts/ICFT.sol\":1184:1207  uint256 investorsAmount */\n  0x00\n    /* \"contracts/ICFT.sol\":1233:1236  100 */\n  0x64\n    /* \"contracts/ICFT.sol\":1227:1229  60 */\n  0x3c\n    /* \"contracts/ICFT.sol\":1211:1224  initialSupply */\n  dup4\n    /* \"contracts/ICFT.sol\":1211:1229  initialSupply * 60 */\n  tag_21\n  swap2\n  swap1\n  tag_22\n  jump\t// in\ntag_21:\n    /* \"contracts/ICFT.sol\":1210:1236  (initialSupply * 60) / 100 */\n  tag_23\n  swap2\n  swap1\n  tag_24\n  jump\t// in\ntag_23:\n    /* \"contracts/ICFT.sol\":1184:1236  uint256 investorsAmount = (initialSupply * 60) / 100 */\n  swap1\n  pop\n    /* \"contracts/ICFT.sol\":1246:1271  uint256 projectTeamAmount */\n  0x00\n    /* \"contracts/ICFT.sol\":1297:1300  100 */\n  0x64\n    /* \"contracts/ICFT.sol\":1291:1293  20 */\n  0x14\n    /* \"contracts/ICFT.sol\":1275:1288  initialSupply */\n  dup5\n    /* \"contracts/ICFT.sol\":1275:1293  initialSupply * 20 */\n  tag_25\n  swap2\n  swap1\n  tag_22\n  jump\t// in\ntag_25:\n    /* \"contracts/ICFT.sol\":1274:1300  (initialSupply * 20) / 100 */\n  tag_26\n  swap2\n  swap1\n  tag_24\n  jump\t// in\ntag_26:\n    /* \"contracts/ICFT.sol\":1246:1300  uint256 projectTeamAmount = (initialSupply * 20) / 100 */\n  swap1\n  pop\n    /* \"contracts/ICFT.sol\":1310:1331  uint256 reserveAmount */\n  0x00\n    /* \"contracts/ICFT.sol\":1357:1360  100 */\n  0x64\n    /* \"contracts/ICFT.sol\":1351:1353  10 */\n  0x0a\n    /* \"contracts/ICFT.sol\":1335:1348  initialSupply */\n  dup6\n    /* \"contracts/ICFT.sol\":1335:1353  initialSupply * 10 */\n  tag_27\n  swap2\n  swap1\n  tag_22\n  jump\t// in\ntag_27:\n    /* \"contracts/ICFT.sol\":1334:1360  (initialSupply * 10) / 100 */\n  tag_28\n  swap2\n  swap1\n  tag_24\n  jump\t// in\ntag_28:\n    /* \"contracts/ICFT.sol\":1310:1360  uint256 reserveAmount = (initialSupply * 10) / 100 */\n  swap1\n  pop\n    /* \"contracts/ICFT.sol\":1370:1393  uint256 marketingAmount */\n  0x00\n    /* \"contracts/ICFT.sol\":1418:1421  100 */\n  0x64\n    /* \"contracts/ICFT.sol\":1413:1414  5 */\n  0x05\n    /* \"contracts/ICFT.sol\":1397:1410  initialSupply */\n  dup7\n    /* \"contracts/ICFT.sol\":1397:1414  initialSupply * 5 */\n  tag_29\n  swap2\n  swap1\n  tag_22\n  jump\t// in\ntag_29:\n    /* \"contracts/ICFT.sol\":1396:1421  (initialSupply * 5) / 100 */\n  tag_30\n  swap2\n  swap1\n  tag_24\n  jump\t// in\ntag_30:\n    /* \"contracts/ICFT.sol\":1370:1421  uint256 marketingAmount = (initialSupply * 5) / 100 */\n  swap1\n  pop\n    /* \"contracts/ICFT.sol\":1431:1464  uint256 communityIncentivesAmount */\n  0x00\n    /* \"contracts/ICFT.sol\":1489:1492  100 */\n  0x64\n    /* \"contracts/ICFT.sol\":1484:1485  5 */\n  0x05\n    /* \"contracts/ICFT.sol\":1468:1481  initialSupply */\n  dup8\n    /* \"contracts/ICFT.sol\":1468:1485  initialSupply * 5 */\n  tag_31\n  swap2\n  swap1\n  tag_22\n  jump\t// in\ntag_31:\n    /* \"contracts/ICFT.sol\":1467:1492  (initialSupply * 5) / 100 */\n  tag_32\n  swap2\n  swap1\n  tag_24\n  jump\t// in\ntag_32:\n    /* \"contracts/ICFT.sol\":1431:1492  uint256 communityIncentivesAmount = (initialSupply * 5) / 100 */\n  swap1\n  pop\n    /* \"contracts/ICFT.sol\":1542:1576  _mint(_investors, investorsAmount) */\n  tag_33\n    /* \"contracts/ICFT.sol\":1548:1558  _investors */\n  dup12\n    /* \"contracts/ICFT.sol\":1560:1575  investorsAmount */\n  dup7\n    /* \"contracts/ICFT.sol\":1542:1547  _mint */\n  shl(0x20, tag_34)\n    /* \"contracts/ICFT.sol\":1542:1576  _mint(_investors, investorsAmount) */\n  0x20\n  shr\n  jump\t// in\ntag_33:\n    /* \"contracts/ICFT.sol\":1586:1624  _mint(_projectTeam, projectTeamAmount) */\n  tag_35\n    /* \"contracts/ICFT.sol\":1592:1604  _projectTeam */\n  dup11\n    /* \"contracts/ICFT.sol\":1606:1623  projectTeamAmount */\n  dup6\n    /* \"contracts/ICFT.sol\":1586:1591  _mint */\n  shl(0x20, tag_34)\n    /* \"contracts/ICFT.sol\":1586:1624  _mint(_projectTeam, projectTeamAmount) */\n  0x20\n  shr\n  jump\t// in\ntag_35:\n    /* \"contracts/ICFT.sol\":1634:1664  _mint(_reserve, reserveAmount) */\n  tag_36\n    /* \"contracts/ICFT.sol\":1640:1648  _reserve */\n  dup10\n    /* \"contracts/ICFT.sol\":1650:1663  reserveAmount */\n  dup5\n    /* \"contracts/ICFT.sol\":1634:1639  _mint */\n  shl(0x20, tag_34)\n    /* \"contracts/ICFT.sol\":1634:1664  _mint(_reserve, reserveAmount) */\n  0x20\n  shr\n  jump\t// in\ntag_36:\n    /* \"contracts/ICFT.sol\":1674:1708  _mint(_marketing, marketingAmount) */\n  tag_37\n    /* \"contracts/ICFT.sol\":1680:1690  _marketing */\n  dup9\n    /* \"contracts/ICFT.sol\":1692:1707  marketingAmount */\n  dup4\n    /* \"contracts/ICFT.sol\":1674:1679  _mint */\n  shl(0x20, tag_34)\n    /* \"contracts/ICFT.sol\":1674:1708  _mint(_marketing, marketingAmount) */\n  0x20\n  shr\n  jump\t// in\ntag_37:\n    /* \"contracts/ICFT.sol\":1718:1772  _mint(_communityIncentives, communityIncentivesAmount) */\n  tag_38\n    /* \"contracts/ICFT.sol\":1724:1744  _communityIncentives */\n  dup8\n    /* \"contracts/ICFT.sol\":1746:1771  communityIncentivesAmount */\n  dup3\n    /* \"contracts/ICFT.sol\":1718:1723  _mint */\n  shl(0x20, tag_34)\n    /* \"contracts/ICFT.sol\":1718:1772  _mint(_communityIncentives, communityIncentivesAmount) */\n  0x20\n  shr\n  jump\t// in\ntag_38:\n    /* \"contracts/ICFT.sol\":1881:1889  365 days */\n  0x01e13380\n    /* \"contracts/ICFT.sol\":1863:1878  block.timestamp */\n  timestamp\n    /* \"contracts/ICFT.sol\":1863:1889  block.timestamp + 365 days */\n  tag_39\n  swap2\n  swap1\n  tag_40\n  jump\t// in\ntag_39:\n    /* \"contracts/ICFT.sol\":1834:1846  lockupExpiry */\n  0x0b\n    /* \"contracts/ICFT.sol\":1834:1860  lockupExpiry[_projectTeam] */\n  0x00\n    /* \"contracts/ICFT.sol\":1847:1859  _projectTeam */\n  dup13\n    /* \"contracts/ICFT.sol\":1834:1860  lockupExpiry[_projectTeam] */\n  0xffffffffffffffffffffffffffffffffffffffff\n  and\n  0xffffffffffffffffffffffffffffffffffffffff\n  and\n  dup2\n  mstore\n  0x20\n  add\n  swap1\n  dup2\n  mstore\n  0x20\n  add\n  0x00\n  keccak256\n    /* \"contracts/ICFT.sol\":1834:1889  lockupExpiry[_projectTeam] = block.timestamp + 365 days */\n  dup2\n  swap1\n  sstore\n  pop\n    /* \"contracts/ICFT.sol\":822:1896  {... */\n  pop\n  pop\n  pop\n  pop\n  pop\n    /* \"contracts/ICFT.sol\":523:1896  constructor(... */\n  pop\n  pop\n  pop\n  pop\n  pop\n  pop\n  pop\n    /* \"contracts/ICFT.sol\":167:3025  contract IndependentCapitalFundToken is ERC20, Ownable {... */\n  jump(tag_41)\n    /* \"@openzeppelin/contracts/access/Ownable.sol\":2912:3099  function _transferOwnership(address newOwner) internal virtual {... */\ntag_16:\n    /* \"@openzeppelin/contracts/access/Ownable.sol\":2985:3001  address oldOwner */\n  0x00\n    /* \"@openzeppelin/contracts/access/Ownable.sol\":3004:3010  _owner */\n  0x05\n  0x00\n  swap1\n  sload\n  swap1\n  0x0100\n  exp\n  swap1\n  div\n  0xffffffffffffffffffffffffffffffffffffffff\n  and\n    /* \"@openzeppelin/contracts/access/Ownable.sol\":2985:3010  address oldOwner = _owner */\n  swap1\n  pop\n    /* \"@openzeppelin/contracts/access/Ownable.sol\":3029:3037  newOwner */\n  dup2\n    /* \"@openzeppelin/contracts/access/Ownable.sol\":3020:3026  _owner */\n  0x05\n  0x00\n    /* \"@openzeppelin/contracts/access/Ownable.sol\":3020:3037  _owner = newOwner */\n  0x0100\n  exp\n  dup2\n  sload\n  dup2\n  0xffffffffffffffffffffffffffffffffffffffff\n  mul\n  not\n  and\n  swap1\n  dup4\n  0xffffffffffffffffffffffffffffffffffffffff\n  and\n  mul\n  or\n  swap1\n  sstore\n  pop\n    /* \"@openzeppelin/contracts/access/Ownable.sol\":3083:3091  newOwner */\n  dup2\n    /* \"@openzeppelin/contracts/access/Ownable.sol\":3052:3092  OwnershipTransferred(oldOwner, newOwner) */\n  0xffffffffffffffffffffffffffffffffffffffff\n  and\n    /* \"@openzeppelin/contracts/access/Ownable.sol\":3073:3081  oldOwner */\n  dup2\n    /* \"@openzeppelin/contracts/access/Ownable.sol\":3052:3092  OwnershipTransferred(oldOwner, newOwner) */\n  0xffffffffffffffffffffffffffffffffffffffff\n  and\n  0x8be0079c531659141344cd1fd0a4f28419497f9722a3daafe3b4186f6b6457e0\n  mload(0x40)\n  mload(0x40)\n  dup1\n  swap2\n  sub\n  swap1\n  log3\n    /* \"@openzeppelin/contracts/access/Ownable.sol\":2975:3099  {... */\n  pop\n    /* \"@openzeppelin/contracts/access/Ownable.sol\":2912:3099  function _transferOwnership(address newOwner) internal virtual {... */\n  pop\n  jump\t// out\n    /* \"@openzeppelin/contracts/token/ERC20/ERC20.sol\":7458:7666  function _mint(address account, uint256 value) internal {... */\ntag_34:\n    /* \"@openzeppelin/contracts/token/ERC20/ERC20.sol\":7547:7548  0 */\n  0x00\n    /* \"@openzeppelin/contracts/token/ERC20/ERC20.sol\":7528:7549  account == address(0) */\n  0xffffffffffffffffffffffffffffffffffffffff\n  and\n    /* \"@openzeppelin/contracts/token/ERC20/ERC20.sol\":7528:7535  account */\n  dup3\n    /* \"@openzeppelin/contracts/token/ERC20/ERC20.sol\":7528:7549  account == address(0) */\n  0xffffffffffffffffffffffffffffffffffffffff\n  and\n  sub\n    /* \"@openzeppelin/contracts/token/ERC20/ERC20.sol\":7524:7615  if (account == address(0)) {... */\n  tag_44\n  jumpi\n    /* \"@openzeppelin/contracts/token/ERC20/ERC20.sol\":7601:7602  0 */\n  0x00\n    /* \"@openzeppelin/contracts/token/ERC20/ERC20.sol\":7572:7604  ERC20InvalidReceiver(address(0)) */\n  mload(0x40)\n  0xec442f0500000000000000000000000000000000000000000000000000000000\n  dup2\n  mstore\n  0x04\n  add\n  tag_45\n  swap2\n  swap1\n  tag_14\n  jump\t// in\ntag_45:\n  mload(0x40)\n  dup1\n  swap2\n  sub\n  swap1\n  revert\n    /* \"@openzeppelin/contracts/token/ERC20/ERC20.sol\":7524:7615  if (account == address(0)) {... */\ntag_44:\n    /* \"@openzeppelin/contracts/token/ERC20/ERC20.sol\":7624:7659  _update(address(0), account, value) */\n  tag_46\n    /* \"@openzeppelin/contracts/token/ERC20/ERC20.sol\":7640:7641  0 */\n  0x00\n    /* \"@openzeppelin/contracts/token/ERC20/ERC20.sol\":7644:7651  account */\n  dup4\n    /* \"@openzeppelin/contracts/token/ERC20/ERC20.sol\":7653:7658  value */\n  dup4\n    /* \"@openzeppelin/contracts/token/ERC20/ERC20.sol\":7624:7631  _update */\n  shl(0x20, tag_47)\n    /* \"@openzeppelin/contracts/token/ERC20/ERC20.sol\":7624:7659  _update(address(0), account, value) */\n  0x20\n  shr\n  jump\t// in\ntag_46:\n    /* \"@openzeppelin/contracts/token/ERC20/ERC20.sol\":7458:7666  function _mint(address account, uint256 value) internal {... */\n  pop\n  pop\n  jump\t// out\n    /* \"@openzeppelin/contracts/token/ERC20/ERC20.sol\":6008:7115  function _update(address from, address to, uint256 value) internal virtual {... */\ntag_47:\n    /* \"@openzeppelin/contracts/token/ERC20/ERC20.sol\":6113:6114  0 */\n  0x00\n    /* \"@openzeppelin/contracts/token/ERC20/ERC20.sol\":6097:6115  from == address(0) */\n  0xffffffffffffffffffffffffffffffffffffffff\n  and\n    /* \"@openzeppelin/contracts/token/ERC20/ERC20.sol\":6097:6101  from */\n  dup4\n    /* \"@openzeppelin/contracts/token/ERC20/ERC20.sol\":6097:6115  from == address(0) */\n  0xffffffffffffffffffffffffffffffffffffffff\n  and\n  sub\n    /* \"@openzeppelin/contracts/token/ERC20/ERC20.sol\":6093:6633  if (from == address(0)) {... */\n  tag_49\n  jumpi\n    /* \"@openzeppelin/contracts/token/ERC20/ERC20.sol\":6249:6254  value */\n  dup1\n    /* \"@openzeppelin/contracts/token/ERC20/ERC20.sol\":6233:6245  _totalSupply */\n  0x02\n  0x00\n    /* \"@openzeppelin/contracts/token/ERC20/ERC20.sol\":6233:6254  _totalSupply += value */\n  dup3\n  dup3\n  sload\n  tag_50\n  swap2\n  swap1\n  tag_40\n  jump\t// in\ntag_50:\n  swap3\n  pop\n  pop\n  dup2\n  swap1\n  sstore\n  pop\n    /* \"@openzeppelin/contracts/token/ERC20/ERC20.sol\":6093:6633  if (from == address(0)) {... */\n  jump(tag_51)\ntag_49:\n    /* \"@openzeppelin/contracts/token/ERC20/ERC20.sol\":6285:6304  uint256 fromBalance */\n  0x00\n    /* \"@openzeppelin/contracts/token/ERC20/ERC20.sol\":6307:6316  _balances */\n  dup1\n    /* \"@openzeppelin/contracts/token/ERC20/ERC20.sol\":6307:6322  _balances[from] */\n  0x00\n    /* \"@openzeppelin/contracts/token/ERC20/ERC20.sol\":6317:6321  from */\n  dup6\n    /* \"@openzeppelin/contracts/token/ERC20/ERC20.sol\":6307:6322  _balances[from] */\n  0xffffffffffffffffffffffffffffffffffffffff\n  and\n  0xffffffffffffffffffffffffffffffffffffffff\n  and\n  dup2\n  mstore\n  0x20\n  add\n  swap1\n  dup2\n  mstore\n  0x20\n  add\n  0x00\n  keccak256\n  sload\n    /* \"@openzeppelin/contracts/token/ERC20/ERC20.sol\":6285:6322  uint256 fromBalance = _balances[from] */\n  swap1\n  pop\n    /* \"@openzeppelin/contracts/token/ERC20/ERC20.sol\":6354:6359  value */\n  dup2\n    /* \"@openzeppelin/contracts/token/ERC20/ERC20.sol\":6340:6351  fromBalance */\n  dup2\n    /* \"@openzeppelin/contracts/token/ERC20/ERC20.sol\":6340:6359  fromBalance < value */\n  lt\n    /* \"@openzeppelin/contracts/token/ERC20/ERC20.sol\":6336:6451  if (fromBalance < value) {... */\n  iszero\n  tag_52\n  jumpi\n    /* \"@openzeppelin/contracts/token/ERC20/ERC20.sol\":6411:6415  from */\n  dup4\n    /* \"@openzeppelin/contracts/token/ERC20/ERC20.sol\":6417:6428  fromBalance */\n  dup2\n    /* \"@openzeppelin/contracts/token/ERC20/ERC20.sol\":6430:6435  value */\n  dup4\n    /* \"@openzeppelin/contracts/token/ERC20/ERC20.sol\":6386:6436  ERC20InsufficientBalance(from, fromBalance, value) */\n  mload(0x40)\n  0xe450d38c00000000000000000000000000000000000000000000000000000000\n  dup2\n  mstore\n  0x04\n  add\n  tag_53\n  swap4\n  swap3\n  swap2\n  swap1\n  tag_54\n  jump\t// in\ntag_53:\n  mload(0x40)\n  dup1\n  swap2\n  sub\n  swap1\n  revert\n    /* \"@openzeppelin/contracts/token/ERC20/ERC20.sol\":6336:6451  if (fromBalance < value) {... */\ntag_52:\n    /* \"@openzeppelin/contracts/token/ERC20/ERC20.sol\":6603:6608  value */\n  dup2\n    /* \"@openzeppelin/contracts/token/ERC20/ERC20.sol\":6589:6600  fromBalance */\n  dup2\n    /* \"@openzeppelin/contracts/token/ERC20/ERC20.sol\":6589:6608  fromBalance - value */\n  sub\n    /* \"@openzeppelin/contracts/token/ERC20/ERC20.sol\":6571:6580  _balances */\n  0x00\n    /* \"@openzeppelin/contracts/token/ERC20/ERC20.sol\":6571:6586  _balances[from] */\n  dup1\n    /* \"@openzeppelin/contracts/token/ERC20/ERC20.sol\":6581:6585  from */\n  dup7\n    /* \"@openzeppelin/contracts/token/ERC20/ERC20.sol\":6571:6586  _balances[from] */\n  0xffffffffffffffffffffffffffffffffffffffff\n  and\n  0xffffffffffffffffffffffffffffffffffffffff\n  and\n  dup2\n  mstore\n  0x20\n  add\n  swap1\n  dup2\n  mstore\n  0x20\n  add\n  0x00\n  keccak256\n    /* \"@openzeppelin/contracts/token/ERC20/ERC20.sol\":6571:6608  _balances[from] = fromBalance - value */\n  dup2\n  swap1\n  sstore\n  pop\n    /* \"@openzeppelin/contracts/token/ERC20/ERC20.sol\":6271:6633  {... */\n  pop\n    /* \"@openzeppelin/contracts/token/ERC20/ERC20.sol\":6093:6633  if (from == address(0)) {... */\ntag_51:\n    /* \"@openzeppelin/contracts/token/ERC20/ERC20.sol\":6661:6662  0 */\n  0x00\n    /* \"@openzeppelin/contracts/token/ERC20/ERC20.sol\":6647:6663  to == address(0) */\n  0xffffffffffffffffffffffffffffffffffffffff\n  and\n    /* \"@openzeppelin/contracts/token/ERC20/ERC20.sol\":6647:6649  to */\n  dup3\n    /* \"@openzeppelin/contracts/token/ERC20/ERC20.sol\":6647:6663  to == address(0) */\n  0xffffffffffffffffffffffffffffffffffffffff\n  and\n  sub\n    /* \"@openzeppelin/contracts/token/ERC20/ERC20.sol\":6643:7068  if (to == address(0)) {... */\n  tag_55\n  jumpi\n    /* \"@openzeppelin/contracts/token/ERC20/ERC20.sol\":6826:6831  value */\n  dup1\n    /* \"@openzeppelin/contracts/token/ERC20/ERC20.sol\":6810:6822  _totalSupply */\n  0x02\n  0x00\n    /* \"@openzeppelin/contracts/token/ERC20/ERC20.sol\":6810:6831  _totalSupply -= value */\n  dup3\n  dup3\n  sload\n  sub\n  swap3\n  pop\n  pop\n  dup2\n  swap1\n  sstore\n  pop\n    /* \"@openzeppelin/contracts/token/ERC20/ERC20.sol\":6643:7068  if (to == address(0)) {... */\n  jump(tag_56)\ntag_55:\n    /* \"@openzeppelin/contracts/token/ERC20/ERC20.sol\":7038:7043  value */\n  dup1\n    /* \"@openzeppelin/contracts/token/ERC20/ERC20.sol\":7021:7030  _balances */\n  0x00\n    /* \"@openzeppelin/contracts/token/ERC20/ERC20.sol\":7021:7034  _balances[to] */\n  dup1\n    /* \"@openzeppelin/contracts/token/ERC20/ERC20.sol\":7031:7033  to */\n  dup5\n    /* \"@openzeppelin/contracts/token/ERC20/ERC20.sol\":7021:7034  _balances[to] */\n  0xffffffffffffffffffffffffffffffffffffffff\n  and\n  0xffffffffffffffffffffffffffffffffffffffff\n  and\n  dup2\n  mstore\n  0x20\n  add\n  swap1\n  dup2\n  mstore\n  0x20\n  add\n  0x00\n  keccak256\n  0x00\n    /* \"@openzeppelin/contracts/token/ERC20/ERC20.sol\":7021:7043  _balances[to] += value */\n  dup3\n  dup3\n  sload\n  add\n  swap3\n  pop\n  pop\n  dup2\n  swap1\n  sstore\n  pop\n    /* \"@openzeppelin/contracts/token/ERC20/ERC20.sol\":6643:7068  if (to == address(0)) {... */\ntag_56:\n    /* \"@openzeppelin/contracts/token/ERC20/ERC20.sol\":7098:7100  to */\n  dup2\n    /* \"@openzeppelin/contracts/token/ERC20/ERC20.sol\":7083:7108  Transfer(from, to, value) */\n  0xffffffffffffffffffffffffffffffffffffffff\n  and\n    /* \"@openzeppelin/contracts/token/ERC20/ERC20.sol\":7092:7096  from */\n  dup4\n    /* \"@openzeppelin/contracts/token/ERC20/ERC20.sol\":7083:7108  Transfer(from, to, value) */\n  0xffffffffffffffffffffffffffffffffffffffff\n  and\n  0xddf252ad1be2c89b69c2b068fc378daa952ba7f163c4a11628f55a4df523b3ef\n    /* \"@openzeppelin/contracts/token/ERC20/ERC20.sol\":7102:7107  value */\n  dup4\n    /* \"@openzeppelin/contracts/token/ERC20/ERC20.sol\":7083:7108  Transfer(from, to, value) */\n  mload(0x40)\n  tag_57\n  swap2\n  swap1\n  tag_58\n  jump\t// in\ntag_57:\n  mload(0x40)\n  dup1\n  swap2\n  sub\n  swap1\n  log3\n    /* \"@openzeppelin/contracts/token/ERC20/ERC20.sol\":6008:7115  function _update(address from, address to, uint256 value) internal virtual {... */\n  pop\n  pop\n  pop\n  jump\t// out\n    /* \"#utility.yul\":88:205   */\ntag_60:\n    /* \"#utility.yul\":197:198   */\n  0x00\n    /* \"#utility.yul\":194:195   */\n  dup1\n    /* \"#utility.yul\":187:199   */\n  revert\n    /* \"#utility.yul\":334:460   */\ntag_62:\n    /* \"#utility.yul\":371:378   */\n  0x00\n    /* \"#utility.yul\":411:453   */\n  0xffffffffffffffffffffffffffffffffffffffff\n    /* \"#utility.yul\":404:409   */\n  dup3\n    /* \"#utility.yul\":400:454   */\n  and\n    /* \"#utility.yul\":389:454   */\n  swap1\n  pop\n    /* \"#utility.yul\":334:460   */\n  swap2\n  swap1\n  pop\n  jump\t// out\n    /* \"#utility.yul\":466:562   */\ntag_63:\n    /* \"#utility.yul\":503:510   */\n  0x00\n    /* \"#utility.yul\":532:556   */\n  tag_101\n    /* \"#utility.yul\":550:555   */\n  dup3\n    /* \"#utility.yul\":532:556   */\n  tag_62\n  jump\t// in\ntag_101:\n    /* \"#utility.yul\":521:556   */\n  swap1\n  pop\n    /* \"#utility.yul\":466:562   */\n  swap2\n  swap1\n  pop\n  jump\t// out\n    /* \"#utility.yul\":568:690   */\ntag_64:\n    /* \"#utility.yul\":641:665   */\n  tag_103\n    /* \"#utility.yul\":659:664   */\n  dup2\n    /* \"#utility.yul\":641:665   */\n  tag_63\n  jump\t// in\ntag_103:\n    /* \"#utility.yul\":634:639   */\n  dup2\n    /* \"#utility.yul\":631:666   */\n  eq\n    /* \"#utility.yul\":621:684   */\n  tag_104\n  jumpi\n    /* \"#utility.yul\":680:681   */\n  0x00\n    /* \"#utility.yul\":677:678   */\n  dup1\n    /* \"#utility.yul\":670:682   */\n  revert\n    /* \"#utility.yul\":621:684   */\ntag_104:\n    /* \"#utility.yul\":568:690   */\n  pop\n  jump\t// out\n    /* \"#utility.yul\":696:839   */\ntag_65:\n    /* \"#utility.yul\":753:758   */\n  0x00\n    /* \"#utility.yul\":784:790   */\n  dup2\n    /* \"#utility.yul\":778:791   */\n  mload\n    /* \"#utility.yul\":769:791   */\n  swap1\n  pop\n    /* \"#utility.yul\":800:833   */\n  tag_106\n    /* \"#utility.yul\":827:832   */\n  dup2\n    /* \"#utility.yul\":800:833   */\n  tag_64\n  jump\t// in\ntag_106:\n    /* \"#utility.yul\":696:839   */\n  swap3\n  swap2\n  pop\n  pop\n  jump\t// out\n    /* \"#utility.yul\":845:922   */\ntag_66:\n    /* \"#utility.yul\":882:889   */\n  0x00\n    /* \"#utility.yul\":911:916   */\n  dup2\n    /* \"#utility.yul\":900:916   */\n  swap1\n  pop\n    /* \"#utility.yul\":845:922   */\n  swap2\n  swap1\n  pop\n  jump\t// out\n    /* \"#utility.yul\":928:1050   */\ntag_67:\n    /* \"#utility.yul\":1001:1025   */\n  tag_109\n    /* \"#utility.yul\":1019:1024   */\n  dup2\n    /* \"#utility.yul\":1001:1025   */\n  tag_66\n  jump\t// in\ntag_109:\n    /* \"#utility.yul\":994:999   */\n  dup2\n    /* \"#utility.yul\":991:1026   */\n  eq\n    /* \"#utility.yul\":981:1044   */\n  tag_110\n  jumpi\n    /* \"#utility.yul\":1040:1041   */\n  0x00\n    /* \"#utility.yul\":1037:1038   */\n  dup1\n    /* \"#utility.yul\":1030:1042   */\n  revert\n    /* \"#utility.yul\":981:1044   */\ntag_110:\n    /* \"#utility.yul\":928:1050   */\n  pop\n  jump\t// out\n    /* \"#utility.yul\":1056:1199   */\ntag_68:\n    /* \"#utility.yul\":1113:1118   */\n  0x00\n    /* \"#utility.yul\":1144:1150   */\n  dup2\n    /* \"#utility.yul\":1138:1151   */\n  mload\n    /* \"#utility.yul\":1129:1151   */\n  swap1\n  pop\n    /* \"#utility.yul\":1160:1193   */\n  tag_112\n    /* \"#utility.yul\":1187:1192   */\n  dup2\n    /* \"#utility.yul\":1160:1193   */\n  tag_67\n  jump\t// in\ntag_112:\n    /* \"#utility.yul\":1056:1199   */\n  swap3\n  swap2\n  pop\n  pop\n  jump\t// out\n    /* \"#utility.yul\":1205:2496   */\ntag_3:\n    /* \"#utility.yul\":1329:1335   */\n  0x00\n    /* \"#utility.yul\":1337:1343   */\n  dup1\n    /* \"#utility.yul\":1345:1351   */\n  0x00\n    /* \"#utility.yul\":1353:1359   */\n  dup1\n    /* \"#utility.yul\":1361:1367   */\n  0x00\n    /* \"#utility.yul\":1369:1375   */\n  dup1\n    /* \"#utility.yul\":1377:1383   */\n  0x00\n    /* \"#utility.yul\":1426:1429   */\n  0xe0\n    /* \"#utility.yul\":1414:1423   */\n  dup9\n    /* \"#utility.yul\":1405:1412   */\n  dup11\n    /* \"#utility.yul\":1401:1424   */\n  sub\n    /* \"#utility.yul\":1397:1430   */\n  slt\n    /* \"#utility.yul\":1394:1514   */\n  iszero\n  tag_114\n  jumpi\n    /* \"#utility.yul\":1433:1512   */\n  tag_115\n  tag_60\n  jump\t// in\ntag_115:\n    /* \"#utility.yul\":1394:1514   */\ntag_114:\n    /* \"#utility.yul\":1553:1554   */\n  0x00\n    /* \"#utility.yul\":1578:1642   */\n  tag_116\n    /* \"#utility.yul\":1634:1641   */\n  dup11\n    /* \"#utility.yul\":1625:1631   */\n  dup3\n    /* \"#utility.yul\":1614:1623   */\n  dup12\n    /* \"#utility.yul\":1610:1632   */\n  add\n    /* \"#utility.yul\":1578:1642   */\n  tag_65\n  jump\t// in\ntag_116:\n    /* \"#utility.yul\":1568:1642   */\n  swap8\n  pop\n    /* \"#utility.yul\":1524:1652   */\n  pop\n    /* \"#utility.yul\":1691:1693   */\n  0x20\n    /* \"#utility.yul\":1717:1781   */\n  tag_117\n    /* \"#utility.yul\":1773:1780   */\n  dup11\n    /* \"#utility.yul\":1764:1770   */\n  dup3\n    /* \"#utility.yul\":1753:1762   */\n  dup12\n    /* \"#utility.yul\":1749:1771   */\n  add\n    /* \"#utility.yul\":1717:1781   */\n  tag_65\n  jump\t// in\ntag_117:\n    /* \"#utility.yul\":1707:1781   */\n  swap7\n  pop\n    /* \"#utility.yul\":1662:1791   */\n  pop\n    /* \"#utility.yul\":1830:1832   */\n  0x40\n    /* \"#utility.yul\":1856:1920   */\n  tag_118\n    /* \"#utility.yul\":1912:1919   */\n  dup11\n    /* \"#utility.yul\":1903:1909   */\n  dup3\n    /* \"#utility.yul\":1892:1901   */\n  dup12\n    /* \"#utility.yul\":1888:1910   */\n  add\n    /* \"#utility.yul\":1856:1920   */\n  tag_65\n  jump\t// in\ntag_118:\n    /* \"#utility.yul\":1846:1920   */\n  swap6\n  pop\n    /* \"#utility.yul\":1801:1930   */\n  pop\n    /* \"#utility.yul\":1969:1971   */\n  0x60\n    /* \"#utility.yul\":1995:2059   */\n  tag_119\n    /* \"#utility.yul\":2051:2058   */\n  dup11\n    /* \"#utility.yul\":2042:2048   */\n  dup3\n    /* \"#utility.yul\":2031:2040   */\n  dup12\n    /* \"#utility.yul\":2027:2049   */\n  add\n    /* \"#utility.yul\":1995:2059   */\n  tag_65\n  jump\t// in\ntag_119:\n    /* \"#utility.yul\":1985:2059   */\n  swap5\n  pop\n    /* \"#utility.yul\":1940:2069   */\n  pop\n    /* \"#utility.yul\":2108:2111   */\n  0x80\n    /* \"#utility.yul\":2135:2199   */\n  tag_120\n    /* \"#utility.yul\":2191:2198   */\n  dup11\n    /* \"#utility.yul\":2182:2188   */\n  dup3\n    /* \"#utility.yul\":2171:2180   */\n  dup12\n    /* \"#utility.yul\":2167:2189   */\n  add\n    /* \"#utility.yul\":2135:2199   */\n  tag_65\n  jump\t// in\ntag_120:\n    /* \"#utility.yul\":2125:2199   */\n  swap4\n  pop\n    /* \"#utility.yul\":2079:2209   */\n  pop\n    /* \"#utility.yul\":2248:2251   */\n  0xa0\n    /* \"#utility.yul\":2275:2339   */\n  tag_121\n    /* \"#utility.yul\":2331:2338   */\n  dup11\n    /* \"#utility.yul\":2322:2328   */\n  dup3\n    /* \"#utility.yul\":2311:2320   */\n  dup12\n    /* \"#utility.yul\":2307:2329   */\n  add\n    /* \"#utility.yul\":2275:2339   */\n  tag_65\n  jump\t// in\ntag_121:\n    /* \"#utility.yul\":2265:2339   */\n  swap3\n  pop\n    /* \"#utility.yul\":2219:2349   */\n  pop\n    /* \"#utility.yul\":2388:2391   */\n  0xc0\n    /* \"#utility.yul\":2415:2479   */\n  tag_122\n    /* \"#utility.yul\":2471:2478   */\n  dup11\n    /* \"#utility.yul\":2462:2468   */\n  dup3\n    /* \"#utility.yul\":2451:2460   */\n  dup12\n    /* \"#utility.yul\":2447:2469   */\n  add\n    /* \"#utility.yul\":2415:2479   */\n  tag_68\n  jump\t// in\ntag_122:\n    /* \"#utility.yul\":2405:2479   */\n  swap2\n  pop\n    /* \"#utility.yul\":2359:2489   */\n  pop\n    /* \"#utility.yul\":1205:2496   */\n  swap3\n  swap6\n  swap9\n  swap2\n  swap5\n  swap8\n  pop\n  swap3\n  swap6\n  pop\n  jump\t// out\n    /* \"#utility.yul\":2502:2601   */\ntag_69:\n    /* \"#utility.yul\":2554:2560   */\n  0x00\n    /* \"#utility.yul\":2588:2593   */\n  dup2\n    /* \"#utility.yul\":2582:2594   */\n  mload\n    /* \"#utility.yul\":2572:2594   */\n  swap1\n  pop\n    /* \"#utility.yul\":2502:2601   */\n  swap2\n  swap1\n  pop\n  jump\t// out\n    /* \"#utility.yul\":2607:2787   */\ntag_70:\n    /* \"#utility.yul\":2655:2732   */\n  0x4e487b7100000000000000000000000000000000000000000000000000000000\n    /* \"#utility.yul\":2652:2653   */\n  0x00\n    /* \"#utility.yul\":2645:2733   */\n  mstore\n    /* \"#utility.yul\":2752:2756   */\n  0x41\n    /* \"#utility.yul\":2749:2750   */\n  0x04\n    /* \"#utility.yul\":2742:2757   */\n  mstore\n    /* \"#utility.yul\":2776:2780   */\n  0x24\n    /* \"#utility.yul\":2773:2774   */\n  0x00\n    /* \"#utility.yul\":2766:2781   */\n  revert\n    /* \"#utility.yul\":2793:2973   */\ntag_71:\n    /* \"#utility.yul\":2841:2918   */\n  0x4e487b7100000000000000000000000000000000000000000000000000000000\n    /* \"#utility.yul\":2838:2839   */\n  0x00\n    /* \"#utility.yul\":2831:2919   */\n  mstore\n    /* \"#utility.yul\":2938:2942   */\n  0x22\n    /* \"#utility.yul\":2935:2936   */\n  0x04\n    /* \"#utility.yul\":2928:2943   */\n  mstore\n    /* \"#utility.yul\":2962:2966   */\n  0x24\n    /* \"#utility.yul\":2959:2960   */\n  0x00\n    /* \"#utility.yul\":2952:2967   */\n  revert\n    /* \"#utility.yul\":2979:3299   */\ntag_72:\n    /* \"#utility.yul\":3023:3029   */\n  0x00\n    /* \"#utility.yul\":3060:3061   */\n  0x02\n    /* \"#utility.yul\":3054:3058   */\n  dup3\n    /* \"#utility.yul\":3050:3062   */\n  div\n    /* \"#utility.yul\":3040:3062   */\n  swap1\n  pop\n    /* \"#utility.yul\":3107:3108   */\n  0x01\n    /* \"#utility.yul\":3101:3105   */\n  dup3\n    /* \"#utility.yul\":3097:3109   */\n  and\n    /* \"#utility.yul\":3128:3146   */\n  dup1\n    /* \"#utility.yul\":3118:3199   */\n  tag_127\n  jumpi\n    /* \"#utility.yul\":3184:3188   */\n  0x7f\n    /* \"#utility.yul\":3176:3182   */\n  dup3\n    /* \"#utility.yul\":3172:3189   */\n  and\n    /* \"#utility.yul\":3162:3189   */\n  swap2\n  pop\n    /* \"#utility.yul\":3118:3199   */\ntag_127:\n    /* \"#utility.yul\":3246:3248   */\n  0x20\n    /* \"#utility.yul\":3238:3244   */\n  dup3\n    /* \"#utility.yul\":3235:3249   */\n  lt\n    /* \"#utility.yul\":3215:3233   */\n  dup2\n    /* \"#utility.yul\":3212:3250   */\n  sub\n    /* \"#utility.yul\":3209:3293   */\n  tag_128\n  jumpi\n    /* \"#utility.yul\":3265:3283   */\n  tag_129\n  tag_71\n  jump\t// in\ntag_129:\n    /* \"#utility.yul\":3209:3293   */\ntag_128:\n    /* \"#utility.yul\":3030:3299   */\n  pop\n    /* \"#utility.yul\":2979:3299   */\n  swap2\n  swap1\n  pop\n  jump\t// out\n    /* \"#utility.yul\":3305:3446   */\ntag_73:\n    /* \"#utility.yul\":3354:3358   */\n  0x00\n    /* \"#utility.yul\":3377:3380   */\n  dup2\n    /* \"#utility.yul\":3369:3380   */\n  swap1\n  pop\n    /* \"#utility.yul\":3400:3403   */\n  dup2\n    /* \"#utility.yul\":3397:3398   */\n  0x00\n    /* \"#utility.yul\":3390:3404   */\n  mstore\n    /* \"#utility.yul\":3434:3438   */\n  0x20\n    /* \"#utility.yul\":3431:3432   */\n  0x00\n    /* \"#utility.yul\":3421:3439   */\n  keccak256\n    /* \"#utility.yul\":3413:3439   */\n  swap1\n  pop\n    /* \"#utility.yul\":3305:3446   */\n  swap2\n  swap1\n  pop\n  jump\t// out\n    /* \"#utility.yul\":3452:3545   */\ntag_74:\n    /* \"#utility.yul\":3489:3495   */\n  0x00\n    /* \"#utility.yul\":3536:3538   */\n  0x20\n    /* \"#utility.yul\":3531:3533   */\n  0x1f\n    /* \"#utility.yul\":3524:3529   */\n  dup4\n    /* \"#utility.yul\":3520:3534   */\n  add\n    /* \"#utility.yul\":3516:3539   */\n  div\n    /* \"#utility.yul\":3506:3539   */\n  swap1\n  pop\n    /* \"#utility.yul\":3452:3545   */\n  swap2\n  swap1\n  pop\n  jump\t// out\n    /* \"#utility.yul\":3551:3658   */\ntag_75:\n    /* \"#utility.yul\":3595:3603   */\n  0x00\n    /* \"#utility.yul\":3645:3650   */\n  dup3\n    /* \"#utility.yul\":3639:3643   */\n  dup3\n    /* \"#utility.yul\":3635:3651   */\n  shl\n    /* \"#utility.yul\":3614:3651   */\n  swap1\n  pop\n    /* \"#utility.yul\":3551:3658   */\n  swap3\n  swap2\n  pop\n  pop\n  jump\t// out\n    /* \"#utility.yul\":3664:4057   */\ntag_76:\n    /* \"#utility.yul\":3733:3739   */\n  0x00\n    /* \"#utility.yul\":3783:3784   */\n  0x08\n    /* \"#utility.yul\":3771:3781   */\n  dup4\n    /* \"#utility.yul\":3767:3785   */\n  mul\n    /* \"#utility.yul\":3806:3903   */\n  tag_134\n    /* \"#utility.yul\":3836:3902   */\n  0xffffffffffffffffffffffffffffffffffffffffffffffffffffffffffffffff\n    /* \"#utility.yul\":3825:3834   */\n  dup3\n    /* \"#utility.yul\":3806:3903   */\n  tag_75\n  jump\t// in\ntag_134:\n    /* \"#utility.yul\":3924:3963   */\n  tag_135\n    /* \"#utility.yul\":3954:3962   */\n  dup7\n    /* \"#utility.yul\":3943:3952   */\n  dup4\n    /* \"#utility.yul\":3924:3963   */\n  tag_75\n  jump\t// in\ntag_135:\n    /* \"#utility.yul\":3912:3963   */\n  swap6\n  pop\n    /* \"#utility.yul\":3996:4000   */\n  dup1\n    /* \"#utility.yul\":3992:4001   */\n  not\n    /* \"#utility.yul\":3985:3990   */\n  dup5\n    /* \"#utility.yul\":3981:4002   */\n  and\n    /* \"#utility.yul\":3972:4002   */\n  swap4\n  pop\n    /* \"#utility.yul\":4045:4049   */\n  dup1\n    /* \"#utility.yul\":4035:4043   */\n  dup7\n    /* \"#utility.yul\":4031:4050   */\n  and\n    /* \"#utility.yul\":4024:4029   */\n  dup5\n    /* \"#utility.yul\":4021:4051   */\n  or\n    /* \"#utility.yul\":4011:4051   */\n  swap3\n  pop\n    /* \"#utility.yul\":3740:4057   */\n  pop\n  pop\n    /* \"#utility.yul\":3664:4057   */\n  swap4\n  swap3\n  pop\n  pop\n  pop\n  jump\t// out\n    /* \"#utility.yul\":4063:4123   */\ntag_77:\n    /* \"#utility.yul\":4091:4094   */\n  0x00\n    /* \"#utility.yul\":4112:4117   */\n  dup2\n    /* \"#utility.yul\":4105:4117   */\n  swap1\n  pop\n    /* \"#utility.yul\":4063:4123   */\n  swap2\n  swap1\n  pop\n  jump\t// out\n    /* \"#utility.yul\":4129:4271   */\ntag_78:\n    /* \"#utility.yul\":4179:4188   */\n  0x00\n    /* \"#utility.yul\":4212:4265   */\n  tag_138\n    /* \"#utility.yul\":4230:4264   */\n  tag_139\n    /* \"#utility.yul\":4239:4263   */\n  tag_140\n    /* \"#utility.yul\":4257:4262   */\n  dup5\n    /* \"#utility.yul\":4239:4263   */\n  tag_66\n  jump\t// in\ntag_140:\n    /* \"#utility.yul\":4230:4264   */\n  tag_77\n  jump\t// in\ntag_139:\n    /* \"#utility.yul\":4212:4265   */\n  tag_66\n  jump\t// in\ntag_138:\n    /* \"#utility.yul\":4199:4265   */\n  swap1\n  pop\n    /* \"#utility.yul\":4129:4271   */\n  swap2\n  swap1\n  pop\n  jump\t// out\n    /* \"#utility.yul\":4277:4352   */\ntag_79:\n    /* \"#utility.yul\":4320:4323   */\n  0x00\n    /* \"#utility.yul\":4341:4346   */\n  dup2\n    /* \"#utility.yul\":4334:4346   */\n  swap1\n  pop\n    /* \"#utility.yul\":4277:4352   */\n  swap2\n  swap1\n  pop\n  jump\t// out\n    /* \"#utility.yul\":4358:4627   */\ntag_80:\n    /* \"#utility.yul\":4468:4507   */\n  tag_143\n    /* \"#utility.yul\":4499:4506   */\n  dup4\n    /* \"#utility.yul\":4468:4507   */\n  tag_78\n  jump\t// in\ntag_143:\n    /* \"#utility.yul\":4529:4620   */\n  tag_144\n    /* \"#utility.yul\":4578:4619   */\n  tag_145\n    /* \"#utility.yul\":4602:4618   */\n  dup3\n    /* \"#utility.yul\":4578:4619   */\n  tag_79\n  jump\t// in\ntag_145:\n    /* \"#utility.yul\":4570:4576   */\n  dup5\n    /* \"#utility.yul\":4563:4567   */\n  dup5\n    /* \"#utility.yul\":4557:4568   */\n  sload\n    /* \"#utility.yul\":4529:4620   */\n  tag_76\n  jump\t// in\ntag_144:\n    /* \"#utility.yul\":4523:4527   */\n  dup3\n    /* \"#utility.yul\":4516:4621   */\n  sstore\n    /* \"#utility.yul\":4434:4627   */\n  pop\n    /* \"#utility.yul\":4358:4627   */\n  pop\n  pop\n  pop\n  jump\t// out\n    /* \"#utility.yul\":4633:4706   */\ntag_81:\n    /* \"#utility.yul\":4678:4681   */\n  0x00\n    /* \"#utility.yul\":4633:4706   */\n  swap1\n  jump\t// out\n    /* \"#utility.yul\":4712:4901   */\ntag_82:\n    /* \"#utility.yul\":4789:4821   */\n  tag_148\n  tag_81\n  jump\t// in\ntag_148:\n    /* \"#utility.yul\":4830:4895   */\n  tag_149\n    /* \"#utility.yul\":4888:4894   */\n  dup2\n    /* \"#utility.yul\":4880:4886   */\n  dup5\n    /* \"#utility.yul\":4874:4878   */\n  dup5\n    /* \"#utility.yul\":4830:4895   */\n  tag_80\n  jump\t// in\ntag_149:\n    /* \"#utility.yul\":4765:4901   */\n  pop\n    /* \"#utility.yul\":4712:4901   */\n  pop\n  pop\n  jump\t// out\n    /* \"#utility.yul\":4907:5093   */\ntag_83:\n    /* \"#utility.yul\":4967:5087   */\ntag_151:\n    /* \"#utility.yul\":4984:4987   */\n  dup2\n    /* \"#utility.yul\":4977:4982   */\n  dup2\n    /* \"#utility.yul\":4974:4988   */\n  lt\n    /* \"#utility.yul\":4967:5087   */\n  iszero\n  tag_153\n  jumpi\n    /* \"#utility.yul\":5038:5077   */\n  tag_154\n    /* \"#utility.yul\":5075:5076   */\n  0x00\n    /* \"#utility.yul\":5068:5073   */\n  dup3\n    /* \"#utility.yul\":5038:5077   */\n  tag_82\n  jump\t// in\ntag_154:\n    /* \"#utility.yul\":5011:5012   */\n  0x01\n    /* \"#utility.yul\":5004:5009   */\n  dup2\n    /* \"#utility.yul\":5000:5013   */\n  add\n    /* \"#utility.yul\":4991:5013   */\n  swap1\n  pop\n    /* \"#utility.yul\":4967:5087   */\n  jump(tag_151)\ntag_153:\n    /* \"#utility.yul\":4907:5093   */\n  pop\n  pop\n  jump\t// out\n    /* \"#utility.yul\":5099:5642   */\ntag_84:\n    /* \"#utility.yul\":5200:5202   */\n  0x1f\n    /* \"#utility.yul\":5195:5198   */\n  dup3\n    /* \"#utility.yul\":5192:5203   */\n  gt\n    /* \"#utility.yul\":5189:5635   */\n  iszero\n  tag_156\n  jumpi\n    /* \"#utility.yul\":5234:5272   */\n  tag_157\n    /* \"#utility.yul\":5266:5271   */\n  dup2\n    /* \"#utility.yul\":5234:5272   */\n  tag_73\n  jump\t// in\ntag_157:\n    /* \"#utility.yul\":5318:5347   */\n  tag_158\n    /* \"#utility.yul\":5336:5346   */\n  dup5\n    /* \"#utility.yul\":5318:5347   */\n  tag_74\n  jump\t// in\ntag_158:\n    /* \"#utility.yul\":5308:5316   */\n  dup2\n    /* \"#utility.yul\":5304:5348   */\n  add\n    /* \"#utility.yul\":5501:5503   */\n  0x20\n    /* \"#utility.yul\":5489:5499   */\n  dup6\n    /* \"#utility.yul\":5486:5504   */\n  lt\n    /* \"#utility.yul\":5483:5532   */\n  iszero\n  tag_159\n  jumpi\n    /* \"#utility.yul\":5522:5530   */\n  dup2\n    /* \"#utility.yul\":5507:5530   */\n  swap1\n  pop\n    /* \"#utility.yul\":5483:5532   */\ntag_159:\n    /* \"#utility.yul\":5545:5625   */\n  tag_160\n    /* \"#utility.yul\":5601:5623   */\n  tag_161\n    /* \"#utility.yul\":5619:5622   */\n  dup6\n    /* \"#utility.yul\":5601:5623   */\n  tag_74\n  jump\t// in\ntag_161:\n    /* \"#utility.yul\":5591:5599   */\n  dup4\n    /* \"#utility.yul\":5587:5624   */\n  add\n    /* \"#utility.yul\":5574:5585   */\n  dup3\n    /* \"#utility.yul\":5545:5625   */\n  tag_83\n  jump\t// in\ntag_160:\n    /* \"#utility.yul\":5204:5635   */\n  pop\n  pop\n    /* \"#utility.yul\":5189:5635   */\ntag_156:\n    /* \"#utility.yul\":5099:5642   */\n  pop\n  pop\n  pop\n  jump\t// out\n    /* \"#utility.yul\":5648:5765   */\ntag_85:\n    /* \"#utility.yul\":5702:5710   */\n  0x00\n    /* \"#utility.yul\":5752:5757   */\n  dup3\n    /* \"#utility.yul\":5746:5750   */\n  dup3\n    /* \"#utility.yul\":5742:5758   */\n  shr\n    /* \"#utility.yul\":5721:5758   */\n  swap1\n  pop\n    /* \"#utility.yul\":5648:5765   */\n  swap3\n  swap2\n  pop\n  pop\n  jump\t// out\n    /* \"#utility.yul\":5771:5940   */\ntag_86:\n    /* \"#utility.yul\":5815:5821   */\n  0x00\n    /* \"#utility.yul\":5848:5899   */\n  tag_164\n    /* \"#utility.yul\":5896:5897   */\n  0x00\n    /* \"#utility.yul\":5892:5898   */\n  not\n    /* \"#utility.yul\":5884:5889   */\n  dup5\n    /* \"#utility.yul\":5881:5882   */\n  0x08\n    /* \"#utility.yul\":5877:5890   */\n  mul\n    /* \"#utility.yul\":5848:5899   */\n  tag_85\n  jump\t// in\ntag_164:\n    /* \"#utility.yul\":5844:5900   */\n  not\n    /* \"#utility.yul\":5929:5933   */\n  dup1\n    /* \"#utility.yul\":5923:5927   */\n  dup4\n    /* \"#utility.yul\":5919:5934   */\n  and\n    /* \"#utility.yul\":5909:5934   */\n  swap2\n  pop\n    /* \"#utility.yul\":5822:5940   */\n  pop\n    /* \"#utility.yul\":5771:5940   */\n  swap3\n  swap2\n  pop\n  pop\n  jump\t// out\n    /* \"#utility.yul\":5945:6240   */\ntag_87:\n    /* \"#utility.yul\":6021:6025   */\n  0x00\n    /* \"#utility.yul\":6167:6196   */\n  tag_166\n    /* \"#utility.yul\":6192:6195   */\n  dup4\n    /* \"#utility.yul\":6186:6190   */\n  dup4\n    /* \"#utility.yul\":6167:6196   */\n  tag_86\n  jump\t// in\ntag_166:\n    /* \"#utility.yul\":6159:6196   */\n  swap2\n  pop\n    /* \"#utility.yul\":6229:6232   */\n  dup3\n    /* \"#utility.yul\":6226:6227   */\n  0x02\n    /* \"#utility.yul\":6222:6233   */\n  mul\n    /* \"#utility.yul\":6216:6220   */\n  dup3\n    /* \"#utility.yul\":6213:6234   */\n  or\n    /* \"#utility.yul\":6205:6234   */\n  swap1\n  pop\n    /* \"#utility.yul\":5945:6240   */\n  swap3\n  swap2\n  pop\n  pop\n  jump\t// out\n    /* \"#utility.yul\":6245:7640   */\ntag_9:\n    /* \"#utility.yul\":6362:6399   */\n  tag_168\n    /* \"#utility.yul\":6395:6398   */\n  dup3\n    /* \"#utility.yul\":6362:6399   */\n  tag_69\n  jump\t// in\ntag_168:\n    /* \"#utility.yul\":6464:6482   */\n  0xffffffffffffffff\n    /* \"#utility.yul\":6456:6462   */\n  dup2\n    /* \"#utility.yul\":6453:6483   */\n  gt\n    /* \"#utility.yul\":6450:6506   */\n  iszero\n  tag_169\n  jumpi\n    /* \"#utility.yul\":6486:6504   */\n  tag_170\n  tag_70\n  jump\t// in\ntag_170:\n    /* \"#utility.yul\":6450:6506   */\ntag_169:\n    /* \"#utility.yul\":6530:6568   */\n  tag_171\n    /* \"#utility.yul\":6562:6566   */\n  dup3\n    /* \"#utility.yul\":6556:6567   */\n  sload\n    /* \"#utility.yul\":6530:6568   */\n  tag_72\n  jump\t// in\ntag_171:\n    /* \"#utility.yul\":6615:6682   */\n  tag_172\n    /* \"#utility.yul\":6675:6681   */\n  dup3\n    /* \"#utility.yul\":6667:6673   */\n  dup3\n    /* \"#utility.yul\":6661:6665   */\n  dup6\n    /* \"#utility.yul\":6615:6682   */\n  tag_84\n  jump\t// in\ntag_172:\n    /* \"#utility.yul\":6709:6710   */\n  0x00\n    /* \"#utility.yul\":6733:6737   */\n  0x20\n    /* \"#utility.yul\":6720:6737   */\n  swap1\n  pop\n    /* \"#utility.yul\":6765:6767   */\n  0x1f\n    /* \"#utility.yul\":6757:6763   */\n  dup4\n    /* \"#utility.yul\":6754:6768   */\n  gt\n    /* \"#utility.yul\":6782:6783   */\n  0x01\n    /* \"#utility.yul\":6777:7395   */\n  dup2\n  eq\n  tag_174\n  jumpi\n    /* \"#utility.yul\":7439:7440   */\n  0x00\n    /* \"#utility.yul\":7456:7462   */\n  dup5\n    /* \"#utility.yul\":7453:7530   */\n  iszero\n  tag_175\n  jumpi\n    /* \"#utility.yul\":7505:7514   */\n  dup3\n    /* \"#utility.yul\":7500:7503   */\n  dup8\n    /* \"#utility.yul\":7496:7515   */\n  add\n    /* \"#utility.yul\":7490:7516   */\n  mload\n    /* \"#utility.yul\":7481:7516   */\n  swap1\n  pop\n    /* \"#utility.yul\":7453:7530   */\ntag_175:\n    /* \"#utility.yul\":7556:7623   */\n  tag_176\n    /* \"#utility.yul\":7616:7622   */\n  dup6\n    /* \"#utility.yul\":7609:7614   */\n  dup3\n    /* \"#utility.yul\":7556:7623   */\n  tag_87\n  jump\t// in\ntag_176:\n    /* \"#utility.yul\":7550:7554   */\n  dup7\n    /* \"#utility.yul\":7543:7624   */\n  sstore\n    /* \"#utility.yul\":7412:7634   */\n  pop\n    /* \"#utility.yul\":6747:7634   */\n  jump(tag_173)\n    /* \"#utility.yul\":6777:7395   */\ntag_174:\n    /* \"#utility.yul\":6829:6833   */\n  0x1f\n    /* \"#utility.yul\":6825:6834   */\n  not\n    /* \"#utility.yul\":6817:6823   */\n  dup5\n    /* \"#utility.yul\":6813:6835   */\n  and\n    /* \"#utility.yul\":6863:6900   */\n  tag_177\n    /* \"#utility.yul\":6895:6899   */\n  dup7\n    /* \"#utility.yul\":6863:6900   */\n  tag_73\n  jump\t// in\ntag_177:\n    /* \"#utility.yul\":6922:6923   */\n  0x00\n    /* \"#utility.yul\":6936:7144   */\ntag_178:\n    /* \"#utility.yul\":6950:6957   */\n  dup3\n    /* \"#utility.yul\":6947:6948   */\n  dup2\n    /* \"#utility.yul\":6944:6958   */\n  lt\n    /* \"#utility.yul\":6936:7144   */\n  iszero\n  tag_180\n  jumpi\n    /* \"#utility.yul\":7029:7038   */\n  dup5\n    /* \"#utility.yul\":7024:7027   */\n  dup10\n    /* \"#utility.yul\":7020:7039   */\n  add\n    /* \"#utility.yul\":7014:7040   */\n  mload\n    /* \"#utility.yul\":7006:7012   */\n  dup3\n    /* \"#utility.yul\":6999:7041   */\n  sstore\n    /* \"#utility.yul\":7080:7081   */\n  0x01\n    /* \"#utility.yul\":7072:7078   */\n  dup3\n    /* \"#utility.yul\":7068:7082   */\n  add\n    /* \"#utility.yul\":7058:7082   */\n  swap2\n  pop\n    /* \"#utility.yul\":7127:7129   */\n  0x20\n    /* \"#utility.yul\":7116:7125   */\n  dup6\n    /* \"#utility.yul\":7112:7130   */\n  add\n    /* \"#utility.yul\":7099:7130   */\n  swap5\n  pop\n    /* \"#utility.yul\":6973:6977   */\n  0x20\n    /* \"#utility.yul\":6970:6971   */\n  dup2\n    /* \"#utility.yul\":6966:6978   */\n  add\n    /* \"#utility.yul\":6961:6978   */\n  swap1\n  pop\n    /* \"#utility.yul\":6936:7144   */\n  jump(tag_178)\ntag_180:\n    /* \"#utility.yul\":7172:7178   */\n  dup7\n    /* \"#utility.yul\":7163:7170   */\n  dup4\n    /* \"#utility.yul\":7160:7179   */\n  lt\n    /* \"#utility.yul\":7157:7336   */\n  iszero\n  tag_181\n  jumpi\n    /* \"#utility.yul\":7230:7239   */\n  dup5\n    /* \"#utility.yul\":7225:7228   */\n  dup10\n    /* \"#utility.yul\":7221:7240   */\n  add\n    /* \"#utility.yul\":7215:7241   */\n  mload\n    /* \"#utility.yul\":7273:7321   */\n  tag_182\n    /* \"#utility.yul\":7315:7319   */\n  0x1f\n    /* \"#utility.yul\":7307:7313   */\n  dup10\n    /* \"#utility.yul\":7303:7320   */\n  and\n    /* \"#utility.yul\":7292:7301   */\n  dup3\n    /* \"#utility.yul\":7273:7321   */\n  tag_86\n  jump\t// in\ntag_182:\n    /* \"#utility.yul\":7265:7271   */\n  dup4\n    /* \"#utility.yul\":7258:7322   */\n  sstore\n    /* \"#utility.yul\":7180:7336   */\n  pop\n    /* \"#utility.yul\":7157:7336   */\ntag_181:\n    /* \"#utility.yul\":7382:7383   */\n  0x01\n    /* \"#utility.yul\":7378:7379   */\n  0x02\n    /* \"#utility.yul\":7370:7376   */\n  dup9\n    /* \"#utility.yul\":7366:7380   */\n  mul\n    /* \"#utility.yul\":7362:7384   */\n  add\n    /* \"#utility.yul\":7356:7360   */\n  dup9\n    /* \"#utility.yul\":7349:7385   */\n  sstore\n    /* \"#utility.yul\":6784:7395   */\n  pop\n  pop\n  pop\n    /* \"#utility.yul\":6747:7634   */\ntag_173:\n  pop\n    /* \"#utility.yul\":6337:7640   */\n  pop\n  pop\n  pop\n    /* \"#utility.yul\":6245:7640   */\n  pop\n  pop\n  jump\t// out\n    /* \"#utility.yul\":7646:7764   */\ntag_88:\n    /* \"#utility.yul\":7733:7757   */\n  tag_184\n    /* \"#utility.yul\":7751:7756   */\n  dup2\n    /* \"#utility.yul\":7733:7757   */\n  tag_63\n  jump\t// in\ntag_184:\n    /* \"#utility.yul\":7728:7731   */\n  dup3\n    /* \"#utility.yul\":7721:7758   */\n  mstore\n    /* \"#utility.yul\":7646:7764   */\n  pop\n  pop\n  jump\t// out\n    /* \"#utility.yul\":7770:7992   */\ntag_14:\n    /* \"#utility.yul\":7863:7867   */\n  0x00\n    /* \"#utility.yul\":7901:7903   */\n  0x20\n    /* \"#utility.yul\":7890:7899   */\n  dup3\n    /* \"#utility.yul\":7886:7904   */\n  add\n    /* \"#utility.yul\":7878:7904   */\n  swap1\n  pop\n    /* \"#utility.yul\":7914:7985   */\n  tag_186\n    /* \"#utility.yul\":7982:7983   */\n  0x00\n    /* \"#utility.yul\":7971:7980   */\n  dup4\n    /* \"#utility.yul\":7967:7984   */\n  add\n    /* \"#utility.yul\":7958:7964   */\n  dup5\n    /* \"#utility.yul\":7914:7985   */\n  tag_88\n  jump\t// in\ntag_186:\n    /* \"#utility.yul\":7770:7992   */\n  swap3\n  swap2\n  pop\n  pop\n  jump\t// out\n    /* \"#utility.yul\":7998:8167   */\ntag_89:\n    /* \"#utility.yul\":8082:8093   */\n  0x00\n    /* \"#utility.yul\":8116:8122   */\n  dup3\n    /* \"#utility.yul\":8111:8114   */\n  dup3\n    /* \"#utility.yul\":8104:8123   */\n  mstore\n    /* \"#utility.yul\":8156:8160   */\n  0x20\n    /* \"#utility.yul\":8151:8154   */\n  dup3\n    /* \"#utility.yul\":8147:8161   */\n  add\n    /* \"#utility.yul\":8132:8161   */\n  swap1\n  pop\n    /* \"#utility.yul\":7998:8167   */\n  swap3\n  swap2\n  pop\n  pop\n  jump\t// out\n    /* \"#utility.yul\":8173:8344   */\ntag_90:\n    /* \"#utility.yul\":8313:8336   */\n  0x496e76616c6964206f776e657220616464726573730000000000000000000000\n    /* \"#utility.yul\":8309:8310   */\n  0x00\n    /* \"#utility.yul\":8301:8307   */\n  dup3\n    /* \"#utility.yul\":8297:8311   */\n  add\n    /* \"#utility.yul\":8290:8337   */\n  mstore\n    /* \"#utility.yul\":8173:8344   */\n  pop\n  jump\t// out\n    /* \"#utility.yul\":8350:8716   */\ntag_91:\n    /* \"#utility.yul\":8492:8495   */\n  0x00\n    /* \"#utility.yul\":8513:8580   */\n  tag_190\n    /* \"#utility.yul\":8577:8579   */\n  0x15\n    /* \"#utility.yul\":8572:8575   */\n  dup4\n    /* \"#utility.yul\":8513:8580   */\n  tag_89\n  jump\t// in\ntag_190:\n    /* \"#utility.yul\":8506:8580   */\n  swap2\n  pop\n    /* \"#utility.yul\":8589:8682   */\n  tag_191\n    /* \"#utility.yul\":8678:8681   */\n  dup3\n    /* \"#utility.yul\":8589:8682   */\n  tag_90\n  jump\t// in\ntag_191:\n    /* \"#utility.yul\":8707:8709   */\n  0x20\n    /* \"#utility.yul\":8702:8705   */\n  dup3\n    /* \"#utility.yul\":8698:8710   */\n  add\n    /* \"#utility.yul\":8691:8710   */\n  swap1\n  pop\n    /* \"#utility.yul\":8350:8716   */\n  swap2\n  swap1\n  pop\n  jump\t// out\n    /* \"#utility.yul\":8722:9141   */\ntag_20:\n    /* \"#utility.yul\":8888:8892   */\n  0x00\n    /* \"#utility.yul\":8926:8928   */\n  0x20\n    /* \"#utility.yul\":8915:8924   */\n  dup3\n    /* \"#utility.yul\":8911:8929   */\n  add\n    /* \"#utility.yul\":8903:8929   */\n  swap1\n  pop\n    /* \"#utility.yul\":8975:8984   */\n  dup2\n    /* \"#utility.yul\":8969:8973   */\n  dup2\n    /* \"#utility.yul\":8965:8985   */\n  sub\n    /* \"#utility.yul\":8961:8962   */\n  0x00\n    /* \"#utility.yul\":8950:8959   */\n  dup4\n    /* \"#utility.yul\":8946:8963   */\n  add\n    /* \"#utility.yul\":8939:8986   */\n  mstore\n    /* \"#utility.yul\":9003:9134   */\n  tag_193\n    /* \"#utility.yul\":9129:9133   */\n  dup2\n    /* \"#utility.yul\":9003:9134   */\n  tag_91\n  jump\t// in\ntag_193:\n    /* \"#utility.yul\":8995:9134   */\n  swap1\n  pop\n    /* \"#utility.yul\":8722:9141   */\n  swap2\n  swap1\n  pop\n  jump\t// out\n    /* \"#utility.yul\":9147:9327   */\ntag_92:\n    /* \"#utility.yul\":9195:9272   */\n  0x4e487b7100000000000000000000000000000000000000000000000000000000\n    /* \"#utility.yul\":9192:9193   */\n  0x00\n    /* \"#utility.yul\":9185:9273   */\n  mstore\n    /* \"#utility.yul\":9292:9296   */\n  0x11\n    /* \"#utility.yul\":9289:9290   */\n  0x04\n    /* \"#utility.yul\":9282:9297   */\n  mstore\n    /* \"#utility.yul\":9316:9320   */\n  0x24\n    /* \"#utility.yul\":9313:9314   */\n  0x00\n    /* \"#utility.yul\":9306:9321   */\n  revert\n    /* \"#utility.yul\":9333:9743   */\ntag_22:\n    /* \"#utility.yul\":9373:9380   */\n  0x00\n    /* \"#utility.yul\":9396:9416   */\n  tag_196\n    /* \"#utility.yul\":9414:9415   */\n  dup3\n    /* \"#utility.yul\":9396:9416   */\n  tag_66\n  jump\t// in\ntag_196:\n    /* \"#utility.yul\":9391:9416   */\n  swap2\n  pop\n    /* \"#utility.yul\":9430:9450   */\n  tag_197\n    /* \"#utility.yul\":9448:9449   */\n  dup4\n    /* \"#utility.yul\":9430:9450   */\n  tag_66\n  jump\t// in\ntag_197:\n    /* \"#utility.yul\":9425:9450   */\n  swap3\n  pop\n    /* \"#utility.yul\":9485:9486   */\n  dup3\n    /* \"#utility.yul\":9482:9483   */\n  dup3\n    /* \"#utility.yul\":9478:9487   */\n  mul\n    /* \"#utility.yul\":9507:9537   */\n  tag_198\n    /* \"#utility.yul\":9525:9536   */\n  dup2\n    /* \"#utility.yul\":9507:9537   */\n  tag_66\n  jump\t// in\ntag_198:\n    /* \"#utility.yul\":9496:9537   */\n  swap2\n  pop\n    /* \"#utility.yul\":9686:9687   */\n  dup3\n    /* \"#utility.yul\":9677:9684   */\n  dup3\n    /* \"#utility.yul\":9673:9688   */\n  div\n    /* \"#utility.yul\":9670:9671   */\n  dup5\n    /* \"#utility.yul\":9667:9689   */\n  eq\n    /* \"#utility.yul\":9647:9648   */\n  dup4\n    /* \"#utility.yul\":9640:9649   */\n  iszero\n    /* \"#utility.yul\":9620:9703   */\n  or\n    /* \"#utility.yul\":9597:9736   */\n  tag_199\n  jumpi\n    /* \"#utility.yul\":9716:9734   */\n  tag_200\n  tag_92\n  jump\t// in\ntag_200:\n    /* \"#utility.yul\":9597:9736   */\ntag_199:\n    /* \"#utility.yul\":9381:9743   */\n  pop\n    /* \"#utility.yul\":9333:9743   */\n  swap3\n  swap2\n  pop\n  pop\n  jump\t// out\n    /* \"#utility.yul\":9749:9929   */\ntag_93:\n    /* \"#utility.yul\":9797:9874   */\n  0x4e487b7100000000000000000000000000000000000000000000000000000000\n    /* \"#utility.yul\":9794:9795   */\n  0x00\n    /* \"#utility.yul\":9787:9875   */\n  mstore\n    /* \"#utility.yul\":9894:9898   */\n  0x12\n    /* \"#utility.yul\":9891:9892   */\n  0x04\n    /* \"#utility.yul\":9884:9899   */\n  mstore\n    /* \"#utility.yul\":9918:9922   */\n  0x24\n    /* \"#utility.yul\":9915:9916   */\n  0x00\n    /* \"#utility.yul\":9908:9923   */\n  revert\n    /* \"#utility.yul\":9935:10120   */\ntag_24:\n    /* \"#utility.yul\":9975:9976   */\n  0x00\n    /* \"#utility.yul\":9992:10012   */\n  tag_203\n    /* \"#utility.yul\":10010:10011   */\n  dup3\n    /* \"#utility.yul\":9992:10012   */\n  tag_66\n  jump\t// in\ntag_203:\n    /* \"#utility.yul\":9987:10012   */\n  swap2\n  pop\n    /* \"#utility.yul\":10026:10046   */\n  tag_204\n    /* \"#utility.yul\":10044:10045   */\n  dup4\n    /* \"#utility.yul\":10026:10046   */\n  tag_66\n  jump\t// in\ntag_204:\n    /* \"#utility.yul\":10021:10046   */\n  swap3\n  pop\n    /* \"#utility.yul\":10065:10066   */\n  dup3\n    /* \"#utility.yul\":10055:10090   */\n  tag_205\n  jumpi\n    /* \"#utility.yul\":10070:10088   */\n  tag_206\n  tag_93\n  jump\t// in\ntag_206:\n    /* \"#utility.yul\":10055:10090   */\ntag_205:\n    /* \"#utility.yul\":10112:10113   */\n  dup3\n    /* \"#utility.yul\":10109:10110   */\n  dup3\n    /* \"#utility.yul\":10105:10114   */\n  div\n    /* \"#utility.yul\":10100:10114   */\n  swap1\n  pop\n    /* \"#utility.yul\":9935:10120   */\n  swap3\n  swap2\n  pop\n  pop\n  jump\t// out\n    /* \"#utility.yul\":10126:10317   */\ntag_40:\n    /* \"#utility.yul\":10166:10169   */\n  0x00\n    /* \"#utility.yul\":10185:10205   */\n  tag_208\n    /* \"#utility.yul\":10203:10204   */\n  dup3\n    /* \"#utility.yul\":10185:10205   */\n  tag_66\n  jump\t// in\ntag_208:\n    /* \"#utility.yul\":10180:10205   */\n  swap2\n  pop\n    /* \"#utility.yul\":10219:10239   */\n  tag_209\n    /* \"#utility.yul\":10237:10238   */\n  dup4\n    /* \"#utility.yul\":10219:10239   */\n  tag_66\n  jump\t// in\ntag_209:\n    /* \"#utility.yul\":10214:10239   */\n  swap3\n  pop\n    /* \"#utility.yul\":10262:10263   */\n  dup3\n    /* \"#utility.yul\":10259:10260   */\n  dup3\n    /* \"#utility.yul\":10255:10264   */\n  add\n    /* \"#utility.yul\":10248:10264   */\n  swap1\n  pop\n    /* \"#utility.yul\":10283:10286   */\n  dup1\n    /* \"#utility.yul\":10280:10281   */\n  dup3\n    /* \"#utility.yul\":10277:10287   */\n  gt\n    /* \"#utility.yul\":10274:10310   */\n  iszero\n  tag_210\n  jumpi\n    /* \"#utility.yul\":10290:10308   */\n  tag_211\n  tag_92\n  jump\t// in\ntag_211:\n    /* \"#utility.yul\":10274:10310   */\ntag_210:\n    /* \"#utility.yul\":10126:10317   */\n  swap3\n  swap2\n  pop\n  pop\n  jump\t// out\n    /* \"#utility.yul\":10323:10441   */\ntag_94:\n    /* \"#utility.yul\":10410:10434   */\n  tag_213\n    /* \"#utility.yul\":10428:10433   */\n  dup2\n    /* \"#utility.yul\":10410:10434   */\n  tag_66\n  jump\t// in\ntag_213:\n    /* \"#utility.yul\":10405:10408   */\n  dup3\n    /* \"#utility.yul\":10398:10435   */\n  mstore\n    /* \"#utility.yul\":10323:10441   */\n  pop\n  pop\n  jump\t// out\n    /* \"#utility.yul\":10447:10889   */\ntag_54:\n    /* \"#utility.yul\":10596:10600   */\n  0x00\n    /* \"#utility.yul\":10634:10636   */\n  0x60\n    /* \"#utility.yul\":10623:10632   */\n  dup3\n    /* \"#utility.yul\":10619:10637   */\n  add\n    /* \"#utility.yul\":10611:10637   */\n  swap1\n  pop\n    /* \"#utility.yul\":10647:10718   */\n  tag_215\n    /* \"#utility.yul\":10715:10716   */\n  0x00\n    /* \"#utility.yul\":10704:10713   */\n  dup4\n    /* \"#utility.yul\":10700:10717   */\n  add\n    /* \"#utility.yul\":10691:10697   */\n  dup7\n    /* \"#utility.yul\":10647:10718   */\n  tag_88\n  jump\t// in\ntag_215:\n    /* \"#utility.yul\":10728:10800   */\n  tag_216\n    /* \"#utility.yul\":10796:10798   */\n  0x20\n    /* \"#utility.yul\":10785:10794   */\n  dup4\n    /* \"#utility.yul\":10781:10799   */\n  add\n    /* \"#utility.yul\":10772:10778   */\n  dup6\n    /* \"#utility.yul\":10728:10800   */\n  tag_94\n  jump\t// in\ntag_216:\n    /* \"#utility.yul\":10810:10882   */\n  tag_217\n    /* \"#utility.yul\":10878:10880   */\n  0x40\n    /* \"#utility.yul\":10867:10876   */\n  dup4\n    /* \"#utility.yul\":10863:10881   */\n  add\n    /* \"#utility.yul\":10854:10860   */\n  dup5\n    /* \"#utility.yul\":10810:10882   */\n  tag_94\n  jump\t// in\ntag_217:\n    /* \"#utility.yul\":10447:10889   */\n  swap5\n  swap4\n  pop\n  pop\n  pop\n  pop\n  jump\t// out\n    /* \"#utility.yul\":10895:11117   */\ntag_58:\n    /* \"#utility.yul\":10988:10992   */\n  0x00\n    /* \"#utility.yul\":11026:11028   */\n  0x20\n    /* \"#utility.yul\":11015:11024   */\n  dup3\n    /* \"#utility.yul\":11011:11029   */\n  add\n    /* \"#utility.yul\":11003:11029   */\n  swap1\n  pop\n    /* \"#utility.yul\":11039:11110   */\n  tag_219\n    /* \"#utility.yul\":11107:11108   */\n  0x00\n    /* \"#utility.yul\":11096:11105   */\n  dup4\n    /* \"#utility.yul\":11092:11109   */\n  add\n    /* \"#utility.yul\":11083:11089   */\n  dup5\n    /* \"#utility.yul\":11039:11110   */\n  tag_94\n  jump\t// in\ntag_219:\n    /* \"#utility.yul\":10895:11117   */\n  swap3\n  swap2\n  pop\n  pop\n  jump\t// out\n    /* \"contracts/ICFT.sol\":167:3025  contract IndependentCapitalFundToken is ERC20, Ownable {... */\ntag_41:\n  dataSize(sub_0)\n  dup1\n  dataOffset(sub_0)\n  0x00\n  codecopy\n  0x00\n  return\nstop\n\nsub_0: assembly {\n        /* \"contracts/ICFT.sol\":167:3025  contract IndependentCapitalFundToken is ERC20, Ownable {... */\n      mstore(0x40, 0x80)\n      callvalue\n      dup1\n      iszero\n      tag_1\n      jumpi\n      0x00\n      dup1\n      revert\n    tag_1:\n      pop\n      jumpi(tag_2, lt(calldatasize, 0x04))\n      shr(0xe0, calldataload(0x00))\n      dup1\n      0x42966c68\n      gt\n      tag_24\n      jumpi\n      dup1\n      0x8da5cb5b\n      gt\n      tag_25\n      jumpi\n      dup1\n      0x8da5cb5b\n      eq\n      tag_18\n      jumpi\n      dup1\n      0x95d89b41\n      eq\n      tag_19\n      jumpi\n      dup1\n      0xa9059cbb\n      eq\n      tag_20\n      jumpi\n      dup1\n      0xcd3293de\n      eq\n      tag_21\n      jumpi\n      dup1\n      0xdd62ed3e\n      eq\n      tag_22\n      jumpi\n      dup1\n      0xf2fde38b\n      eq\n      tag_23\n      jumpi\n      jump(tag_2)\n    tag_25:\n      dup1\n      0x42966c68\n      eq\n      tag_13\n      jumpi\n      dup1\n      0x59d7bd71\n      eq\n      tag_14\n      jumpi\n      dup1\n      0x70a08231\n      eq\n      tag_15\n      jumpi\n      dup1\n      0x715018a6\n      eq\n      tag_16\n      jumpi\n      dup1\n      0x8ac27f5f\n      eq\n      tag_17\n      jumpi\n      jump(tag_2)\n    tag_24:\n      dup1\n      0x23b872dd\n      gt\n      tag_26\n      jumpi\n      dup1\n      0x23b872dd\n      eq\n      tag_8\n      jumpi\n      dup1\n      0x2d3e474a\n      eq\n      tag_9\n      jumpi\n      dup1\n      0x313ce567\n      eq\n      tag_10\n      jumpi\n      dup1\n      0x3829b0dc\n      eq\n      tag_11\n      jumpi\n      dup1\n      0x40c10f19\n      eq\n      tag_12\n      jumpi\n      jump(tag_2)\n    tag_26:\n      dup1\n      0x06fdde03\n      eq\n      tag_3\n      jumpi\n      dup1\n      0x095ea7b3\n      eq\n      tag_4\n      jumpi\n      dup1\n      0x18160ddd\n      eq\n      tag_5\n      jumpi\n      dup1\n      0x1f4e1504\n      eq\n      tag_6\n      jumpi\n      dup1\n      0x221322d5\n      eq\n      tag_7\n      jumpi\n    tag_2:\n      0x00\n      dup1\n      revert\n        /* \"@openzeppelin/contracts/token/ERC20/ERC20.sol\":1779:1868  function name() public view virtual returns (string memory) {... */\n    tag_3:\n      tag_27\n      tag_28\n      jump\t// in\n    tag_27:\n      mload(0x40)\n      tag_29\n      swap2\n      swap1\n      tag_30\n      jump\t// in\n    tag_29:\n      mload(0x40)\n      dup1\n      swap2\n      sub\n      swap1\n      return\n        /* \"@openzeppelin/contracts/token/ERC20/ERC20.sol\":3998:4184  function approve(address spender, uint256 value) public virtual returns (bool) {... */\n    tag_4:\n      tag_31\n      0x04\n      dup1\n      calldatasize\n      sub\n      dup2\n      add\n      swap1\n      tag_32\n      swap2\n      swap1\n      tag_33\n      jump\t// in\n    tag_32:\n      tag_34\n      jump\t// in\n    tag_31:\n      mload(0x40)\n      tag_35\n      swap2\n      swap1\n      tag_36\n      jump\t// in\n    tag_35:\n      mload(0x40)\n      dup1\n      swap2\n      sub\n      swap1\n      return\n        /* \"@openzeppelin/contracts/token/ERC20/ERC20.sol\":2849:2946  function totalSupply() public view virtual returns (uint256) {... */\n    tag_5:\n      tag_37\n      tag_38\n      jump\t// in\n    tag_37:\n      mload(0x40)\n      tag_39\n      swap2\n      swap1\n      tag_40\n      jump\t// in\n    tag_39:\n      mload(0x40)\n      dup1\n      swap2\n      sub\n      swap1\n      return\n        /* \"contracts/ICFT.sol\":2918:3023  function upgradeContract() public onlyOwner {... */\n    tag_6:\n      tag_41\n      tag_42\n      jump\t// in\n    tag_41:\n      stop\n        /* \"contracts/ICFT.sol\":469:516  mapping(address => uint256) public lockupExpiry */\n    tag_7:\n      tag_43\n      0x04\n      dup1\n      calldatasize\n      sub\n      dup2\n      add\n      swap1\n      tag_44\n      swap2\n      swap1\n      tag_45\n      jump\t// in\n    tag_44:\n      tag_46\n      jump\t// in\n    tag_43:\n      mload(0x40)\n      tag_47\n      swap2\n      swap1\n      tag_40\n      jump\t// in\n    tag_47:\n      mload(0x40)\n      dup1\n      swap2\n      sub\n      swap1\n      return\n        /* \"contracts/ICFT.sol\":2250:2482  function transferFrom(address from, address to, uint256 amount) public override returns (bool) {... */\n    tag_8:\n      tag_48\n      0x04\n      dup1\n      calldatasize\n      sub\n      dup2\n      add\n      swap1\n      tag_49\n      swap2\n      swap1\n      tag_50\n      jump\t// in\n    tag_49:\n      tag_51\n      jump\t// in\n    tag_48:\n      mload(0x40)\n      tag_52\n      swap2\n      swap1\n      tag_36\n      jump\t// in\n    tag_52:\n      mload(0x40)\n      dup1\n      swap2\n      sub\n      swap1\n      return\n        /* \"contracts/ICFT.sol\":358:382  address public marketing */\n    tag_9:\n      tag_53\n      tag_54\n      jump\t// in\n    tag_53:\n      mload(0x40)\n      tag_55\n      swap2\n      swap1\n      tag_56\n      jump\t// in\n    tag_55:\n      mload(0x40)\n      dup1\n      swap2\n      sub\n      swap1\n      return\n        /* \"@openzeppelin/contracts/token/ERC20/ERC20.sol\":2707:2789  function decimals() public view virtual returns (uint8) {... */\n    tag_10:\n      tag_57\n      tag_58\n      jump\t// in\n    tag_57:\n      mload(0x40)\n      tag_59\n      swap2\n      swap1\n      tag_60\n      jump\t// in\n    tag_59:\n      mload(0x40)\n      dup1\n      swap2\n      sub\n      swap1\n      return\n        /* \"contracts/ICFT.sol\":298:324  address public projectTeam */\n    tag_11:\n      tag_61\n      tag_62\n      jump\t// in\n    tag_61:\n      mload(0x40)\n      tag_63\n      swap2\n      swap1\n      tag_56\n      jump\t// in\n    tag_63:\n      mload(0x40)\n      dup1\n      swap2\n      sub\n      swap1\n      return\n        /* \"contracts/ICFT.sol\":2553:2646  function mint(address to, uint256 amount) public onlyOwner {... */\n    tag_12:\n      tag_64\n      0x04\n      dup1\n      calldatasize\n      sub\n      dup2\n      add\n      swap1\n      tag_65\n      swap2\n      swap1\n      tag_33\n      jump\t// in\n    tag_65:\n      tag_66\n      jump\t// in\n    tag_64:\n      stop\n        /* \"contracts/ICFT.sol\":2738:2827  function burn(uint256 amount) public onlyOwner {... */\n    tag_13:\n      tag_67\n      0x04\n      dup1\n      calldatasize\n      sub\n      dup2\n      add\n      swap1\n      tag_68\n      swap2\n      swap1\n      tag_69\n      jump\t// in\n    tag_68:\n      tag_70\n      jump\t// in\n    tag_67:\n      stop\n        /* \"contracts/ICFT.sol\":388:422  address public communityIncentives */\n    tag_14:\n      tag_71\n      tag_72\n      jump\t// in\n    tag_71:\n      mload(0x40)\n      tag_73\n      swap2\n      swap1\n      tag_56\n      jump\t// in\n    tag_73:\n      mload(0x40)\n      dup1\n      swap2\n      sub\n      swap1\n      return\n        /* \"@openzeppelin/contracts/token/ERC20/ERC20.sol\":3004:3120  function balanceOf(address account) public view virtual returns (uint256) {... */\n    tag_15:\n      tag_74\n      0x04\n      dup1\n      calldatasize\n      sub\n      dup2\n      add\n      swap1\n      tag_75\n      swap2\n      swap1\n      tag_45\n      jump\t// in\n    tag_75:\n      tag_76\n      jump\t// in\n    tag_74:\n      mload(0x40)\n      tag_77\n      swap2\n      swap1\n      tag_40\n      jump\t// in\n    tag_77:\n      mload(0x40)\n      dup1\n      swap2\n      sub\n      swap1\n      return\n        /* \"@openzeppelin/contracts/access/Ownable.sol\":2293:2394  function renounceOwnership() public virtual onlyOwner {... */\n    tag_16:\n      tag_78\n      tag_79\n      jump\t// in\n    tag_78:\n      stop\n        /* \"contracts/ICFT.sol\":268:292  address public investors */\n    tag_17:\n      tag_80\n      tag_81\n      jump\t// in\n    tag_80:\n      mload(0x40)\n      tag_82\n      swap2\n      swap1\n      tag_56\n      jump\t// in\n    tag_82:\n      mload(0x40)\n      dup1\n      swap2\n      sub\n      swap1\n      return\n        /* \"@openzeppelin/contracts/access/Ownable.sol\":1638:1723  function owner() public view virtual returns (address) {... */\n    tag_18:\n      tag_83\n      tag_84\n      jump\t// in\n    tag_83:\n      mload(0x40)\n      tag_85\n      swap2\n      swap1\n      tag_56\n      jump\t// in\n    tag_85:\n      mload(0x40)\n      dup1\n      swap2\n      sub\n      swap1\n      return\n        /* \"@openzeppelin/contracts/token/ERC20/ERC20.sol\":1981:2074  function symbol() public view virtual returns (string memory) {... */\n    tag_19:\n      tag_86\n      tag_87\n      jump\t// in\n    tag_86:\n      mload(0x40)\n      tag_88\n      swap2\n      swap1\n      tag_30\n      jump\t// in\n    tag_88:\n      mload(0x40)\n      dup1\n      swap2\n      sub\n      swap1\n      return\n        /* \"contracts/ICFT.sol\":1966:2176  function transfer(address to, uint256 amount) public override returns (bool) {... */\n    tag_20:\n      tag_89\n      0x04\n      dup1\n      calldatasize\n      sub\n      dup2\n      add\n      swap1\n      tag_90\n      swap2\n      swap1\n      tag_33\n      jump\t// in\n    tag_90:\n      tag_91\n      jump\t// in\n    tag_89:\n      mload(0x40)\n      tag_92\n      swap2\n      swap1\n      tag_36\n      jump\t// in\n    tag_92:\n      mload(0x40)\n      dup1\n      swap2\n      sub\n      swap1\n      return\n        /* \"contracts/ICFT.sol\":330:352  address public reserve */\n    tag_21:\n      tag_93\n      tag_94\n      jump\t// in\n    tag_93:\n      mload(0x40)\n      tag_95\n      swap2\n      swap1\n      tag_56\n      jump\t// in\n    tag_95:\n      mload(0x40)\n      dup1\n      swap2\n      sub\n      swap1\n      return\n        /* \"@openzeppelin/contracts/token/ERC20/ERC20.sol\":3551:3691  function allowance(address owner, address spender) public view virtual returns (uint256) {... */\n    tag_22:\n      tag_96\n      0x04\n      dup1\n      calldatasize\n      sub\n      dup2\n      add\n      swap1\n      tag_97\n      swap2\n      swap1\n      tag_98\n      jump\t// in\n    tag_97:\n      tag_99\n      jump\t// in\n    tag_96:\n      mload(0x40)\n      tag_100\n      swap2\n      swap1\n      tag_40\n      jump\t// in\n    tag_100:\n      mload(0x40)\n      dup1\n      swap2\n      sub\n      swap1\n      return\n        /* \"@openzeppelin/contracts/access/Ownable.sol\":2543:2758  function transferOwnership(address newOwner) public virtual onlyOwner {... */\n    tag_23:\n      tag_101\n      0x04\n      dup1\n      calldatasize\n      sub\n      dup2\n      add\n      swap1\n      tag_102\n      swap2\n      swap1\n      tag_45\n      jump\t// in\n    tag_102:\n      tag_103\n      jump\t// in\n    tag_101:\n      stop\n        /* \"@openzeppelin/contracts/token/ERC20/ERC20.sol\":1779:1868  function name() public view virtual returns (string memory) {... */\n    tag_28:\n        /* \"@openzeppelin/contracts/token/ERC20/ERC20.sol\":1824:1837  string memory */\n      0x60\n        /* \"@openzeppelin/contracts/token/ERC20/ERC20.sol\":1856:1861  _name */\n      0x03\n        /* \"@openzeppelin/contracts/token/ERC20/ERC20.sol\":1849:1861  return _name */\n      dup1\n      sload\n      tag_105\n      swap1\n      tag_106\n      jump\t// in\n    tag_105:\n      dup1\n      0x1f\n      add\n      0x20\n      dup1\n      swap2\n      div\n      mul\n      0x20\n      add\n      mload(0x40)\n      swap1\n      dup2\n      add\n      0x40\n      mstore\n      dup1\n      swap3\n      swap2\n      swap1\n      dup2\n      dup2\n      mstore\n      0x20\n      add\n      dup3\n      dup1\n      sload\n      tag_107\n      swap1\n      tag_106\n      jump\t// in\n    tag_107:\n      dup1\n      iszero\n      tag_108\n      jumpi\n      dup1\n      0x1f\n      lt\n      tag_109\n      jumpi\n      0x0100\n      dup1\n      dup4\n      sload\n      div\n      mul\n      dup4\n      mstore\n      swap2\n      0x20\n      add\n      swap2\n      jump(tag_108)\n    tag_109:\n      dup3\n      add\n      swap2\n      swap1\n      0x00\n      mstore\n      keccak256(0x00, 0x20)\n      swap1\n    tag_110:\n      dup2\n      sload\n      dup2\n      mstore\n      swap1\n      0x01\n      add\n      swap1\n      0x20\n      add\n      dup1\n      dup4\n      gt\n      tag_110\n      jumpi\n      dup3\n      swap1\n      sub\n      0x1f\n      and\n      dup3\n      add\n      swap2\n    tag_108:\n      pop\n      pop\n      pop\n      pop\n      pop\n      swap1\n      pop\n        /* \"@openzeppelin/contracts/token/ERC20/ERC20.sol\":1779:1868  function name() public view virtual returns (string memory) {... */\n      swap1\n      jump\t// out\n        /* \"@openzeppelin/contracts/token/ERC20/ERC20.sol\":3998:4184  function approve(address spender, uint256 value) public virtual returns (bool) {... */\n    tag_34:\n        /* \"@openzeppelin/contracts/token/ERC20/ERC20.sol\":4071:4075  bool */\n      0x00\n        /* \"@openzeppelin/contracts/token/ERC20/ERC20.sol\":4087:4100  address owner */\n      dup1\n        /* \"@openzeppelin/contracts/token/ERC20/ERC20.sol\":4103:4115  _msgSender() */\n      tag_112\n        /* \"@openzeppelin/contracts/token/ERC20/ERC20.sol\":4103:4113  _msgSender */\n      tag_113\n        /* \"@openzeppelin/contracts/token/ERC20/ERC20.sol\":4103:4115  _msgSender() */\n      jump\t// in\n    tag_112:\n        /* \"@openzeppelin/contracts/token/ERC20/ERC20.sol\":4087:4115  address owner = _msgSender() */\n      swap1\n      pop\n        /* \"@openzeppelin/contracts/token/ERC20/ERC20.sol\":4125:4156  _approve(owner, spender, value) */\n      tag_114\n        /* \"@openzeppelin/contracts/token/ERC20/ERC20.sol\":4134:4139  owner */\n      dup2\n        /* \"@openzeppelin/contracts/token/ERC20/ERC20.sol\":4141:4148  spender */\n      dup6\n        /* \"@openzeppelin/contracts/token/ERC20/ERC20.sol\":4150:4155  value */\n      dup6\n        /* \"@openzeppelin/contracts/token/ERC20/ERC20.sol\":4125:4133  _approve */\n      tag_115\n        /* \"@openzeppelin/contracts/token/ERC20/ERC20.sol\":4125:4156  _approve(owner, spender, value) */\n      jump\t// in\n    tag_114:\n        /* \"@openzeppelin/contracts/token/ERC20/ERC20.sol\":4173:4177  true */\n      0x01\n        /* \"@openzeppelin/contracts/token/ERC20/ERC20.sol\":4166:4177  return true */\n      swap2\n      pop\n      pop\n        /* \"@openzeppelin/contracts/token/ERC20/ERC20.sol\":3998:4184  function approve(address spender, uint256 value) public virtual returns (bool) {... */\n      swap3\n      swap2\n      pop\n      pop\n      jump\t// out\n        /* \"@openzeppelin/contracts/token/ERC20/ERC20.sol\":2849:2946  function totalSupply() public view virtual returns (uint256) {... */\n    tag_38:\n        /* \"@openzeppelin/contracts/token/ERC20/ERC20.sol\":2901:2908  uint256 */\n      0x00\n        /* \"@openzeppelin/contracts/token/ERC20/ERC20.sol\":2927:2939  _totalSupply */\n      sload(0x02)\n        /* \"@openzeppelin/contracts/token/ERC20/ERC20.sol\":2920:2939  return _totalSupply */\n      swap1\n      pop\n        /* \"@openzeppelin/contracts/token/ERC20/ERC20.sol\":2849:2946  function totalSupply() public view virtual returns (uint256) {... */\n      swap1\n      jump\t// out\n        /* \"contracts/ICFT.sol\":2918:3023  function upgradeContract() public onlyOwner {... */\n    tag_42:\n        /* \"@openzeppelin/contracts/access/Ownable.sol\":1531:1544  _checkOwner() */\n      tag_118\n        /* \"@openzeppelin/contracts/access/Ownable.sol\":1531:1542  _checkOwner */\n      tag_119\n        /* \"@openzeppelin/contracts/access/Ownable.sol\":1531:1544  _checkOwner() */\n      jump\t// in\n    tag_118:\n        /* \"contracts/ICFT.sol\":2918:3023  function upgradeContract() public onlyOwner {... */\n      jump\t// out\n        /* \"contracts/ICFT.sol\":469:516  mapping(address => uint256) public lockupExpiry */\n    tag_46:\n      mstore(0x20, 0x0b)\n      dup1\n      0x00\n      mstore\n      keccak256(0x00, 0x40)\n      0x00\n      swap2\n      pop\n      swap1\n      pop\n      sload\n      dup2\n      jump\t// out\n        /* \"contracts/ICFT.sol\":2250:2482  function transferFrom(address from, address to, uint256 amount) public override returns (bool) {... */\n    tag_51:\n        /* \"contracts/ICFT.sol\":2339:2343  bool */\n      0x00\n        /* \"contracts/ICFT.sol\":2382:2394  lockupExpiry */\n      0x0b\n        /* \"contracts/ICFT.sol\":2382:2400  lockupExpiry[from] */\n      0x00\n        /* \"contracts/ICFT.sol\":2395:2399  from */\n      dup6\n        /* \"contracts/ICFT.sol\":2382:2400  lockupExpiry[from] */\n      0xffffffffffffffffffffffffffffffffffffffff\n      and\n      0xffffffffffffffffffffffffffffffffffffffff\n      and\n      dup2\n      mstore\n      0x20\n      add\n      swap1\n      dup2\n      mstore\n      0x20\n      add\n      0x00\n      keccak256\n      sload\n        /* \"contracts/ICFT.sol\":2363:2378  block.timestamp */\n      timestamp\n        /* \"contracts/ICFT.sol\":2363:2400  block.timestamp >= lockupExpiry[from] */\n      lt\n      iszero\n        /* \"contracts/ICFT.sol\":2355:2422  require(block.timestamp >= lockupExpiry[from], \"Tokens are locked\") */\n      tag_122\n      jumpi\n      mload(0x40)\n      0x08c379a000000000000000000000000000000000000000000000000000000000\n      dup2\n      mstore\n      0x04\n      add\n      tag_123\n      swap1\n      tag_124\n      jump\t// in\n    tag_123:\n      mload(0x40)\n      dup1\n      swap2\n      sub\n      swap1\n      revert\n    tag_122:\n        /* \"contracts/ICFT.sol\":2439:2475  super.transferFrom(from, to, amount) */\n      tag_125\n        /* \"contracts/ICFT.sol\":2458:2462  from */\n      dup5\n        /* \"contracts/ICFT.sol\":2464:2466  to */\n      dup5\n        /* \"contracts/ICFT.sol\":2468:2474  amount */\n      dup5\n        /* \"contracts/ICFT.sol\":2439:2457  super.transferFrom */\n      tag_126\n        /* \"contracts/ICFT.sol\":2439:2475  super.transferFrom(from, to, amount) */\n      jump\t// in\n    tag_125:\n        /* \"contracts/ICFT.sol\":2432:2475  return super.transferFrom(from, to, amount) */\n      swap1\n      pop\n        /* \"contracts/ICFT.sol\":2250:2482  function transferFrom(address from, address to, uint256 amount) public override returns (bool) {... */\n      swap4\n      swap3\n      pop\n      pop\n      pop\n      jump\t// out\n        /* \"contracts/ICFT.sol\":358:382  address public marketing */\n    tag_54:\n      0x09\n      0x00\n      swap1\n      sload\n      swap1\n      0x0100\n      exp\n      swap1\n      div\n      0xffffffffffffffffffffffffffffffffffffffff\n      and\n      dup2\n      jump\t// out\n        /* \"@openzeppelin/contracts/token/ERC20/ERC20.sol\":2707:2789  function decimals() public view virtual returns (uint8) {... */\n    tag_58:\n        /* \"@openzeppelin/contracts/token/ERC20/ERC20.sol\":2756:2761  uint8 */\n      0x00\n        /* \"@openzeppelin/contracts/token/ERC20/ERC20.sol\":2780:2782  18 */\n      0x12\n        /* \"@openzeppelin/contracts/token/ERC20/ERC20.sol\":2773:2782  return 18 */\n      swap1\n      pop\n        /* \"@openzeppelin/contracts/token/ERC20/ERC20.sol\":2707:2789  function decimals() public view virtual returns (uint8) {... */\n      swap1\n      jump\t// out\n        /* \"contracts/ICFT.sol\":298:324  address public projectTeam */\n    tag_62:\n      0x07\n      0x00\n      swap1\n      sload\n      swap1\n      0x0100\n      exp\n      swap1\n      div\n      0xffffffffffffffffffffffffffffffffffffffff\n      and\n      dup2\n      jump\t// out\n        /* \"contracts/ICFT.sol\":2553:2646  function mint(address to, uint256 amount) public onlyOwner {... */\n    tag_66:\n        /* \"@openzeppelin/contracts/access/Ownable.sol\":1531:1544  _checkOwner() */\n      tag_129\n        /* \"@openzeppelin/contracts/access/Ownable.sol\":1531:1542  _checkOwner */\n      tag_119\n        /* \"@openzeppelin/contracts/access/Ownable.sol\":1531:1544  _checkOwner() */\n      jump\t// in\n    tag_129:\n        /* \"contracts/ICFT.sol\":2622:2639  _mint(to, amount) */\n      tag_131\n        /* \"contracts/ICFT.sol\":2628:2630  to */\n      dup3\n        /* \"contracts/ICFT.sol\":2632:2638  amount */\n      dup3\n        /* \"contracts/ICFT.sol\":2622:2627  _mint */\n      tag_132\n        /* \"contracts/ICFT.sol\":2622:2639  _mint(to, amount) */\n      jump\t// in\n    tag_131:\n        /* \"contracts/ICFT.sol\":2553:2646  function mint(address to, uint256 amount) public onlyOwner {... */\n      pop\n      pop\n      jump\t// out\n        /* \"contracts/ICFT.sol\":2738:2827  function burn(uint256 amount) public onlyOwner {... */\n    tag_70:\n        /* \"@openzeppelin/contracts/access/Ownable.sol\":1531:1544  _checkOwner() */\n      tag_134\n        /* \"@openzeppelin/contracts/access/Ownable.sol\":1531:1542  _checkOwner */\n      tag_119\n        /* \"@openzeppelin/contracts/access/Ownable.sol\":1531:1544  _checkOwner() */\n      jump\t// in\n    tag_134:\n        /* \"contracts/ICFT.sol\":2795:2820  _burn(msg.sender, amount) */\n      tag_136\n        /* \"contracts/ICFT.sol\":2801:2811  msg.sender */\n      caller\n        /* \"contracts/ICFT.sol\":2813:2819  amount */\n      dup3\n        /* \"contracts/ICFT.sol\":2795:2800  _burn */\n      tag_137\n        /* \"contracts/ICFT.sol\":2795:2820  _burn(msg.sender, amount) */\n      jump\t// in\n    tag_136:\n        /* \"contracts/ICFT.sol\":2738:2827  function burn(uint256 amount) public onlyOwner {... */\n      pop\n      jump\t// out\n        /* \"contracts/ICFT.sol\":388:422  address public communityIncentives */\n    tag_72:\n      0x0a\n      0x00\n      swap1\n      sload\n      swap1\n      0x0100\n      exp\n      swap1\n      div\n      0xffffffffffffffffffffffffffffffffffffffff\n      and\n      dup2\n      jump\t// out\n        /* \"@openzeppelin/contracts/token/ERC20/ERC20.sol\":3004:3120  function balanceOf(address account) public view virtual returns (uint256) {... */\n    tag_76:\n        /* \"@openzeppelin/contracts/token/ERC20/ERC20.sol\":3069:3076  uint256 */\n      0x00\n        /* \"@openzeppelin/contracts/token/ERC20/ERC20.sol\":3095:3104  _balances */\n      dup1\n        /* \"@openzeppelin/contracts/token/ERC20/ERC20.sol\":3095:3113  _balances[account] */\n      0x00\n        /* \"@openzeppelin/contracts/token/ERC20/ERC20.sol\":3105:3112  account */\n      dup4\n        /* \"@openzeppelin/contracts/token/ERC20/ERC20.sol\":3095:3113  _balances[account] */\n      0xffffffffffffffffffffffffffffffffffffffff\n      and\n      0xffffffffffffffffffffffffffffffffffffffff\n      and\n      dup2\n      mstore\n      0x20\n      add\n      swap1\n      dup2\n      mstore\n      0x20\n      add\n      0x00\n      keccak256\n      sload\n        /* \"@openzeppelin/contracts/token/ERC20/ERC20.sol\":3088:3113  return _balances[account] */\n      swap1\n      pop\n        /* \"@openzeppelin/contracts/token/ERC20/ERC20.sol\":3004:3120  function balanceOf(address account) public view virtual returns (uint256) {... */\n      swap2\n      swap1\n      pop\n      jump\t// out\n        /* \"@openzeppelin/contracts/access/Ownable.sol\":2293:2394  function renounceOwnership() public virtual onlyOwner {... */\n    tag_79:\n        /* \"@openzeppelin/contracts/access/Ownable.sol\":1531:1544  _checkOwner() */\n      tag_140\n        /* \"@openzeppelin/contracts/access/Ownable.sol\":1531:1542  _checkOwner */\n      tag_119\n        /* \"@openzeppelin/contracts/access/Ownable.sol\":1531:1544  _checkOwner() */\n      jump\t// in\n    tag_140:\n        /* \"@openzeppelin/contracts/access/Ownable.sol\":2357:2387  _transferOwnership(address(0)) */\n      tag_142\n        /* \"@openzeppelin/contracts/access/Ownable.sol\":2384:2385  0 */\n      0x00\n        /* \"@openzeppelin/contracts/access/Ownable.sol\":2357:2375  _transferOwnership */\n      tag_143\n        /* \"@openzeppelin/contracts/access/Ownable.sol\":2357:2387  _transferOwnership(address(0)) */\n      jump\t// in\n    tag_142:\n        /* \"@openzeppelin/contracts/access/Ownable.sol\":2293:2394  function renounceOwnership() public virtual onlyOwner {... */\n      jump\t// out\n        /* \"contracts/ICFT.sol\":268:292  address public investors */\n    tag_81:\n      0x06\n      0x00\n      swap1\n      sload\n      swap1\n      0x0100\n      exp\n      swap1\n      div\n      0xffffffffffffffffffffffffffffffffffffffff\n      and\n      dup2\n      jump\t// out\n        /* \"@openzeppelin/contracts/access/Ownable.sol\":1638:1723  function owner() public view virtual returns (address) {... */\n    tag_84:\n        /* \"@openzeppelin/contracts/access/Ownable.sol\":1684:1691  address */\n      0x00\n        /* \"@openzeppelin/contracts/access/Ownable.sol\":1710:1716  _owner */\n      0x05\n      0x00\n      swap1\n      sload\n      swap1\n      0x0100\n      exp\n      swap1\n      div\n      0xffffffffffffffffffffffffffffffffffffffff\n      and\n        /* \"@openzeppelin/contracts/access/Ownable.sol\":1703:1716  return _owner */\n      swap1\n      pop\n        /* \"@openzeppelin/contracts/access/Ownable.sol\":1638:1723  function owner() public view virtual returns (address) {... */\n      swap1\n      jump\t// out\n        /* \"@openzeppelin/contracts/token/ERC20/ERC20.sol\":1981:2074  function symbol() public view virtual returns (string memory) {... */\n    tag_87:\n        /* \"@openzeppelin/contracts/token/ERC20/ERC20.sol\":2028:2041  string memory */\n      0x60\n        /* \"@openzeppelin/contracts/token/ERC20/ERC20.sol\":2060:2067  _symbol */\n      0x04\n        /* \"@openzeppelin/contracts/token/ERC20/ERC20.sol\":2053:2067  return _symbol */\n      dup1\n      sload\n      tag_146\n      swap1\n      tag_106\n      jump\t// in\n    tag_146:\n      dup1\n      0x1f\n      add\n      0x20\n      dup1\n      swap2\n      div\n      mul\n      0x20\n      add\n      mload(0x40)\n      swap1\n      dup2\n      add\n      0x40\n      mstore\n      dup1\n      swap3\n      swap2\n      swap1\n      dup2\n      dup2\n      mstore\n      0x20\n      add\n      dup3\n      dup1\n      sload\n      tag_147\n      swap1\n      tag_106\n      jump\t// in\n    tag_147:\n      dup1\n      iszero\n      tag_148\n      jumpi\n      dup1\n      0x1f\n      lt\n      tag_149\n      jumpi\n      0x0100\n      dup1\n      dup4\n      sload\n      div\n      mul\n      dup4\n      mstore\n      swap2\n      0x20\n      add\n      swap2\n      jump(tag_148)\n    tag_149:\n      dup3\n      add\n      swap2\n      swap1\n      0x00\n      mstore\n      keccak256(0x00, 0x20)\n      swap1\n    tag_150:\n      dup2\n      sload\n      dup2\n      mstore\n      swap1\n      0x01\n      add\n      swap1\n      0x20\n      add\n      dup1\n      dup4\n      gt\n      tag_150\n      jumpi\n      dup3\n      swap1\n      sub\n      0x1f\n      and\n      dup3\n      add\n      swap2\n    tag_148:\n      pop\n      pop\n      pop\n      pop\n      pop\n      swap1\n      pop\n        /* \"@openzeppelin/contracts/token/ERC20/ERC20.sol\":1981:2074  function symbol() public view virtual returns (string memory) {... */\n      swap1\n      jump\t// out\n        /* \"contracts/ICFT.sol\":1966:2176  function transfer(address to, uint256 amount) public override returns (bool) {... */\n    tag_91:\n        /* \"contracts/ICFT.sol\":2037:2041  bool */\n      0x00\n        /* \"contracts/ICFT.sol\":2080:2092  lockupExpiry */\n      0x0b\n        /* \"contracts/ICFT.sol\":2080:2104  lockupExpiry[msg.sender] */\n      0x00\n        /* \"contracts/ICFT.sol\":2093:2103  msg.sender */\n      caller\n        /* \"contracts/ICFT.sol\":2080:2104  lockupExpiry[msg.sender] */\n      0xffffffffffffffffffffffffffffffffffffffff\n      and\n      0xffffffffffffffffffffffffffffffffffffffff\n      and\n      dup2\n      mstore\n      0x20\n      add\n      swap1\n      dup2\n      mstore\n      0x20\n      add\n      0x00\n      keccak256\n      sload\n        /* \"contracts/ICFT.sol\":2061:2076  block.timestamp */\n      timestamp\n        /* \"contracts/ICFT.sol\":2061:2104  block.timestamp >= lockupExpiry[msg.sender] */\n      lt\n      iszero\n        /* \"contracts/ICFT.sol\":2053:2126  require(block.timestamp >= lockupExpiry[msg.sender], \"Tokens are locked\") */\n      tag_152\n      jumpi\n      mload(0x40)\n      0x08c379a000000000000000000000000000000000000000000000000000000000\n      dup2\n      mstore\n      0x04\n      add\n      tag_153\n      swap1\n      tag_124\n      jump\t// in\n    tag_153:\n      mload(0x40)\n      dup1\n      swap2\n      sub\n      swap1\n      revert\n    tag_152:\n        /* \"contracts/ICFT.sol\":2143:2169  super.transfer(to, amount) */\n      tag_154\n        /* \"contracts/ICFT.sol\":2158:2160  to */\n      dup4\n        /* \"contracts/ICFT.sol\":2162:2168  amount */\n      dup4\n        /* \"contracts/ICFT.sol\":2143:2157  super.transfer */\n      tag_155\n        /* \"contracts/ICFT.sol\":2143:2169  super.transfer(to, amount) */\n      jump\t// in\n    tag_154:\n        /* \"contracts/ICFT.sol\":2136:2169  return super.transfer(to, amount) */\n      swap1\n      pop\n        /* \"contracts/ICFT.sol\":1966:2176  function transfer(address to, uint256 amount) public override returns (bool) {... */\n      swap3\n      swap2\n      pop\n      pop\n      jump\t// out\n        /* \"contracts/ICFT.sol\":330:352  address public reserve */\n    tag_94:\n      0x08\n      0x00\n      swap1\n      sload\n      swap1\n      0x0100\n      exp\n      swap1\n      div\n      0xffffffffffffffffffffffffffffffffffffffff\n      and\n      dup2\n      jump\t// out\n        /* \"@openzeppelin/contracts/token/ERC20/ERC20.sol\":3551:3691  function allowance(address owner, address spender) public view virtual returns (uint256) {... */\n    tag_99:\n        /* \"@openzeppelin/contracts/token/ERC20/ERC20.sol\":3631:3638  uint256 */\n      0x00\n        /* \"@openzeppelin/contracts/token/ERC20/ERC20.sol\":3657:3668  _allowances */\n      0x01\n        /* \"@openzeppelin/contracts/token/ERC20/ERC20.sol\":3657:3675  _allowances[owner] */\n      0x00\n        /* \"@openzeppelin/contracts/token/ERC20/ERC20.sol\":3669:3674  owner */\n      dup5\n        /* \"@openzeppelin/contracts/token/ERC20/ERC20.sol\":3657:3675  _allowances[owner] */\n      0xffffffffffffffffffffffffffffffffffffffff\n      and\n      0xffffffffffffffffffffffffffffffffffffffff\n      and\n      dup2\n      mstore\n      0x20\n      add\n      swap1\n      dup2\n      mstore\n      0x20\n      add\n      0x00\n      keccak256\n        /* \"@openzeppelin/contracts/token/ERC20/ERC20.sol\":3657:3684  _allowances[owner][spender] */\n      0x00\n        /* \"@openzeppelin/contracts/token/ERC20/ERC20.sol\":3676:3683  spender */\n      dup4\n        /* \"@openzeppelin/contracts/token/ERC20/ERC20.sol\":3657:3684  _allowances[owner][spender] */\n      0xffffffffffffffffffffffffffffffffffffffff\n      and\n      0xffffffffffffffffffffffffffffffffffffffff\n      and\n      dup2\n      mstore\n      0x20\n      add\n      swap1\n      dup2\n      mstore\n      0x20\n      add\n      0x00\n      keccak256\n      sload\n        /* \"@openzeppelin/contracts/token/ERC20/ERC20.sol\":3650:3684  return _allowances[owner][spender] */\n      swap1\n      pop\n        /* \"@openzeppelin/contracts/token/ERC20/ERC20.sol\":3551:3691  function allowance(address owner, address spender) public view virtual returns (uint256) {... */\n      swap3\n      swap2\n      pop\n      pop\n      jump\t// out\n        /* \"@openzeppelin/contracts/access/Ownable.sol\":2543:2758  function transferOwnership(address newOwner) public virtual onlyOwner {... */\n    tag_103:\n        /* \"@openzeppelin/contracts/access/Ownable.sol\":1531:1544  _checkOwner() */\n      tag_158\n        /* \"@openzeppelin/contracts/access/Ownable.sol\":1531:1542  _checkOwner */\n      tag_119\n        /* \"@openzeppelin/contracts/access/Ownable.sol\":1531:1544  _checkOwner() */\n      jump\t// in\n    tag_158:\n        /* \"@openzeppelin/contracts/access/Ownable.sol\":2647:2648  0 */\n      0x00\n        /* \"@openzeppelin/contracts/access/Ownable.sol\":2627:2649  newOwner == address(0) */\n      0xffffffffffffffffffffffffffffffffffffffff\n      and\n        /* \"@openzeppelin/contracts/access/Ownable.sol\":2627:2635  newOwner */\n      dup2\n        /* \"@openzeppelin/contracts/access/Ownable.sol\":2627:2649  newOwner == address(0) */\n      0xffffffffffffffffffffffffffffffffffffffff\n      and\n      sub\n        /* \"@openzeppelin/contracts/access/Ownable.sol\":2623:2714  if (newOwner == address(0)) {... */\n      tag_160\n      jumpi\n        /* \"@openzeppelin/contracts/access/Ownable.sol\":2700:2701  0 */\n      0x00\n        /* \"@openzeppelin/contracts/access/Ownable.sol\":2672:2703  OwnableInvalidOwner(address(0)) */\n      mload(0x40)\n      0x1e4fbdf700000000000000000000000000000000000000000000000000000000\n      dup2\n      mstore\n      0x04\n      add\n      tag_161\n      swap2\n      swap1\n      tag_56\n      jump\t// in\n    tag_161:\n      mload(0x40)\n      dup1\n      swap2\n      sub\n      swap1\n      revert\n        /* \"@openzeppelin/contracts/access/Ownable.sol\":2623:2714  if (newOwner == address(0)) {... */\n    tag_160:\n        /* \"@openzeppelin/contracts/access/Ownable.sol\":2723:2751  _transferOwnership(newOwner) */\n      tag_162\n        /* \"@openzeppelin/contracts/access/Ownable.sol\":2742:2750  newOwner */\n      dup2\n        /* \"@openzeppelin/contracts/access/Ownable.sol\":2723:2741  _transferOwnership */\n      tag_143\n        /* \"@openzeppelin/contracts/access/Ownable.sol\":2723:2751  _transferOwnership(newOwner) */\n      jump\t// in\n    tag_162:\n        /* \"@openzeppelin/contracts/access/Ownable.sol\":2543:2758  function transferOwnership(address newOwner) public virtual onlyOwner {... */\n      pop\n      jump\t// out\n        /* \"@openzeppelin/contracts/utils/Context.sol\":656:752  function _msgSender() internal view virtual returns (address) {... */\n    tag_113:\n        /* \"@openzeppelin/contracts/utils/Context.sol\":709:716  address */\n      0x00\n        /* \"@openzeppelin/contracts/utils/Context.sol\":735:745  msg.sender */\n      caller\n        /* \"@openzeppelin/contracts/utils/Context.sol\":728:745  return msg.sender */\n      swap1\n      pop\n        /* \"@openzeppelin/contracts/utils/Context.sol\":656:752  function _msgSender() internal view virtual returns (address) {... */\n      swap1\n      jump\t// out\n        /* \"@openzeppelin/contracts/token/ERC20/ERC20.sol\":8726:8854  function _approve(address owner, address spender, uint256 value) internal {... */\n    tag_115:\n        /* \"@openzeppelin/contracts/token/ERC20/ERC20.sol\":8810:8847  _approve(owner, spender, value, true) */\n      tag_165\n        /* \"@openzeppelin/contracts/token/ERC20/ERC20.sol\":8819:8824  owner */\n      dup4\n        /* \"@openzeppelin/contracts/token/ERC20/ERC20.sol\":8826:8833  spender */\n      dup4\n        /* \"@openzeppelin/contracts/token/ERC20/ERC20.sol\":8835:8840  value */\n      dup4\n        /* \"@openzeppelin/contracts/token/ERC20/ERC20.sol\":8842:8846  true */\n      0x01\n        /* \"@openzeppelin/contracts/token/ERC20/ERC20.sol\":8810:8818  _approve */\n      tag_166\n        /* \"@openzeppelin/contracts/token/ERC20/ERC20.sol\":8810:8847  _approve(owner, spender, value, true) */\n      jump\t// in\n    tag_165:\n        /* \"@openzeppelin/contracts/token/ERC20/ERC20.sol\":8726:8854  function _approve(address owner, address spender, uint256 value) internal {... */\n      pop\n      pop\n      pop\n      jump\t// out\n        /* \"@openzeppelin/contracts/access/Ownable.sol\":1796:1958  function _checkOwner() internal view virtual {... */\n    tag_119:\n        /* \"@openzeppelin/contracts/access/Ownable.sol\":1866:1878  _msgSender() */\n      tag_168\n        /* \"@openzeppelin/contracts/access/Ownable.sol\":1866:1876  _msgSender */\n      tag_113\n        /* \"@openzeppelin/contracts/access/Ownable.sol\":1866:1878  _msgSender() */\n      jump\t// in\n    tag_168:\n        /* \"@openzeppelin/contracts/access/Ownable.sol\":1855:1878  owner() != _msgSender() */\n      0xffffffffffffffffffffffffffffffffffffffff\n      and\n        /* \"@openzeppelin/contracts/access/Ownable.sol\":1855:1862  owner() */\n      tag_169\n        /* \"@openzeppelin/contracts/access/Ownable.sol\":1855:1860  owner */\n      tag_84\n        /* \"@openzeppelin/contracts/access/Ownable.sol\":1855:1862  owner() */\n      jump\t// in\n    tag_169:\n        /* \"@openzeppelin/contracts/access/Ownable.sol\":1855:1878  owner() != _msgSender() */\n      0xffffffffffffffffffffffffffffffffffffffff\n      and\n      eq\n        /* \"@openzeppelin/contracts/access/Ownable.sol\":1851:1952  if (owner() != _msgSender()) {... */\n      tag_170\n      jumpi\n        /* \"@openzeppelin/contracts/access/Ownable.sol\":1928:1940  _msgSender() */\n      tag_171\n        /* \"@openzeppelin/contracts/access/Ownable.sol\":1928:1938  _msgSender */\n      tag_113\n        /* \"@openzeppelin/contracts/access/Ownable.sol\":1928:1940  _msgSender() */\n      jump\t// in\n    tag_171:\n        /* \"@openzeppelin/contracts/access/Ownable.sol\":1901:1941  OwnableUnauthorizedAccount(_msgSender()) */\n      mload(0x40)\n      0x118cdaa700000000000000000000000000000000000000000000000000000000\n      dup2\n      mstore\n      0x04\n      add\n      tag_172\n      swap2\n      swap1\n      tag_56\n      jump\t// in\n    tag_172:\n      mload(0x40)\n      dup1\n      swap2\n      sub\n      swap1\n      revert\n        /* \"@openzeppelin/contracts/access/Ownable.sol\":1851:1952  if (owner() != _msgSender()) {... */\n    tag_170:\n        /* \"@openzeppelin/contracts/access/Ownable.sol\":1796:1958  function _checkOwner() internal view virtual {... */\n      jump\t// out\n        /* \"@openzeppelin/contracts/token/ERC20/ERC20.sol\":4776:5020  function transferFrom(address from, address to, uint256 value) public virtual returns (bool) {... */\n    tag_126:\n        /* \"@openzeppelin/contracts/token/ERC20/ERC20.sol\":4863:4867  bool */\n      0x00\n        /* \"@openzeppelin/contracts/token/ERC20/ERC20.sol\":4879:4894  address spender */\n      dup1\n        /* \"@openzeppelin/contracts/token/ERC20/ERC20.sol\":4897:4909  _msgSender() */\n      tag_174\n        /* \"@openzeppelin/contracts/token/ERC20/ERC20.sol\":4897:4907  _msgSender */\n      tag_113\n        /* \"@openzeppelin/contracts/token/ERC20/ERC20.sol\":4897:4909  _msgSender() */\n      jump\t// in\n    tag_174:\n        /* \"@openzeppelin/contracts/token/ERC20/ERC20.sol\":4879:4909  address spender = _msgSender() */\n      swap1\n      pop\n        /* \"@openzeppelin/contracts/token/ERC20/ERC20.sol\":4919:4956  _spendAllowance(from, spender, value) */\n      tag_175\n        /* \"@openzeppelin/contracts/token/ERC20/ERC20.sol\":4935:4939  from */\n      dup6\n        /* \"@openzeppelin/contracts/token/ERC20/ERC20.sol\":4941:4948  spender */\n      dup3\n        /* \"@openzeppelin/contracts/token/ERC20/ERC20.sol\":4950:4955  value */\n      dup6\n        /* \"@openzeppelin/contracts/token/ERC20/ERC20.sol\":4919:4934  _spendAllowance */\n      tag_176\n        /* \"@openzeppelin/contracts/token/ERC20/ERC20.sol\":4919:4956  _spendAllowance(from, spender, value) */\n      jump\t// in\n    tag_175:\n        /* \"@openzeppelin/contracts/token/ERC20/ERC20.sol\":4966:4992  _transfer(from, to, value) */\n      tag_177\n        /* \"@openzeppelin/contracts/token/ERC20/ERC20.sol\":4976:4980  from */\n      dup6\n        /* \"@openzeppelin/contracts/token/ERC20/ERC20.sol\":4982:4984  to */\n      dup6\n        /* \"@openzeppelin/contracts/token/ERC20/ERC20.sol\":4986:4991  value */\n      dup6\n        /* \"@openzeppelin/contracts/token/ERC20/ERC20.sol\":4966:4975  _transfer */\n      tag_178\n        /* \"@openzeppelin/contracts/token/ERC20/ERC20.sol\":4966:4992  _transfer(from, to, value) */\n      jump\t// in\n    tag_177:\n        /* \"@openzeppelin/contracts/token/ERC20/ERC20.sol\":5009:5013  true */\n      0x01\n        /* \"@openzeppelin/contracts/token/ERC20/ERC20.sol\":5002:5013  return true */\n      swap2\n      pop\n      pop\n        /* \"@openzeppelin/contracts/token/ERC20/ERC20.sol\":4776:5020  function transferFrom(address from, address to, uint256 value) public virtual returns (bool) {... */\n      swap4\n      swap3\n      pop\n      pop\n      pop\n      jump\t// out\n        /* \"@openzeppelin/contracts/token/ERC20/ERC20.sol\":7458:7666  function _mint(address account, uint256 value) internal {... */\n    tag_132:\n        /* \"@openzeppelin/contracts/token/ERC20/ERC20.sol\":7547:7548  0 */\n      0x00\n        /* \"@openzeppelin/contracts/token/ERC20/ERC20.sol\":7528:7549  account == address(0) */\n      0xffffffffffffffffffffffffffffffffffffffff\n      and\n        /* \"@openzeppelin/contracts/token/ERC20/ERC20.sol\":7528:7535  account */\n      dup3\n        /* \"@openzeppelin/contracts/token/ERC20/ERC20.sol\":7528:7549  account == address(0) */\n      0xffffffffffffffffffffffffffffffffffffffff\n      and\n      sub\n        /* \"@openzeppelin/contracts/token/ERC20/ERC20.sol\":7524:7615  if (account == address(0)) {... */\n      tag_180\n      jumpi\n        /* \"@openzeppelin/contracts/token/ERC20/ERC20.sol\":7601:7602  0 */\n      0x00\n        /* \"@openzeppelin/contracts/token/ERC20/ERC20.sol\":7572:7604  ERC20InvalidReceiver(address(0)) */\n      mload(0x40)\n      0xec442f0500000000000000000000000000000000000000000000000000000000\n      dup2\n      mstore\n      0x04\n      add\n      tag_181\n      swap2\n      swap1\n      tag_56\n      jump\t// in\n    tag_181:\n      mload(0x40)\n      dup1\n      swap2\n      sub\n      swap1\n      revert\n        /* \"@openzeppelin/contracts/token/ERC20/ERC20.sol\":7524:7615  if (account == address(0)) {... */\n    tag_180:\n        /* \"@openzeppelin/contracts/token/ERC20/ERC20.sol\":7624:7659  _update(address(0), account, value) */\n      tag_182\n        /* \"@openzeppelin/contracts/token/ERC20/ERC20.sol\":7640:7641  0 */\n      0x00\n        /* \"@openzeppelin/contracts/token/ERC20/ERC20.sol\":7644:7651  account */\n      dup4\n        /* \"@openzeppelin/contracts/token/ERC20/ERC20.sol\":7653:7658  value */\n      dup4\n        /* \"@openzeppelin/contracts/token/ERC20/ERC20.sol\":7624:7631  _update */\n      tag_183\n        /* \"@openzeppelin/contracts/token/ERC20/ERC20.sol\":7624:7659  _update(address(0), account, value) */\n      jump\t// in\n    tag_182:\n        /* \"@openzeppelin/contracts/token/ERC20/ERC20.sol\":7458:7666  function _mint(address account, uint256 value) internal {... */\n      pop\n      pop\n      jump\t// out\n        /* \"@openzeppelin/contracts/token/ERC20/ERC20.sol\":7984:8190  function _burn(address account, uint256 value) internal {... */\n    tag_137:\n        /* \"@openzeppelin/contracts/token/ERC20/ERC20.sol\":8073:8074  0 */\n      0x00\n        /* \"@openzeppelin/contracts/token/ERC20/ERC20.sol\":8054:8075  account == address(0) */\n      0xffffffffffffffffffffffffffffffffffffffff\n      and\n        /* \"@openzeppelin/contracts/token/ERC20/ERC20.sol\":8054:8061  account */\n      dup3\n        /* \"@openzeppelin/contracts/token/ERC20/ERC20.sol\":8054:8075  account == address(0) */\n      0xffffffffffffffffffffffffffffffffffffffff\n      and\n      sub\n        /* \"@openzeppelin/contracts/token/ERC20/ERC20.sol\":8050:8139  if (account == address(0)) {... */\n      tag_185\n      jumpi\n        /* \"@openzeppelin/contracts/token/ERC20/ERC20.sol\":8125:8126  0 */\n      0x00\n        /* \"@openzeppelin/contracts/token/ERC20/ERC20.sol\":8098:8128  ERC20InvalidSender(address(0)) */\n      mload(0x40)\n      0x96c6fd1e00000000000000000000000000000000000000000000000000000000\n      dup2\n      mstore\n      0x04\n      add\n      tag_186\n      swap2\n      swap1\n      tag_56\n      jump\t// in\n    tag_186:\n      mload(0x40)\n      dup1\n      swap2\n      sub\n      swap1\n      revert\n        /* \"@openzeppelin/contracts/token/ERC20/ERC20.sol\":8050:8139  if (account == address(0)) {... */\n    tag_185:\n        /* \"@openzeppelin/contracts/token/ERC20/ERC20.sol\":8148:8183  _update(account, address(0), value) */\n      tag_187\n        /* \"@openzeppelin/contracts/token/ERC20/ERC20.sol\":8156:8163  account */\n      dup3\n        /* \"@openzeppelin/contracts/token/ERC20/ERC20.sol\":8173:8174  0 */\n      0x00\n        /* \"@openzeppelin/contracts/token/ERC20/ERC20.sol\":8177:8182  value */\n      dup4\n        /* \"@openzeppelin/contracts/token/ERC20/ERC20.sol\":8148:8155  _update */\n      tag_183\n        /* \"@openzeppelin/contracts/token/ERC20/ERC20.sol\":8148:8183  _update(account, address(0), value) */\n      jump\t// in\n    tag_187:\n        /* \"@openzeppelin/contracts/token/ERC20/ERC20.sol\":7984:8190  function _burn(address account, uint256 value) internal {... */\n      pop\n      pop\n      jump\t// out\n        /* \"@openzeppelin/contracts/access/Ownable.sol\":2912:3099  function _transferOwnership(address newOwner) internal virtual {... */\n    tag_143:\n        /* \"@openzeppelin/contracts/access/Ownable.sol\":2985:3001  address oldOwner */\n      0x00\n        /* \"@openzeppelin/contracts/access/Ownable.sol\":3004:3010  _owner */\n      0x05\n      0x00\n      swap1\n      sload\n      swap1\n      0x0100\n      exp\n      swap1\n      div\n      0xffffffffffffffffffffffffffffffffffffffff\n      and\n        /* \"@openzeppelin/contracts/access/Ownable.sol\":2985:3010  address oldOwner = _owner */\n      swap1\n      pop\n        /* \"@openzeppelin/contracts/access/Ownable.sol\":3029:3037  newOwner */\n      dup2\n        /* \"@openzeppelin/contracts/access/Ownable.sol\":3020:3026  _owner */\n      0x05\n      0x00\n        /* \"@openzeppelin/contracts/access/Ownable.sol\":3020:3037  _owner = newOwner */\n      0x0100\n      exp\n      dup2\n      sload\n      dup2\n      0xffffffffffffffffffffffffffffffffffffffff\n      mul\n      not\n      and\n      swap1\n      dup4\n      0xffffffffffffffffffffffffffffffffffffffff\n      and\n      mul\n      or\n      swap1\n      sstore\n      pop\n        /* \"@openzeppelin/contracts/access/Ownable.sol\":3083:3091  newOwner */\n      dup2\n        /* \"@openzeppelin/contracts/access/Ownable.sol\":3052:3092  OwnershipTransferred(oldOwner, newOwner) */\n      0xffffffffffffffffffffffffffffffffffffffff\n      and\n        /* \"@openzeppelin/contracts/access/Ownable.sol\":3073:3081  oldOwner */\n      dup2\n        /* \"@openzeppelin/contracts/access/Ownable.sol\":3052:3092  OwnershipTransferred(oldOwner, newOwner) */\n      0xffffffffffffffffffffffffffffffffffffffff\n      and\n      0x8be0079c531659141344cd1fd0a4f28419497f9722a3daafe3b4186f6b6457e0\n      mload(0x40)\n      mload(0x40)\n      dup1\n      swap2\n      sub\n      swap1\n      log3\n        /* \"@openzeppelin/contracts/access/Ownable.sol\":2975:3099  {... */\n      pop\n        /* \"@openzeppelin/contracts/access/Ownable.sol\":2912:3099  function _transferOwnership(address newOwner) internal virtual {... */\n      pop\n      jump\t// out\n        /* \"@openzeppelin/contracts/token/ERC20/ERC20.sol\":3315:3493  function transfer(address to, uint256 value) public virtual returns (bool) {... */\n    tag_155:\n        /* \"@openzeppelin/contracts/token/ERC20/ERC20.sol\":3384:3388  bool */\n      0x00\n        /* \"@openzeppelin/contracts/token/ERC20/ERC20.sol\":3400:3413  address owner */\n      dup1\n        /* \"@openzeppelin/contracts/token/ERC20/ERC20.sol\":3416:3428  _msgSender() */\n      tag_190\n        /* \"@openzeppelin/contracts/token/ERC20/ERC20.sol\":3416:3426  _msgSender */\n      tag_113\n        /* \"@openzeppelin/contracts/token/ERC20/ERC20.sol\":3416:3428  _msgSender() */\n      jump\t// in\n    tag_190:\n        /* \"@openzeppelin/contracts/token/ERC20/ERC20.sol\":3400:3428  address owner = _msgSender() */\n      swap1\n      pop\n        /* \"@openzeppelin/contracts/token/ERC20/ERC20.sol\":3438:3465  _transfer(owner, to, value) */\n      tag_191\n        /* \"@openzeppelin/contracts/token/ERC20/ERC20.sol\":3448:3453  owner */\n      dup2\n        /* \"@openzeppelin/contracts/token/ERC20/ERC20.sol\":3455:3457  to */\n      dup6\n        /* \"@openzeppelin/contracts/token/ERC20/ERC20.sol\":3459:3464  value */\n      dup6\n        /* \"@openzeppelin/contracts/token/ERC20/ERC20.sol\":3438:3447  _transfer */\n      tag_178\n        /* \"@openzeppelin/contracts/token/ERC20/ERC20.sol\":3438:3465  _transfer(owner, to, value) */\n      jump\t// in\n    tag_191:\n        /* \"@openzeppelin/contracts/token/ERC20/ERC20.sol\":3482:3486  true */\n      0x01\n        /* \"@openzeppelin/contracts/token/ERC20/ERC20.sol\":3475:3486  return true */\n      swap2\n      pop\n      pop\n        /* \"@openzeppelin/contracts/token/ERC20/ERC20.sol\":3315:3493  function transfer(address to, uint256 value) public virtual returns (bool) {... */\n      swap3\n      swap2\n      pop\n      pop\n      jump\t// out\n        /* \"@openzeppelin/contracts/token/ERC20/ERC20.sol\":9701:10133  function _approve(address owner, address spender, uint256 value, bool emitEvent) internal virtual {... */\n    tag_166:\n        /* \"@openzeppelin/contracts/token/ERC20/ERC20.sol\":9830:9831  0 */\n      0x00\n        /* \"@openzeppelin/contracts/token/ERC20/ERC20.sol\":9813:9832  owner == address(0) */\n      0xffffffffffffffffffffffffffffffffffffffff\n      and\n        /* \"@openzeppelin/contracts/token/ERC20/ERC20.sol\":9813:9818  owner */\n      dup5\n        /* \"@openzeppelin/contracts/token/ERC20/ERC20.sol\":9813:9832  owner == address(0) */\n      0xffffffffffffffffffffffffffffffffffffffff\n      and\n      sub\n        /* \"@openzeppelin/contracts/token/ERC20/ERC20.sol\":9809:9898  if (owner == address(0)) {... */\n      tag_193\n      jumpi\n        /* \"@openzeppelin/contracts/token/ERC20/ERC20.sol\":9884:9885  0 */\n      0x00\n        /* \"@openzeppelin/contracts/token/ERC20/ERC20.sol\":9855:9887  ERC20InvalidApprover(address(0)) */\n      mload(0x40)\n      0xe602df0500000000000000000000000000000000000000000000000000000000\n      dup2\n      mstore\n      0x04\n      add\n      tag_194\n      swap2\n      swap1\n      tag_56\n      jump\t// in\n    tag_194:\n      mload(0x40)\n      dup1\n      swap2\n      sub\n      swap1\n      revert\n        /* \"@openzeppelin/contracts/token/ERC20/ERC20.sol\":9809:9898  if (owner == address(0)) {... */\n    tag_193:\n        /* \"@openzeppelin/contracts/token/ERC20/ERC20.sol\":9930:9931  0 */\n      0x00\n        /* \"@openzeppelin/contracts/token/ERC20/ERC20.sol\":9911:9932  spender == address(0) */\n      0xffffffffffffffffffffffffffffffffffffffff\n      and\n        /* \"@openzeppelin/contracts/token/ERC20/ERC20.sol\":9911:9918  spender */\n      dup4\n        /* \"@openzeppelin/contracts/token/ERC20/ERC20.sol\":9911:9932  spender == address(0) */\n      0xffffffffffffffffffffffffffffffffffffffff\n      and\n      sub\n        /* \"@openzeppelin/contracts/token/ERC20/ERC20.sol\":9907:9997  if (spender == address(0)) {... */\n      tag_195\n      jumpi\n        /* \"@openzeppelin/contracts/token/ERC20/ERC20.sol\":9983:9984  0 */\n      0x00\n        /* \"@openzeppelin/contracts/token/ERC20/ERC20.sol\":9955:9986  ERC20InvalidSpender(address(0)) */\n      mload(0x40)\n      0x94280d6200000000000000000000000000000000000000000000000000000000\n      dup2\n      mstore\n      0x04\n      add\n      tag_196\n      swap2\n      swap1\n      tag_56\n      jump\t// in\n    tag_196:\n      mload(0x40)\n      dup1\n      swap2\n      sub\n      swap1\n      revert\n        /* \"@openzeppelin/contracts/token/ERC20/ERC20.sol\":9907:9997  if (spender == address(0)) {... */\n    tag_195:\n        /* \"@openzeppelin/contracts/token/ERC20/ERC20.sol\":10036:10041  value */\n      dup2\n        /* \"@openzeppelin/contracts/token/ERC20/ERC20.sol\":10006:10017  _allowances */\n      0x01\n        /* \"@openzeppelin/contracts/token/ERC20/ERC20.sol\":10006:10024  _allowances[owner] */\n      0x00\n        /* \"@openzeppelin/contracts/token/ERC20/ERC20.sol\":10018:10023  owner */\n      dup7\n        /* \"@openzeppelin/contracts/token/ERC20/ERC20.sol\":10006:10024  _allowances[owner] */\n      0xffffffffffffffffffffffffffffffffffffffff\n      and\n      0xffffffffffffffffffffffffffffffffffffffff\n      and\n      dup2\n      mstore\n      0x20\n      add\n      swap1\n      dup2\n      mstore\n      0x20\n      add\n      0x00\n      keccak256\n        /* \"@openzeppelin/contracts/token/ERC20/ERC20.sol\":10006:10033  _allowances[owner][spender] */\n      0x00\n        /* \"@openzeppelin/contracts/token/ERC20/ERC20.sol\":10025:10032  spender */\n      dup6\n        /* \"@openzeppelin/contracts/token/ERC20/ERC20.sol\":10006:10033  _allowances[owner][spender] */\n      0xffffffffffffffffffffffffffffffffffffffff\n      and\n      0xffffffffffffffffffffffffffffffffffffffff\n      and\n      dup2\n      mstore\n      0x20\n      add\n      swap1\n      dup2\n      mstore\n      0x20\n      add\n      0x00\n      keccak256\n        /* \"@openzeppelin/contracts/token/ERC20/ERC20.sol\":10006:10041  _allowances[owner][spender] = value */\n      dup2\n      swap1\n      sstore\n      pop\n        /* \"@openzeppelin/contracts/token/ERC20/ERC20.sol\":10055:10064  emitEvent */\n      dup1\n        /* \"@openzeppelin/contracts/token/ERC20/ERC20.sol\":10051:10127  if (emitEvent) {... */\n      iszero\n      tag_197\n      jumpi\n        /* \"@openzeppelin/contracts/token/ERC20/ERC20.sol\":10101:10108  spender */\n      dup3\n        /* \"@openzeppelin/contracts/token/ERC20/ERC20.sol\":10085:10116  Approval(owner, spender, value) */\n      0xffffffffffffffffffffffffffffffffffffffff\n      and\n        /* \"@openzeppelin/contracts/token/ERC20/ERC20.sol\":10094:10099  owner */\n      dup5\n        /* \"@openzeppelin/contracts/token/ERC20/ERC20.sol\":10085:10116  Approval(owner, spender, value) */\n      0xffffffffffffffffffffffffffffffffffffffff\n      and\n      0x8c5be1e5ebec7d5bd14f71427d1e84f3dd0314c0f7b2291e5b200ac8c7c3b925\n        /* \"@openzeppelin/contracts/token/ERC20/ERC20.sol\":10110:10115  value */\n      dup5\n        /* \"@openzeppelin/contracts/token/ERC20/ERC20.sol\":10085:10116  Approval(owner, spender, value) */\n      mload(0x40)\n      tag_198\n      swap2\n      swap1\n      tag_40\n      jump\t// in\n    tag_198:\n      mload(0x40)\n      dup1\n      swap2\n      sub\n      swap1\n      log3\n        /* \"@openzeppelin/contracts/token/ERC20/ERC20.sol\":10051:10127  if (emitEvent) {... */\n    tag_197:\n        /* \"@openzeppelin/contracts/token/ERC20/ERC20.sol\":9701:10133  function _approve(address owner, address spender, uint256 value, bool emitEvent) internal virtual {... */\n      pop\n      pop\n      pop\n      pop\n      jump\t// out\n        /* \"@openzeppelin/contracts/token/ERC20/ERC20.sol\":10415:10892  function _spendAllowance(address owner, address spender, uint256 value) internal virtual {... */\n    tag_176:\n        /* \"@openzeppelin/contracts/token/ERC20/ERC20.sol\":10514:10538  uint256 currentAllowance */\n      0x00\n        /* \"@openzeppelin/contracts/token/ERC20/ERC20.sol\":10541:10566  allowance(owner, spender) */\n      tag_200\n        /* \"@openzeppelin/contracts/token/ERC20/ERC20.sol\":10551:10556  owner */\n      dup5\n        /* \"@openzeppelin/contracts/token/ERC20/ERC20.sol\":10558:10565  spender */\n      dup5\n        /* \"@openzeppelin/contracts/token/ERC20/ERC20.sol\":10541:10550  allowance */\n      tag_99\n        /* \"@openzeppelin/contracts/token/ERC20/ERC20.sol\":10541:10566  allowance(owner, spender) */\n      jump\t// in\n    tag_200:\n        /* \"@openzeppelin/contracts/token/ERC20/ERC20.sol\":10514:10566  uint256 currentAllowance = allowance(owner, spender) */\n      swap1\n      pop\n        /* \"@openzeppelin/contracts/token/ERC20/ERC20.sol\":10600:10617  type(uint256).max */\n      0xffffffffffffffffffffffffffffffffffffffffffffffffffffffffffffffff\n        /* \"@openzeppelin/contracts/token/ERC20/ERC20.sol\":10580:10596  currentAllowance */\n      dup2\n        /* \"@openzeppelin/contracts/token/ERC20/ERC20.sol\":10580:10617  currentAllowance != type(uint256).max */\n      eq\n        /* \"@openzeppelin/contracts/token/ERC20/ERC20.sol\":10576:10886  if (currentAllowance != type(uint256).max) {... */\n      tag_201\n      jumpi\n        /* \"@openzeppelin/contracts/token/ERC20/ERC20.sol\":10656:10661  value */\n      dup2\n        /* \"@openzeppelin/contracts/token/ERC20/ERC20.sol\":10637:10653  currentAllowance */\n      dup2\n        /* \"@openzeppelin/contracts/token/ERC20/ERC20.sol\":10637:10661  currentAllowance < value */\n      lt\n        /* \"@openzeppelin/contracts/token/ERC20/ERC20.sol\":10633:10763  if (currentAllowance < value) {... */\n      iszero\n      tag_202\n      jumpi\n        /* \"@openzeppelin/contracts/token/ERC20/ERC20.sol\":10715:10722  spender */\n      dup3\n        /* \"@openzeppelin/contracts/token/ERC20/ERC20.sol\":10724:10740  currentAllowance */\n      dup2\n        /* \"@openzeppelin/contracts/token/ERC20/ERC20.sol\":10742:10747  value */\n      dup4\n        /* \"@openzeppelin/contracts/token/ERC20/ERC20.sol\":10688:10748  ERC20InsufficientAllowance(spender, currentAllowance, value) */\n      mload(0x40)\n      0xfb8f41b200000000000000000000000000000000000000000000000000000000\n      dup2\n      mstore\n      0x04\n      add\n      tag_203\n      swap4\n      swap3\n      swap2\n      swap1\n      tag_204\n      jump\t// in\n    tag_203:\n      mload(0x40)\n      dup1\n      swap2\n      sub\n      swap1\n      revert\n        /* \"@openzeppelin/contracts/token/ERC20/ERC20.sol\":10633:10763  if (currentAllowance < value) {... */\n    tag_202:\n        /* \"@openzeppelin/contracts/token/ERC20/ERC20.sol\":10804:10861  _approve(owner, spender, currentAllowance - value, false) */\n      tag_205\n        /* \"@openzeppelin/contracts/token/ERC20/ERC20.sol\":10813:10818  owner */\n      dup5\n        /* \"@openzeppelin/contracts/token/ERC20/ERC20.sol\":10820:10827  spender */\n      dup5\n        /* \"@openzeppelin/contracts/token/ERC20/ERC20.sol\":10848:10853  value */\n      dup5\n        /* \"@openzeppelin/contracts/token/ERC20/ERC20.sol\":10829:10845  currentAllowance */\n      dup5\n        /* \"@openzeppelin/contracts/token/ERC20/ERC20.sol\":10829:10853  currentAllowance - value */\n      sub\n        /* \"@openzeppelin/contracts/token/ERC20/ERC20.sol\":10855:10860  false */\n      0x00\n        /* \"@openzeppelin/contracts/token/ERC20/ERC20.sol\":10804:10812  _approve */\n      tag_166\n        /* \"@openzeppelin/contracts/token/ERC20/ERC20.sol\":10804:10861  _approve(owner, spender, currentAllowance - value, false) */\n      jump\t// in\n    tag_205:\n        /* \"@openzeppelin/contracts/token/ERC20/ERC20.sol\":10576:10886  if (currentAllowance != type(uint256).max) {... */\n    tag_201:\n        /* \"@openzeppelin/contracts/token/ERC20/ERC20.sol\":10504:10892  {... */\n      pop\n        /* \"@openzeppelin/contracts/token/ERC20/ERC20.sol\":10415:10892  function _spendAllowance(address owner, address spender, uint256 value) internal virtual {... */\n      pop\n      pop\n      pop\n      jump\t// out\n        /* \"@openzeppelin/contracts/token/ERC20/ERC20.sol\":5393:5693  function _transfer(address from, address to, uint256 value) internal {... */\n    tag_178:\n        /* \"@openzeppelin/contracts/token/ERC20/ERC20.sol\":5492:5493  0 */\n      0x00\n        /* \"@openzeppelin/contracts/token/ERC20/ERC20.sol\":5476:5494  from == address(0) */\n      0xffffffffffffffffffffffffffffffffffffffff\n      and\n        /* \"@openzeppelin/contracts/token/ERC20/ERC20.sol\":5476:5480  from */\n      dup4\n        /* \"@openzeppelin/contracts/token/ERC20/ERC20.sol\":5476:5494  from == address(0) */\n      0xffffffffffffffffffffffffffffffffffffffff\n      and\n      sub\n        /* \"@openzeppelin/contracts/token/ERC20/ERC20.sol\":5472:5558  if (from == address(0)) {... */\n      tag_207\n      jumpi\n        /* \"@openzeppelin/contracts/token/ERC20/ERC20.sol\":5544:5545  0 */\n      0x00\n        /* \"@openzeppelin/contracts/token/ERC20/ERC20.sol\":5517:5547  ERC20InvalidSender(address(0)) */\n      mload(0x40)\n      0x96c6fd1e00000000000000000000000000000000000000000000000000000000\n      dup2\n      mstore\n      0x04\n      add\n      tag_208\n      swap2\n      swap1\n      tag_56\n      jump\t// in\n    tag_208:\n      mload(0x40)\n      dup1\n      swap2\n      sub\n      swap1\n      revert\n        /* \"@openzeppelin/contracts/token/ERC20/ERC20.sol\":5472:5558  if (from == address(0)) {... */\n    tag_207:\n        /* \"@openzeppelin/contracts/token/ERC20/ERC20.sol\":5585:5586  0 */\n      0x00\n        /* \"@openzeppelin/contracts/token/ERC20/ERC20.sol\":5571:5587  to == address(0) */\n      0xffffffffffffffffffffffffffffffffffffffff\n      and\n        /* \"@openzeppelin/contracts/token/ERC20/ERC20.sol\":5571:5573  to */\n      dup3\n        /* \"@openzeppelin/contracts/token/ERC20/ERC20.sol\":5571:5587  to == address(0) */\n      0xffffffffffffffffffffffffffffffffffffffff\n      and\n      sub\n        /* \"@openzeppelin/contracts/token/ERC20/ERC20.sol\":5567:5653  if (to == address(0)) {... */\n      tag_209\n      jumpi\n        /* \"@openzeppelin/contracts/token/ERC20/ERC20.sol\":5639:5640  0 */\n      0x00\n        /* \"@openzeppelin/contracts/token/ERC20/ERC20.sol\":5610:5642  ERC20InvalidReceiver(address(0)) */\n      mload(0x40)\n      0xec442f0500000000000000000000000000000000000000000000000000000000\n      dup2\n      mstore\n      0x04\n      add\n      tag_210\n      swap2\n      swap1\n      tag_56\n      jump\t// in\n    tag_210:\n      mload(0x40)\n      dup1\n      swap2\n      sub\n      swap1\n      revert\n        /* \"@openzeppelin/contracts/token/ERC20/ERC20.sol\":5567:5653  if (to == address(0)) {... */\n    tag_209:\n        /* \"@openzeppelin/contracts/token/ERC20/ERC20.sol\":5662:5686  _update(from, to, value) */\n      tag_211\n        /* \"@openzeppelin/contracts/token/ERC20/ERC20.sol\":5670:5674  from */\n      dup4\n        /* \"@openzeppelin/contracts/token/ERC20/ERC20.sol\":5676:5678  to */\n      dup4\n        /* \"@openzeppelin/contracts/token/ERC20/ERC20.sol\":5680:5685  value */\n      dup4\n        /* \"@openzeppelin/contracts/token/ERC20/ERC20.sol\":5662:5669  _update */\n      tag_183\n        /* \"@openzeppelin/contracts/token/ERC20/ERC20.sol\":5662:5686  _update(from, to, value) */\n      jump\t// in\n    tag_211:\n        /* \"@openzeppelin/contracts/token/ERC20/ERC20.sol\":5393:5693  function _transfer(address from, address to, uint256 value) internal {... */\n      pop\n      pop\n      pop\n      jump\t// out\n        /* \"@openzeppelin/contracts/token/ERC20/ERC20.sol\":6008:7115  function _update(address from, address to, uint256 value) internal virtual {... */\n    tag_183:\n        /* \"@openzeppelin/contracts/token/ERC20/ERC20.sol\":6113:6114  0 */\n      0x00\n        /* \"@openzeppelin/contracts/token/ERC20/ERC20.sol\":6097:6115  from == address(0) */\n      0xffffffffffffffffffffffffffffffffffffffff\n      and\n        /* \"@openzeppelin/contracts/token/ERC20/ERC20.sol\":6097:6101  from */\n      dup4\n        /* \"@openzeppelin/contracts/token/ERC20/ERC20.sol\":6097:6115  from == address(0) */\n      0xffffffffffffffffffffffffffffffffffffffff\n      and\n      sub\n        /* \"@openzeppelin/contracts/token/ERC20/ERC20.sol\":6093:6633  if (from == address(0)) {... */\n      tag_213\n      jumpi\n        /* \"@openzeppelin/contracts/token/ERC20/ERC20.sol\":6249:6254  value */\n      dup1\n        /* \"@openzeppelin/contracts/token/ERC20/ERC20.sol\":6233:6245  _totalSupply */\n      0x02\n      0x00\n        /* \"@openzeppelin/contracts/token/ERC20/ERC20.sol\":6233:6254  _totalSupply += value */\n      dup3\n      dup3\n      sload\n      tag_214\n      swap2\n      swap1\n      tag_215\n      jump\t// in\n    tag_214:\n      swap3\n      pop\n      pop\n      dup2\n      swap1\n      sstore\n      pop\n        /* \"@openzeppelin/contracts/token/ERC20/ERC20.sol\":6093:6633  if (from == address(0)) {... */\n      jump(tag_216)\n    tag_213:\n        /* \"@openzeppelin/contracts/token/ERC20/ERC20.sol\":6285:6304  uint256 fromBalance */\n      0x00\n        /* \"@openzeppelin/contracts/token/ERC20/ERC20.sol\":6307:6316  _balances */\n      dup1\n        /* \"@openzeppelin/contracts/token/ERC20/ERC20.sol\":6307:6322  _balances[from] */\n      0x00\n        /* \"@openzeppelin/contracts/token/ERC20/ERC20.sol\":6317:6321  from */\n      dup6\n        /* \"@openzeppelin/contracts/token/ERC20/ERC20.sol\":6307:6322  _balances[from] */\n      0xffffffffffffffffffffffffffffffffffffffff\n      and\n      0xffffffffffffffffffffffffffffffffffffffff\n      and\n      dup2\n      mstore\n      0x20\n      add\n      swap1\n      dup2\n      mstore\n      0x20\n      add\n      0x00\n      keccak256\n      sload\n        /* \"@openzeppelin/contracts/token/ERC20/ERC20.sol\":6285:6322  uint256 fromBalance = _balances[from] */\n      swap1\n      pop\n        /* \"@openzeppelin/contracts/token/ERC20/ERC20.sol\":6354:6359  value */\n      dup2\n        /* \"@openzeppelin/contracts/token/ERC20/ERC20.sol\":6340:6351  fromBalance */\n      dup2\n        /* \"@openzeppelin/contracts/token/ERC20/ERC20.sol\":6340:6359  fromBalance < value */\n      lt\n        /* \"@openzeppelin/contracts/token/ERC20/ERC20.sol\":6336:6451  if (fromBalance < value) {... */\n      iszero\n      tag_217\n      jumpi\n        /* \"@openzeppelin/contracts/token/ERC20/ERC20.sol\":6411:6415  from */\n      dup4\n        /* \"@openzeppelin/contracts/token/ERC20/ERC20.sol\":6417:6428  fromBalance */\n      dup2\n        /* \"@openzeppelin/contracts/token/ERC20/ERC20.sol\":6430:6435  value */\n      dup4\n        /* \"@openzeppelin/contracts/token/ERC20/ERC20.sol\":6386:6436  ERC20InsufficientBalance(from, fromBalance, value) */\n      mload(0x40)\n      0xe450d38c00000000000000000000000000000000000000000000000000000000\n      dup2\n      mstore\n      0x04\n      add\n      tag_218\n      swap4\n      swap3\n      swap2\n      swap1\n      tag_204\n      jump\t// in\n    tag_218:\n      mload(0x40)\n      dup1\n      swap2\n      sub\n      swap1\n      revert\n        /* \"@openzeppelin/contracts/token/ERC20/ERC20.sol\":6336:6451  if (fromBalance < value) {... */\n    tag_217:\n        /* \"@openzeppelin/contracts/token/ERC20/ERC20.sol\":6603:6608  value */\n      dup2\n        /* \"@openzeppelin/contracts/token/ERC20/ERC20.sol\":6589:6600  fromBalance */\n      dup2\n        /* \"@openzeppelin/contracts/token/ERC20/ERC20.sol\":6589:6608  fromBalance - value */\n      sub\n        /* \"@openzeppelin/contracts/token/ERC20/ERC20.sol\":6571:6580  _balances */\n      0x00\n        /* \"@openzeppelin/contracts/token/ERC20/ERC20.sol\":6571:6586  _balances[from] */\n      dup1\n        /* \"@openzeppelin/contracts/token/ERC20/ERC20.sol\":6581:6585  from */\n      dup7\n        /* \"@openzeppelin/contracts/token/ERC20/ERC20.sol\":6571:6586  _balances[from] */\n      0xffffffffffffffffffffffffffffffffffffffff\n      and\n      0xffffffffffffffffffffffffffffffffffffffff\n      and\n      dup2\n      mstore\n      0x20\n      add\n      swap1\n      dup2\n      mstore\n      0x20\n      add\n      0x00\n      keccak256\n        /* \"@openzeppelin/contracts/token/ERC20/ERC20.sol\":6571:6608  _balances[from] = fromBalance - value */\n      dup2\n      swap1\n      sstore\n      pop\n        /* \"@openzeppelin/contracts/token/ERC20/ERC20.sol\":6271:6633  {... */\n      pop\n        /* \"@openzeppelin/contracts/token/ERC20/ERC20.sol\":6093:6633  if (from == address(0)) {... */\n    tag_216:\n        /* \"@openzeppelin/contracts/token/ERC20/ERC20.sol\":6661:6662  0 */\n      0x00\n        /* \"@openzeppelin/contracts/token/ERC20/ERC20.sol\":6647:6663  to == address(0) */\n      0xffffffffffffffffffffffffffffffffffffffff\n      and\n        /* \"@openzeppelin/contracts/token/ERC20/ERC20.sol\":6647:6649  to */\n      dup3\n        /* \"@openzeppelin/contracts/token/ERC20/ERC20.sol\":6647:6663  to == address(0) */\n      0xffffffffffffffffffffffffffffffffffffffff\n      and\n      sub\n        /* \"@openzeppelin/contracts/token/ERC20/ERC20.sol\":6643:7068  if (to == address(0)) {... */\n      tag_219\n      jumpi\n        /* \"@openzeppelin/contracts/token/ERC20/ERC20.sol\":6826:6831  value */\n      dup1\n        /* \"@openzeppelin/contracts/token/ERC20/ERC20.sol\":6810:6822  _totalSupply */\n      0x02\n      0x00\n        /* \"@openzeppelin/contracts/token/ERC20/ERC20.sol\":6810:6831  _totalSupply -= value */\n      dup3\n      dup3\n      sload\n      sub\n      swap3\n      pop\n      pop\n      dup2\n      swap1\n      sstore\n      pop\n        /* \"@openzeppelin/contracts/token/ERC20/ERC20.sol\":6643:7068  if (to == address(0)) {... */\n      jump(tag_220)\n    tag_219:\n        /* \"@openzeppelin/contracts/token/ERC20/ERC20.sol\":7038:7043  value */\n      dup1\n        /* \"@openzeppelin/contracts/token/ERC20/ERC20.sol\":7021:7030  _balances */\n      0x00\n        /* \"@openzeppelin/contracts/token/ERC20/ERC20.sol\":7021:7034  _balances[to] */\n      dup1\n        /* \"@openzeppelin/contracts/token/ERC20/ERC20.sol\":7031:7033  to */\n      dup5\n        /* \"@openzeppelin/contracts/token/ERC20/ERC20.sol\":7021:7034  _balances[to] */\n      0xffffffffffffffffffffffffffffffffffffffff\n      and\n      0xffffffffffffffffffffffffffffffffffffffff\n      and\n      dup2\n      mstore\n      0x20\n      add\n      swap1\n      dup2\n      mstore\n      0x20\n      add\n      0x00\n      keccak256\n      0x00\n        /* \"@openzeppelin/contracts/token/ERC20/ERC20.sol\":7021:7043  _balances[to] += value */\n      dup3\n      dup3\n      sload\n      add\n      swap3\n      pop\n      pop\n      dup2\n      swap1\n      sstore\n      pop\n        /* \"@openzeppelin/contracts/token/ERC20/ERC20.sol\":6643:7068  if (to == address(0)) {... */\n    tag_220:\n        /* \"@openzeppelin/contracts/token/ERC20/ERC20.sol\":7098:7100  to */\n      dup2\n        /* \"@openzeppelin/contracts/token/ERC20/ERC20.sol\":7083:7108  Transfer(from, to, value) */\n      0xffffffffffffffffffffffffffffffffffffffff\n      and\n        /* \"@openzeppelin/contracts/token/ERC20/ERC20.sol\":7092:7096  from */\n      dup4\n        /* \"@openzeppelin/contracts/token/ERC20/ERC20.sol\":7083:7108  Transfer(from, to, value) */\n      0xffffffffffffffffffffffffffffffffffffffff\n      and\n      0xddf252ad1be2c89b69c2b068fc378daa952ba7f163c4a11628f55a4df523b3ef\n        /* \"@openzeppelin/contracts/token/ERC20/ERC20.sol\":7102:7107  value */\n      dup4\n        /* \"@openzeppelin/contracts/token/ERC20/ERC20.sol\":7083:7108  Transfer(from, to, value) */\n      mload(0x40)\n      tag_221\n      swap2\n      swap1\n      tag_40\n      jump\t// in\n    tag_221:\n      mload(0x40)\n      dup1\n      swap2\n      sub\n      swap1\n      log3\n        /* \"@openzeppelin/contracts/token/ERC20/ERC20.sol\":6008:7115  function _update(address from, address to, uint256 value) internal virtual {... */\n      pop\n      pop\n      pop\n      jump\t// out\n        /* \"#utility.yul\":7:106   */\n    tag_222:\n        /* \"#utility.yul\":59:65   */\n      0x00\n        /* \"#utility.yul\":93:98   */\n      dup2\n        /* \"#utility.yul\":87:99   */\n      mload\n        /* \"#utility.yul\":77:99   */\n      swap1\n      pop\n        /* \"#utility.yul\":7:106   */\n      swap2\n      swap1\n      pop\n      jump\t// out\n        /* \"#utility.yul\":112:281   */\n    tag_223:\n        /* \"#utility.yul\":196:207   */\n      0x00\n        /* \"#utility.yul\":230:236   */\n      dup3\n        /* \"#utility.yul\":225:228   */\n      dup3\n        /* \"#utility.yul\":218:237   */\n      mstore\n        /* \"#utility.yul\":270:274   */\n      0x20\n        /* \"#utility.yul\":265:268   */\n      dup3\n        /* \"#utility.yul\":261:275   */\n      add\n        /* \"#utility.yul\":246:275   */\n      swap1\n      pop\n        /* \"#utility.yul\":112:281   */\n      swap3\n      swap2\n      pop\n      pop\n      jump\t// out\n        /* \"#utility.yul\":287:426   */\n    tag_224:\n        /* \"#utility.yul\":376:382   */\n      dup3\n        /* \"#utility.yul\":371:374   */\n      dup2\n        /* \"#utility.yul\":366:369   */\n      dup4\n        /* \"#utility.yul\":360:383   */\n      mcopy\n        /* \"#utility.yul\":417:418   */\n      0x00\n        /* \"#utility.yul\":408:414   */\n      dup4\n        /* \"#utility.yul\":403:406   */\n      dup4\n        /* \"#utility.yul\":399:415   */\n      add\n        /* \"#utility.yul\":392:419   */\n      mstore\n        /* \"#utility.yul\":287:426   */\n      pop\n      pop\n      pop\n      jump\t// out\n        /* \"#utility.yul\":432:534   */\n    tag_225:\n        /* \"#utility.yul\":473:479   */\n      0x00\n        /* \"#utility.yul\":524:526   */\n      0x1f\n        /* \"#utility.yul\":520:527   */\n      not\n        /* \"#utility.yul\":515:517   */\n      0x1f\n        /* \"#utility.yul\":508:513   */\n      dup4\n        /* \"#utility.yul\":504:518   */\n      add\n        /* \"#utility.yul\":500:528   */\n      and\n        /* \"#utility.yul\":490:528   */\n      swap1\n      pop\n        /* \"#utility.yul\":432:534   */\n      swap2\n      swap1\n      pop\n      jump\t// out\n        /* \"#utility.yul\":540:917   */\n    tag_226:\n        /* \"#utility.yul\":628:631   */\n      0x00\n        /* \"#utility.yul\":656:695   */\n      tag_253\n        /* \"#utility.yul\":689:694   */\n      dup3\n        /* \"#utility.yul\":656:695   */\n      tag_222\n      jump\t// in\n    tag_253:\n        /* \"#utility.yul\":711:782   */\n      tag_254\n        /* \"#utility.yul\":775:781   */\n      dup2\n        /* \"#utility.yul\":770:773   */\n      dup6\n        /* \"#utility.yul\":711:782   */\n      tag_223\n      jump\t// in\n    tag_254:\n        /* \"#utility.yul\":704:782   */\n      swap4\n      pop\n        /* \"#utility.yul\":791:856   */\n      tag_255\n        /* \"#utility.yul\":849:855   */\n      dup2\n        /* \"#utility.yul\":844:847   */\n      dup6\n        /* \"#utility.yul\":837:841   */\n      0x20\n        /* \"#utility.yul\":830:835   */\n      dup7\n        /* \"#utility.yul\":826:842   */\n      add\n        /* \"#utility.yul\":791:856   */\n      tag_224\n      jump\t// in\n    tag_255:\n        /* \"#utility.yul\":881:910   */\n      tag_256\n        /* \"#utility.yul\":903:909   */\n      dup2\n        /* \"#utility.yul\":881:910   */\n      tag_225\n      jump\t// in\n    tag_256:\n        /* \"#utility.yul\":876:879   */\n      dup5\n        /* \"#utility.yul\":872:911   */\n      add\n        /* \"#utility.yul\":865:911   */\n      swap2\n      pop\n        /* \"#utility.yul\":632:917   */\n      pop\n        /* \"#utility.yul\":540:917   */\n      swap3\n      swap2\n      pop\n      pop\n      jump\t// out\n        /* \"#utility.yul\":923:1236   */\n    tag_30:\n        /* \"#utility.yul\":1036:1040   */\n      0x00\n        /* \"#utility.yul\":1074:1076   */\n      0x20\n        /* \"#utility.yul\":1063:1072   */\n      dup3\n        /* \"#utility.yul\":1059:1077   */\n      add\n        /* \"#utility.yul\":1051:1077   */\n      swap1\n      pop\n        /* \"#utility.yul\":1123:1132   */\n      dup2\n        /* \"#utility.yul\":1117:1121   */\n      dup2\n        /* \"#utility.yul\":1113:1133   */\n      sub\n        /* \"#utility.yul\":1109:1110   */\n      0x00\n        /* \"#utility.yul\":1098:1107   */\n      dup4\n        /* \"#utility.yul\":1094:1111   */\n      add\n        /* \"#utility.yul\":1087:1134   */\n      mstore\n        /* \"#utility.yul\":1151:1229   */\n      tag_258\n        /* \"#utility.yul\":1224:1228   */\n      dup2\n        /* \"#utility.yul\":1215:1221   */\n      dup5\n        /* \"#utility.yul\":1151:1229   */\n      tag_226\n      jump\t// in\n    tag_258:\n        /* \"#utility.yul\":1143:1229   */\n      swap1\n      pop\n        /* \"#utility.yul\":923:1236   */\n      swap3\n      swap2\n      pop\n      pop\n      jump\t// out\n        /* \"#utility.yul\":1323:1440   */\n    tag_228:\n        /* \"#utility.yul\":1432:1433   */\n      0x00\n        /* \"#utility.yul\":1429:1430   */\n      dup1\n        /* \"#utility.yul\":1422:1434   */\n      revert\n        /* \"#utility.yul\":1569:1695   */\n    tag_230:\n        /* \"#utility.yul\":1606:1613   */\n      0x00\n        /* \"#utility.yul\":1646:1688   */\n      0xffffffffffffffffffffffffffffffffffffffff\n        /* \"#utility.yul\":1639:1644   */\n      dup3\n        /* \"#utility.yul\":1635:1689   */\n      and\n        /* \"#utility.yul\":1624:1689   */\n      swap1\n      pop\n        /* \"#utility.yul\":1569:1695   */\n      swap2\n      swap1\n      pop\n      jump\t// out\n        /* \"#utility.yul\":1701:1797   */\n    tag_231:\n        /* \"#utility.yul\":1738:1745   */\n      0x00\n        /* \"#utility.yul\":1767:1791   */\n      tag_264\n        /* \"#utility.yul\":1785:1790   */\n      dup3\n        /* \"#utility.yul\":1767:1791   */\n      tag_230\n      jump\t// in\n    tag_264:\n        /* \"#utility.yul\":1756:1791   */\n      swap1\n      pop\n        /* \"#utility.yul\":1701:1797   */\n      swap2\n      swap1\n      pop\n      jump\t// out\n        /* \"#utility.yul\":1803:1925   */\n    tag_232:\n        /* \"#utility.yul\":1876:1900   */\n      tag_266\n        /* \"#utility.yul\":1894:1899   */\n      dup2\n        /* \"#utility.yul\":1876:1900   */\n      tag_231\n      jump\t// in\n    tag_266:\n        /* \"#utility.yul\":1869:1874   */\n      dup2\n        /* \"#utility.yul\":1866:1901   */\n      eq\n        /* \"#utility.yul\":1856:1919   */\n      tag_267\n      jumpi\n        /* \"#utility.yul\":1915:1916   */\n      0x00\n        /* \"#utility.yul\":1912:1913   */\n      dup1\n        /* \"#utility.yul\":1905:1917   */\n      revert\n        /* \"#utility.yul\":1856:1919   */\n    tag_267:\n        /* \"#utility.yul\":1803:1925   */\n      pop\n      jump\t// out\n        /* \"#utility.yul\":1931:2070   */\n    tag_233:\n        /* \"#utility.yul\":1977:1982   */\n      0x00\n        /* \"#utility.yul\":2015:2021   */\n      dup2\n        /* \"#utility.yul\":2002:2022   */\n      calldataload\n        /* \"#utility.yul\":1993:2022   */\n      swap1\n      pop\n        /* \"#utility.yul\":2031:2064   */\n      tag_269\n        /* \"#utility.yul\":2058:2063   */\n      dup2\n        /* \"#utility.yul\":2031:2064   */\n      tag_232\n      jump\t// in\n    tag_269:\n        /* \"#utility.yul\":1931:2070   */\n      swap3\n      swap2\n      pop\n      pop\n      jump\t// out\n        /* \"#utility.yul\":2076:2153   */\n    tag_234:\n        /* \"#utility.yul\":2113:2120   */\n      0x00\n        /* \"#utility.yul\":2142:2147   */\n      dup2\n        /* \"#utility.yul\":2131:2147   */\n      swap1\n      pop\n        /* \"#utility.yul\":2076:2153   */\n      swap2\n      swap1\n      pop\n      jump\t// out\n        /* \"#utility.yul\":2159:2281   */\n    tag_235:\n        /* \"#utility.yul\":2232:2256   */\n      tag_272\n        /* \"#utility.yul\":2250:2255   */\n      dup2\n        /* \"#utility.yul\":2232:2256   */\n      tag_234\n      jump\t// in\n    tag_272:\n        /* \"#utility.yul\":2225:2230   */\n      dup2\n        /* \"#utility.yul\":2222:2257   */\n      eq\n        /* \"#utility.yul\":2212:2275   */\n      tag_273\n      jumpi\n        /* \"#utility.yul\":2271:2272   */\n      0x00\n        /* \"#utility.yul\":2268:2269   */\n      dup1\n        /* \"#utility.yul\":2261:2273   */\n      revert\n        /* \"#utility.yul\":2212:2275   */\n    tag_273:\n        /* \"#utility.yul\":2159:2281   */\n      pop\n      jump\t// out\n        /* \"#utility.yul\":2287:2426   */\n    tag_236:\n        /* \"#utility.yul\":2333:2338   */\n      0x00\n        /* \"#utility.yul\":2371:2377   */\n      dup2\n        /* \"#utility.yul\":2358:2378   */\n      calldataload\n        /* \"#utility.yul\":2349:2378   */\n      swap1\n      pop\n        /* \"#utility.yul\":2387:2420   */\n      tag_275\n        /* \"#utility.yul\":2414:2419   */\n      dup2\n        /* \"#utility.yul\":2387:2420   */\n      tag_235\n      jump\t// in\n    tag_275:\n        /* \"#utility.yul\":2287:2426   */\n      swap3\n      swap2\n      pop\n      pop\n      jump\t// out\n        /* \"#utility.yul\":2432:2906   */\n    tag_33:\n        /* \"#utility.yul\":2500:2506   */\n      0x00\n        /* \"#utility.yul\":2508:2514   */\n      dup1\n        /* \"#utility.yul\":2557:2559   */\n      0x40\n        /* \"#utility.yul\":2545:2554   */\n      dup4\n        /* \"#utility.yul\":2536:2543   */\n      dup6\n        /* \"#utility.yul\":2532:2555   */\n      sub\n        /* \"#utility.yul\":2528:2560   */\n      slt\n        /* \"#utility.yul\":2525:2644   */\n      iszero\n      tag_277\n      jumpi\n        /* \"#utility.yul\":2563:2642   */\n      tag_278\n      tag_228\n      jump\t// in\n    tag_278:\n        /* \"#utility.yul\":2525:2644   */\n    tag_277:\n        /* \"#utility.yul\":2683:2684   */\n      0x00\n        /* \"#utility.yul\":2708:2761   */\n      tag_279\n        /* \"#utility.yul\":2753:2760   */\n      dup6\n        /* \"#utility.yul\":2744:2750   */\n      dup3\n        /* \"#utility.yul\":2733:2742   */\n      dup7\n        /* \"#utility.yul\":2729:2751   */\n      add\n        /* \"#utility.yul\":2708:2761   */\n      tag_233\n      jump\t// in\n    tag_279:\n        /* \"#utility.yul\":2698:2761   */\n      swap3\n      pop\n        /* \"#utility.yul\":2654:2771   */\n      pop\n        /* \"#utility.yul\":2810:2812   */\n      0x20\n        /* \"#utility.yul\":2836:2889   */\n      tag_280\n        /* \"#utility.yul\":2881:2888   */\n      dup6\n        /* \"#utility.yul\":2872:2878   */\n      dup3\n        /* \"#utility.yul\":2861:2870   */\n      dup7\n        /* \"#utility.yul\":2857:2879   */\n      add\n        /* \"#utility.yul\":2836:2889   */\n      tag_236\n      jump\t// in\n    tag_280:\n        /* \"#utility.yul\":2826:2889   */\n      swap2\n      pop\n        /* \"#utility.yul\":2781:2899   */\n      pop\n        /* \"#utility.yul\":2432:2906   */\n      swap3\n      pop\n      swap3\n      swap1\n      pop\n      jump\t// out\n        /* \"#utility.yul\":2912:3002   */\n    tag_237:\n        /* \"#utility.yul\":2946:2953   */\n      0x00\n        /* \"#utility.yul\":2989:2994   */\n      dup2\n        /* \"#utility.yul\":2982:2995   */\n      iszero\n        /* \"#utility.yul\":2975:2996   */\n      iszero\n        /* \"#utility.yul\":2964:2996   */\n      swap1\n      pop\n        /* \"#utility.yul\":2912:3002   */\n      swap2\n      swap1\n      pop\n      jump\t// out\n        /* \"#utility.yul\":3008:3117   */\n    tag_238:\n        /* \"#utility.yul\":3089:3110   */\n      tag_283\n        /* \"#utility.yul\":3104:3109   */\n      dup2\n        /* \"#utility.yul\":3089:3110   */\n      tag_237\n      jump\t// in\n    tag_283:\n        /* \"#utility.yul\":3084:3087   */\n      dup3\n        /* \"#utility.yul\":3077:3111   */\n      mstore\n        /* \"#utility.yul\":3008:3117   */\n      pop\n      pop\n      jump\t// out\n        /* \"#utility.yul\":3123:3333   */\n    tag_36:\n        /* \"#utility.yul\":3210:3214   */\n      0x00\n        /* \"#utility.yul\":3248:3250   */\n      0x20\n        /* \"#utility.yul\":3237:3246   */\n      dup3\n        /* \"#utility.yul\":3233:3251   */\n      add\n        /* \"#utility.yul\":3225:3251   */\n      swap1\n      pop\n        /* \"#utility.yul\":3261:3326   */\n      tag_285\n        /* \"#utility.yul\":3323:3324   */\n      0x00\n        /* \"#utility.yul\":3312:3321   */\n      dup4\n        /* \"#utility.yul\":3308:3325   */\n      add\n        /* \"#utility.yul\":3299:3305   */\n      dup5\n        /* \"#utility.yul\":3261:3326   */\n      tag_238\n      jump\t// in\n    tag_285:\n        /* \"#utility.yul\":3123:3333   */\n      swap3\n      swap2\n      pop\n      pop\n      jump\t// out\n        /* \"#utility.yul\":3339:3457   */\n    tag_239:\n        /* \"#utility.yul\":3426:3450   */\n      tag_287\n        /* \"#utility.yul\":3444:3449   */\n      dup2\n        /* \"#utility.yul\":3426:3450   */\n      tag_234\n      jump\t// in\n    tag_287:\n        /* \"#utility.yul\":3421:3424   */\n      dup3\n        /* \"#utility.yul\":3414:3451   */\n      mstore\n        /* \"#utility.yul\":3339:3457   */\n      pop\n      pop\n      jump\t// out\n        /* \"#utility.yul\":3463:3685   */\n    tag_40:\n        /* \"#utility.yul\":3556:3560   */\n      0x00\n        /* \"#utility.yul\":3594:3596   */\n      0x20\n        /* \"#utility.yul\":3583:3592   */\n      dup3\n        /* \"#utility.yul\":3579:3597   */\n      add\n        /* \"#utility.yul\":3571:3597   */\n      swap1\n      pop\n        /* \"#utility.yul\":3607:3678   */\n      tag_289\n        /* \"#utility.yul\":3675:3676   */\n      0x00\n        /* \"#utility.yul\":3664:3673   */\n      dup4\n        /* \"#utility.yul\":3660:3677   */\n      add\n        /* \"#utility.yul\":3651:3657   */\n      dup5\n        /* \"#utility.yul\":3607:3678   */\n      tag_239\n      jump\t// in\n    tag_289:\n        /* \"#utility.yul\":3463:3685   */\n      swap3\n      swap2\n      pop\n      pop\n      jump\t// out\n        /* \"#utility.yul\":3691:4020   */\n    tag_45:\n        /* \"#utility.yul\":3750:3756   */\n      0x00\n        /* \"#utility.yul\":3799:3801   */\n      0x20\n        /* \"#utility.yul\":3787:3796   */\n      dup3\n        /* \"#utility.yul\":3778:3785   */\n      dup5\n        /* \"#utility.yul\":3774:3797   */\n      sub\n        /* \"#utility.yul\":3770:3802   */\n      slt\n        /* \"#utility.yul\":3767:3886   */\n      iszero\n      tag_291\n      jumpi\n        /* \"#utility.yul\":3805:3884   */\n      tag_292\n      tag_228\n      jump\t// in\n    tag_292:\n        /* \"#utility.yul\":3767:3886   */\n    tag_291:\n        /* \"#utility.yul\":3925:3926   */\n      0x00\n        /* \"#utility.yul\":3950:4003   */\n      tag_293\n        /* \"#utility.yul\":3995:4002   */\n      dup5\n        /* \"#utility.yul\":3986:3992   */\n      dup3\n        /* \"#utility.yul\":3975:3984   */\n      dup6\n        /* \"#utility.yul\":3971:3993   */\n      add\n        /* \"#utility.yul\":3950:4003   */\n      tag_233\n      jump\t// in\n    tag_293:\n        /* \"#utility.yul\":3940:4003   */\n      swap2\n      pop\n        /* \"#utility.yul\":3896:4013   */\n      pop\n        /* \"#utility.yul\":3691:4020   */\n      swap3\n      swap2\n      pop\n      pop\n      jump\t// out\n        /* \"#utility.yul\":4026:4645   */\n    tag_50:\n        /* \"#utility.yul\":4103:4109   */\n      0x00\n        /* \"#utility.yul\":4111:4117   */\n      dup1\n        /* \"#utility.yul\":4119:4125   */\n      0x00\n        /* \"#utility.yul\":4168:4170   */\n      0x60\n        /* \"#utility.yul\":4156:4165   */\n      dup5\n        /* \"#utility.yul\":4147:4154   */\n      dup7\n        /* \"#utility.yul\":4143:4166   */\n      sub\n        /* \"#utility.yul\":4139:4171   */\n      slt\n        /* \"#utility.yul\":4136:4255   */\n      iszero\n      tag_295\n      jumpi\n        /* \"#utility.yul\":4174:4253   */\n      tag_296\n      tag_228\n      jump\t// in\n    tag_296:\n        /* \"#utility.yul\":4136:4255   */\n    tag_295:\n        /* \"#utility.yul\":4294:4295   */\n      0x00\n        /* \"#utility.yul\":4319:4372   */\n      tag_297\n        /* \"#utility.yul\":4364:4371   */\n      dup7\n        /* \"#utility.yul\":4355:4361   */\n      dup3\n        /* \"#utility.yul\":4344:4353   */\n      dup8\n        /* \"#utility.yul\":4340:4362   */\n      add\n        /* \"#utility.yul\":4319:4372   */\n      tag_233\n      jump\t// in\n    tag_297:\n        /* \"#utility.yul\":4309:4372   */\n      swap4\n      pop\n        /* \"#utility.yul\":4265:4382   */\n      pop\n        /* \"#utility.yul\":4421:4423   */\n      0x20\n        /* \"#utility.yul\":4447:4500   */\n      tag_298\n        /* \"#utility.yul\":4492:4499   */\n      dup7\n        /* \"#utility.yul\":4483:4489   */\n      dup3\n        /* \"#utility.yul\":4472:4481   */\n      dup8\n        /* \"#utility.yul\":4468:4490   */\n      add\n        /* \"#utility.yul\":4447:4500   */\n      tag_233\n      jump\t// in\n    tag_298:\n        /* \"#utility.yul\":4437:4500   */\n      swap3\n      pop\n        /* \"#utility.yul\":4392:4510   */\n      pop\n        /* \"#utility.yul\":4549:4551   */\n      0x40\n        /* \"#utility.yul\":4575:4628   */\n      tag_299\n        /* \"#utility.yul\":4620:4627   */\n      dup7\n        /* \"#utility.yul\":4611:4617   */\n      dup3\n        /* \"#utility.yul\":4600:4609   */\n      dup8\n        /* \"#utility.yul\":4596:4618   */\n      add\n        /* \"#utility.yul\":4575:4628   */\n      tag_236\n      jump\t// in\n    tag_299:\n        /* \"#utility.yul\":4565:4628   */\n      swap2\n      pop\n        /* \"#utility.yul\":4520:4638   */\n      pop\n        /* \"#utility.yul\":4026:4645   */\n      swap3\n      pop\n      swap3\n      pop\n      swap3\n      jump\t// out\n        /* \"#utility.yul\":4651:4769   */\n    tag_240:\n        /* \"#utility.yul\":4738:4762   */\n      tag_301\n        /* \"#utility.yul\":4756:4761   */\n      dup2\n        /* \"#utility.yul\":4738:4762   */\n      tag_231\n      jump\t// in\n    tag_301:\n        /* \"#utility.yul\":4733:4736   */\n      dup3\n        /* \"#utility.yul\":4726:4763   */\n      mstore\n        /* \"#utility.yul\":4651:4769   */\n      pop\n      pop\n      jump\t// out\n        /* \"#utility.yul\":4775:4997   */\n    tag_56:\n        /* \"#utility.yul\":4868:4872   */\n      0x00\n        /* \"#utility.yul\":4906:4908   */\n      0x20\n        /* \"#utility.yul\":4895:4904   */\n      dup3\n        /* \"#utility.yul\":4891:4909   */\n      add\n        /* \"#utility.yul\":4883:4909   */\n      swap1\n      pop\n        /* \"#utility.yul\":4919:4990   */\n      tag_303\n        /* \"#utility.yul\":4987:4988   */\n      0x00\n        /* \"#utility.yul\":4976:4985   */\n      dup4\n        /* \"#utility.yul\":4972:4989   */\n      add\n        /* \"#utility.yul\":4963:4969   */\n      dup5\n        /* \"#utility.yul\":4919:4990   */\n      tag_240\n      jump\t// in\n    tag_303:\n        /* \"#utility.yul\":4775:4997   */\n      swap3\n      swap2\n      pop\n      pop\n      jump\t// out\n        /* \"#utility.yul\":5003:5089   */\n    tag_241:\n        /* \"#utility.yul\":5038:5045   */\n      0x00\n        /* \"#utility.yul\":5078:5082   */\n      0xff\n        /* \"#utility.yul\":5071:5076   */\n      dup3\n        /* \"#utility.yul\":5067:5083   */\n      and\n        /* \"#utility.yul\":5056:5083   */\n      swap1\n      pop\n        /* \"#utility.yul\":5003:5089   */\n      swap2\n      swap1\n      pop\n      jump\t// out\n        /* \"#utility.yul\":5095:5207   */\n    tag_242:\n        /* \"#utility.yul\":5178:5200   */\n      tag_306\n        /* \"#utility.yul\":5194:5199   */\n      dup2\n        /* \"#utility.yul\":5178:5200   */\n      tag_241\n      jump\t// in\n    tag_306:\n        /* \"#utility.yul\":5173:5176   */\n      dup3\n        /* \"#utility.yul\":5166:5201   */\n      mstore\n        /* \"#utility.yul\":5095:5207   */\n      pop\n      pop\n      jump\t// out\n        /* \"#utility.yul\":5213:5427   */\n    tag_60:\n        /* \"#utility.yul\":5302:5306   */\n      0x00\n        /* \"#utility.yul\":5340:5342   */\n      0x20\n        /* \"#utility.yul\":5329:5338   */\n      dup3\n        /* \"#utility.yul\":5325:5343   */\n      add\n        /* \"#utility.yul\":5317:5343   */\n      swap1\n      pop\n        /* \"#utility.yul\":5353:5420   */\n      tag_308\n        /* \"#utility.yul\":5417:5418   */\n      0x00\n        /* \"#utility.yul\":5406:5415   */\n      dup4\n        /* \"#utility.yul\":5402:5419   */\n      add\n        /* \"#utility.yul\":5393:5399   */\n      dup5\n        /* \"#utility.yul\":5353:5420   */\n      tag_242\n      jump\t// in\n    tag_308:\n        /* \"#utility.yul\":5213:5427   */\n      swap3\n      swap2\n      pop\n      pop\n      jump\t// out\n        /* \"#utility.yul\":5433:5762   */\n    tag_69:\n        /* \"#utility.yul\":5492:5498   */\n      0x00\n        /* \"#utility.yul\":5541:5543   */\n      0x20\n        /* \"#utility.yul\":5529:5538   */\n      dup3\n        /* \"#utility.yul\":5520:5527   */\n      dup5\n        /* \"#utility.yul\":5516:5539   */\n      sub\n        /* \"#utility.yul\":5512:5544   */\n      slt\n        /* \"#utility.yul\":5509:5628   */\n      iszero\n      tag_310\n      jumpi\n        /* \"#utility.yul\":5547:5626   */\n      tag_311\n      tag_228\n      jump\t// in\n    tag_311:\n        /* \"#utility.yul\":5509:5628   */\n    tag_310:\n        /* \"#utility.yul\":5667:5668   */\n      0x00\n        /* \"#utility.yul\":5692:5745   */\n      tag_312\n        /* \"#utility.yul\":5737:5744   */\n      dup5\n        /* \"#utility.yul\":5728:5734   */\n      dup3\n        /* \"#utility.yul\":5717:5726   */\n      dup6\n        /* \"#utility.yul\":5713:5735   */\n      add\n        /* \"#utility.yul\":5692:5745   */\n      tag_236\n      jump\t// in\n    tag_312:\n        /* \"#utility.yul\":5682:5745   */\n      swap2\n      pop\n        /* \"#utility.yul\":5638:5755   */\n      pop\n        /* \"#utility.yul\":5433:5762   */\n      swap3\n      swap2\n      pop\n      pop\n      jump\t// out\n        /* \"#utility.yul\":5768:6242   */\n    tag_98:\n        /* \"#utility.yul\":5836:5842   */\n      0x00\n        /* \"#utility.yul\":5844:5850   */\n      dup1\n        /* \"#utility.yul\":5893:5895   */\n      0x40\n        /* \"#utility.yul\":5881:5890   */\n      dup4\n        /* \"#utility.yul\":5872:5879   */\n      dup6\n        /* \"#utility.yul\":5868:5891   */\n      sub\n        /* \"#utility.yul\":5864:5896   */\n      slt\n        /* \"#utility.yul\":5861:5980   */\n      iszero\n      tag_314\n      jumpi\n        /* \"#utility.yul\":5899:5978   */\n      tag_315\n      tag_228\n      jump\t// in\n    tag_315:\n        /* \"#utility.yul\":5861:5980   */\n    tag_314:\n        /* \"#utility.yul\":6019:6020   */\n      0x00\n        /* \"#utility.yul\":6044:6097   */\n      tag_316\n        /* \"#utility.yul\":6089:6096   */\n      dup6\n        /* \"#utility.yul\":6080:6086   */\n      dup3\n        /* \"#utility.yul\":6069:6078   */\n      dup7\n        /* \"#utility.yul\":6065:6087   */\n      add\n        /* \"#utility.yul\":6044:6097   */\n      tag_233\n      jump\t// in\n    tag_316:\n        /* \"#utility.yul\":6034:6097   */\n      swap3\n      pop\n        /* \"#utility.yul\":5990:6107   */\n      pop\n        /* \"#utility.yul\":6146:6148   */\n      0x20\n        /* \"#utility.yul\":6172:6225   */\n      tag_317\n        /* \"#utility.yul\":6217:6224   */\n      dup6\n        /* \"#utility.yul\":6208:6214   */\n      dup3\n        /* \"#utility.yul\":6197:6206   */\n      dup7\n        /* \"#utility.yul\":6193:6215   */\n      add\n        /* \"#utility.yul\":6172:6225   */\n      tag_233\n      jump\t// in\n    tag_317:\n        /* \"#utility.yul\":6162:6225   */\n      swap2\n      pop\n        /* \"#utility.yul\":6117:6235   */\n      pop\n        /* \"#utility.yul\":5768:6242   */\n      swap3\n      pop\n      swap3\n      swap1\n      pop\n      jump\t// out\n        /* \"#utility.yul\":6248:6428   */\n    tag_243:\n        /* \"#utility.yul\":6296:6373   */\n      0x4e487b7100000000000000000000000000000000000000000000000000000000\n        /* \"#utility.yul\":6293:6294   */\n      0x00\n        /* \"#utility.yul\":6286:6374   */\n      mstore\n        /* \"#utility.yul\":6393:6397   */\n      0x22\n        /* \"#utility.yul\":6390:6391   */\n      0x04\n        /* \"#utility.yul\":6383:6398   */\n      mstore\n        /* \"#utility.yul\":6417:6421   */\n      0x24\n        /* \"#utility.yul\":6414:6415   */\n      0x00\n        /* \"#utility.yul\":6407:6422   */\n      revert\n        /* \"#utility.yul\":6434:6754   */\n    tag_106:\n        /* \"#utility.yul\":6478:6484   */\n      0x00\n        /* \"#utility.yul\":6515:6516   */\n      0x02\n        /* \"#utility.yul\":6509:6513   */\n      dup3\n        /* \"#utility.yul\":6505:6517   */\n      div\n        /* \"#utility.yul\":6495:6517   */\n      swap1\n      pop\n        /* \"#utility.yul\":6562:6563   */\n      0x01\n        /* \"#utility.yul\":6556:6560   */\n      dup3\n        /* \"#utility.yul\":6552:6564   */\n      and\n        /* \"#utility.yul\":6583:6601   */\n      dup1\n        /* \"#utility.yul\":6573:6654   */\n      tag_320\n      jumpi\n        /* \"#utility.yul\":6639:6643   */\n      0x7f\n        /* \"#utility.yul\":6631:6637   */\n      dup3\n        /* \"#utility.yul\":6627:6644   */\n      and\n        /* \"#utility.yul\":6617:6644   */\n      swap2\n      pop\n        /* \"#utility.yul\":6573:6654   */\n    tag_320:\n        /* \"#utility.yul\":6701:6703   */\n      0x20\n        /* \"#utility.yul\":6693:6699   */\n      dup3\n        /* \"#utility.yul\":6690:6704   */\n      lt\n        /* \"#utility.yul\":6670:6688   */\n      dup2\n        /* \"#utility.yul\":6667:6705   */\n      sub\n        /* \"#utility.yul\":6664:6748   */\n      tag_321\n      jumpi\n        /* \"#utility.yul\":6720:6738   */\n      tag_322\n      tag_243\n      jump\t// in\n    tag_322:\n        /* \"#utility.yul\":6664:6748   */\n    tag_321:\n        /* \"#utility.yul\":6485:6754   */\n      pop\n        /* \"#utility.yul\":6434:6754   */\n      swap2\n      swap1\n      pop\n      jump\t// out\n        /* \"#utility.yul\":6760:6927   */\n    tag_244:\n        /* \"#utility.yul\":6900:6919   */\n      0x546f6b656e7320617265206c6f636b6564000000000000000000000000000000\n        /* \"#utility.yul\":6896:6897   */\n      0x00\n        /* \"#utility.yul\":6888:6894   */\n      dup3\n        /* \"#utility.yul\":6884:6898   */\n      add\n        /* \"#utility.yul\":6877:6920   */\n      mstore\n        /* \"#utility.yul\":6760:6927   */\n      pop\n      jump\t// out\n        /* \"#utility.yul\":6933:7299   */\n    tag_245:\n        /* \"#utility.yul\":7075:7078   */\n      0x00\n        /* \"#utility.yul\":7096:7163   */\n      tag_325\n        /* \"#utility.yul\":7160:7162   */\n      0x11\n        /* \"#utility.yul\":7155:7158   */\n      dup4\n        /* \"#utility.yul\":7096:7163   */\n      tag_223\n      jump\t// in\n    tag_325:\n        /* \"#utility.yul\":7089:7163   */\n      swap2\n      pop\n        /* \"#utility.yul\":7172:7265   */\n      tag_326\n        /* \"#utility.yul\":7261:7264   */\n      dup3\n        /* \"#utility.yul\":7172:7265   */\n      tag_244\n      jump\t// in\n    tag_326:\n        /* \"#utility.yul\":7290:7292   */\n      0x20\n        /* \"#utility.yul\":7285:7288   */\n      dup3\n        /* \"#utility.yul\":7281:7293   */\n      add\n        /* \"#utility.yul\":7274:7293   */\n      swap1\n      pop\n        /* \"#utility.yul\":6933:7299   */\n      swap2\n      swap1\n      pop\n      jump\t// out\n        /* \"#utility.yul\":7305:7724   */\n    tag_124:\n        /* \"#utility.yul\":7471:7475   */\n      0x00\n        /* \"#utility.yul\":7509:7511   */\n      0x20\n        /* \"#utility.yul\":7498:7507   */\n      dup3\n        /* \"#utility.yul\":7494:7512   */\n      add\n        /* \"#utility.yul\":7486:7512   */\n      swap1\n      pop\n        /* \"#utility.yul\":7558:7567   */\n      dup2\n        /* \"#utility.yul\":7552:7556   */\n      dup2\n        /* \"#utility.yul\":7548:7568   */\n      sub\n        /* \"#utility.yul\":7544:7545   */\n      0x00\n        /* \"#utility.yul\":7533:7542   */\n      dup4\n        /* \"#utility.yul\":7529:7546   */\n      add\n        /* \"#utility.yul\":7522:7569   */\n      mstore\n        /* \"#utility.yul\":7586:7717   */\n      tag_328\n        /* \"#utility.yul\":7712:7716   */\n      dup2\n        /* \"#utility.yul\":7586:7717   */\n      tag_245\n      jump\t// in\n    tag_328:\n        /* \"#utility.yul\":7578:7717   */\n      swap1\n      pop\n        /* \"#utility.yul\":7305:7724   */\n      swap2\n      swap1\n      pop\n      jump\t// out\n        /* \"#utility.yul\":7730:8172   */\n    tag_204:\n        /* \"#utility.yul\":7879:7883   */\n      0x00\n        /* \"#utility.yul\":7917:7919   */\n      0x60\n        /* \"#utility.yul\":7906:7915   */\n      dup3\n        /* \"#utility.yul\":7902:7920   */\n      add\n        /* \"#utility.yul\":7894:7920   */\n      swap1\n      pop\n        /* \"#utility.yul\":7930:8001   */\n      tag_330\n        /* \"#utility.yul\":7998:7999   */\n      0x00\n        /* \"#utility.yul\":7987:7996   */\n      dup4\n        /* \"#utility.yul\":7983:8000   */\n      add\n        /* \"#utility.yul\":7974:7980   */\n      dup7\n        /* \"#utility.yul\":7930:8001   */\n      tag_240\n      jump\t// in\n    tag_330:\n        /* \"#utility.yul\":8011:8083   */\n      tag_331\n        /* \"#utility.yul\":8079:8081   */\n      0x20\n        /* \"#utility.yul\":8068:8077   */\n      dup4\n        /* \"#utility.yul\":8064:8082   */\n      add\n        /* \"#utility.yul\":8055:8061   */\n      dup6\n        /* \"#utility.yul\":8011:8083   */\n      tag_239\n      jump\t// in\n    tag_331:\n        /* \"#utility.yul\":8093:8165   */\n      tag_332\n        /* \"#utility.yul\":8161:8163   */\n      0x40\n        /* \"#utility.yul\":8150:8159   */\n      dup4\n        /* \"#utility.yul\":8146:8164   */\n      add\n        /* \"#utility.yul\":8137:8143   */\n      dup5\n        /* \"#utility.yul\":8093:8165   */\n      tag_239\n      jump\t// in\n    tag_332:\n        /* \"#utility.yul\":7730:8172   */\n      swap5\n      swap4\n      pop\n      pop\n      pop\n      pop\n      jump\t// out\n        /* \"#utility.yul\":8178:8358   */\n    tag_246:\n        /* \"#utility.yul\":8226:8303   */\n      0x4e487b7100000000000000000000000000000000000000000000000000000000\n        /* \"#utility.yul\":8223:8224   */\n      0x00\n        /* \"#utility.yul\":8216:8304   */\n      mstore\n        /* \"#utility.yul\":8323:8327   */\n      0x11\n        /* \"#utility.yul\":8320:8321   */\n      0x04\n        /* \"#utility.yul\":8313:8328   */\n      mstore\n        /* \"#utility.yul\":8347:8351   */\n      0x24\n        /* \"#utility.yul\":8344:8345   */\n      0x00\n        /* \"#utility.yul\":8337:8352   */\n      revert\n        /* \"#utility.yul\":8364:8555   */\n    tag_215:\n        /* \"#utility.yul\":8404:8407   */\n      0x00\n        /* \"#utility.yul\":8423:8443   */\n      tag_335\n        /* \"#utility.yul\":8441:8442   */\n      dup3\n        /* \"#utility.yul\":8423:8443   */\n      tag_234\n      jump\t// in\n    tag_335:\n        /* \"#utility.yul\":8418:8443   */\n      swap2\n      pop\n        /* \"#utility.yul\":8457:8477   */\n      tag_336\n        /* \"#utility.yul\":8475:8476   */\n      dup4\n        /* \"#utility.yul\":8457:8477   */\n      tag_234\n      jump\t// in\n    tag_336:\n        /* \"#utility.yul\":8452:8477   */\n      swap3\n      pop\n        /* \"#utility.yul\":8500:8501   */\n      dup3\n        /* \"#utility.yul\":8497:8498   */\n      dup3\n        /* \"#utility.yul\":8493:8502   */\n      add\n        /* \"#utility.yul\":8486:8502   */\n      swap1\n      pop\n        /* \"#utility.yul\":8521:8524   */\n      dup1\n        /* \"#utility.yul\":8518:8519   */\n      dup3\n        /* \"#utility.yul\":8515:8525   */\n      gt\n        /* \"#utility.yul\":8512:8548   */\n      iszero\n      tag_337\n      jumpi\n        /* \"#utility.yul\":8528:8546   */\n      tag_338\n      tag_246\n      jump\t// in\n    tag_338:\n        /* \"#utility.yul\":8512:8548   */\n    tag_337:\n        /* \"#utility.yul\":8364:8555   */\n      swap3\n      swap2\n      pop\n      pop\n      jump\t// out\n\n    auxdata: 0xa2646970667358221220cd062e27254d501db682d580f07091f6d39f2fa3ca55df2b6caada0f6b665a0664736f6c634300081a0033\n}\n",
				"bytecode": {
					"linkReferences": {},
					"object": "608060405234801561000f575f80fd5b506040516123593803806123598339818101604052810190610031919061081e565b866040518060400160405280601e81526020017f496e646570656e64656e74204361706974616c2046756e6420546f6b656e00008152506040518060400160405280600481526020017f494346540000000000000000000000000000000000000000000000000000000081525081600390816100ad9190610aec565b5080600490816100bd9190610aec565b5050505f73ffffffffffffffffffffffffffffffffffffffff168173ffffffffffffffffffffffffffffffffffffffff1603610130575f6040517f1e4fbdf70000000000000000000000000000000000000000000000000000000081526004016101279190610bca565b60405180910390fd5b61013f8161042c60201b60201c565b505f73ffffffffffffffffffffffffffffffffffffffff168773ffffffffffffffffffffffffffffffffffffffff16036101ae576040517f08c379a00000000000000000000000000000000000000000000000000000000081526004016101a590610c3d565b60405180910390fd5b8560065f6101000a81548173ffffffffffffffffffffffffffffffffffffffff021916908373ffffffffffffffffffffffffffffffffffffffff1602179055508460075f6101000a81548173ffffffffffffffffffffffffffffffffffffffff021916908373ffffffffffffffffffffffffffffffffffffffff1602179055508360085f6101000a81548173ffffffffffffffffffffffffffffffffffffffff021916908373ffffffffffffffffffffffffffffffffffffffff1602179055508260095f6101000a81548173ffffffffffffffffffffffffffffffffffffffff021916908373ffffffffffffffffffffffffffffffffffffffff16021790555081600a5f6101000a81548173ffffffffffffffffffffffffffffffffffffffff021916908373ffffffffffffffffffffffffffffffffffffffff1602179055505f6064603c836102fe9190610c88565b6103089190610cf6565b90505f606460148461031a9190610c88565b6103249190610cf6565b90505f6064600a856103369190610c88565b6103409190610cf6565b90505f60646005866103529190610c88565b61035c9190610cf6565b90505f606460058761036e9190610c88565b6103789190610cf6565b905061038a8b866104ef60201b60201c565b61039a8a856104ef60201b60201c565b6103aa89846104ef60201b60201c565b6103ba88836104ef60201b60201c565b6103ca87826104ef60201b60201c565b6301e13380426103da9190610d26565b600b5f8c73ffffffffffffffffffffffffffffffffffffffff1673ffffffffffffffffffffffffffffffffffffffff1681526020019081526020015f2081905550505050505050505050505050610db6565b5f60055f9054906101000a900473ffffffffffffffffffffffffffffffffffffffff1690508160055f6101000a81548173ffffffffffffffffffffffffffffffffffffffff021916908373ffffffffffffffffffffffffffffffffffffffff1602179055508173ffffffffffffffffffffffffffffffffffffffff168173ffffffffffffffffffffffffffffffffffffffff167f8be0079c531659141344cd1fd0a4f28419497f9722a3daafe3b4186f6b6457e060405160405180910390a35050565b5f73ffffffffffffffffffffffffffffffffffffffff168273ffffffffffffffffffffffffffffffffffffffff160361055f575f6040517fec442f050000000000000000000000000000000000000000000000000000000081526004016105569190610bca565b60405180910390fd5b6105705f838361057460201b60201c565b5050565b5f73ffffffffffffffffffffffffffffffffffffffff168373ffffffffffffffffffffffffffffffffffffffff16036105c4578060025f8282546105b89190610d26565b92505081905550610692565b5f805f8573ffffffffffffffffffffffffffffffffffffffff1673ffffffffffffffffffffffffffffffffffffffff1681526020019081526020015f205490508181101561064d578381836040517fe450d38c00000000000000000000000000000000000000000000000000000000815260040161064493929190610d68565b60405180910390fd5b8181035f808673ffffffffffffffffffffffffffffffffffffffff1673ffffffffffffffffffffffffffffffffffffffff1681526020019081526020015f2081905550505b5f73ffffffffffffffffffffffffffffffffffffffff168273ffffffffffffffffffffffffffffffffffffffff16036106d9578060025f8282540392505081905550610723565b805f808473ffffffffffffffffffffffffffffffffffffffff1673ffffffffffffffffffffffffffffffffffffffff1681526020019081526020015f205f82825401925050819055505b8173ffffffffffffffffffffffffffffffffffffffff168373ffffffffffffffffffffffffffffffffffffffff167fddf252ad1be2c89b69c2b068fc378daa952ba7f163c4a11628f55a4df523b3ef836040516107809190610d9d565b60405180910390a3505050565b5f80fd5b5f73ffffffffffffffffffffffffffffffffffffffff82169050919050565b5f6107ba82610791565b9050919050565b6107ca816107b0565b81146107d4575f80fd5b50565b5f815190506107e5816107c1565b92915050565b5f819050919050565b6107fd816107eb565b8114610807575f80fd5b50565b5f81519050610818816107f4565b92915050565b5f805f805f805f60e0888a0312156108395761083861078d565b5b5f6108468a828b016107d7565b97505060206108578a828b016107d7565b96505060406108688a828b016107d7565b95505060606108798a828b016107d7565b945050608061088a8a828b016107d7565b93505060a061089b8a828b016107d7565b92505060c06108ac8a828b0161080a565b91505092959891949750929550565b5f81519050919050565b7f4e487b71000000000000000000000000000000000000000000000000000000005f52604160045260245ffd5b7f4e487b71000000000000000000000000000000000000000000000000000000005f52602260045260245ffd5b5f600282049050600182168061093657607f821691505b602082108103610949576109486108f2565b5b50919050565b5f819050815f5260205f209050919050565b5f6020601f8301049050919050565b5f82821b905092915050565b5f600883026109ab7fffffffffffffffffffffffffffffffffffffffffffffffffffffffffffffffff82610970565b6109b58683610970565b95508019841693508086168417925050509392505050565b5f819050919050565b5f6109f06109eb6109e6846107eb565b6109cd565b6107eb565b9050919050565b5f819050919050565b610a09836109d6565b610a1d610a15826109f7565b84845461097c565b825550505050565b5f90565b610a31610a25565b610a3c818484610a00565b505050565b5b81811015610a5f57610a545f82610a29565b600181019050610a42565b5050565b601f821115610aa457610a758161094f565b610a7e84610961565b81016020851015610a8d578190505b610aa1610a9985610961565b830182610a41565b50505b505050565b5f82821c905092915050565b5f610ac45f1984600802610aa9565b1980831691505092915050565b5f610adc8383610ab5565b9150826002028217905092915050565b610af5826108bb565b67ffffffffffffffff811115610b0e57610b0d6108c5565b5b610b18825461091f565b610b23828285610a63565b5f60209050601f831160018114610b54575f8415610b42578287015190505b610b4c8582610ad1565b865550610bb3565b601f198416610b628661094f565b5f5b82811015610b8957848901518255600182019150602085019450602081019050610b64565b86831015610ba65784890151610ba2601f891682610ab5565b8355505b6001600288020188555050505b505050505050565b610bc4816107b0565b82525050565b5f602082019050610bdd5f830184610bbb565b92915050565b5f82825260208201905092915050565b7f496e76616c6964206f776e6572206164647265737300000000000000000000005f82015250565b5f610c27601583610be3565b9150610c3282610bf3565b602082019050919050565b5f6020820190508181035f830152610c5481610c1b565b9050919050565b7f4e487b71000000000000000000000000000000000000000000000000000000005f52601160045260245ffd5b5f610c92826107eb565b9150610c9d836107eb565b9250828202610cab816107eb565b91508282048414831517610cc257610cc1610c5b565b5b5092915050565b7f4e487b71000000000000000000000000000000000000000000000000000000005f52601260045260245ffd5b5f610d00826107eb565b9150610d0b836107eb565b925082610d1b57610d1a610cc9565b5b828204905092915050565b5f610d30826107eb565b9150610d3b836107eb565b9250828201905080821115610d5357610d52610c5b565b5b92915050565b610d62816107eb565b82525050565b5f606082019050610d7b5f830186610bbb565b610d886020830185610d59565b610d956040830184610d59565b949350505050565b5f602082019050610db05f830184610d59565b92915050565b61159680610dc35f395ff3fe608060405234801561000f575f80fd5b5060043610610135575f3560e01c806342966c68116100b65780638da5cb5b1161007a5780638da5cb5b1461031757806395d89b4114610335578063a9059cbb14610353578063cd3293de14610383578063dd62ed3e146103a1578063f2fde38b146103d157610135565b806342966c681461028557806359d7bd71146102a157806370a08231146102bf578063715018a6146102ef5780638ac27f5f146102f957610135565b806323b872dd116100fd57806323b872dd146101df5780632d3e474a1461020f578063313ce5671461022d5780633829b0dc1461024b57806340c10f191461026957610135565b806306fdde0314610139578063095ea7b31461015757806318160ddd146101875780631f4e1504146101a5578063221322d5146101af575b5f80fd5b6101416103ed565b60405161014e919061117c565b60405180910390f35b610171600480360381019061016c919061122d565b61047d565b60405161017e9190611285565b60405180910390f35b61018f61049f565b60405161019c91906112ad565b60405180910390f35b6101ad6104a8565b005b6101c960048036038101906101c491906112c6565b6104b2565b6040516101d691906112ad565b60405180910390f35b6101f960048036038101906101f491906112f1565b6104c7565b6040516102069190611285565b60405180910390f35b61021761055c565b6040516102249190611350565b60405180910390f35b610235610581565b6040516102429190611384565b60405180910390f35b610253610589565b6040516102609190611350565b60405180910390f35b610283600480360381019061027e919061122d565b6105ae565b005b61029f600480360381019061029a919061139d565b6105c4565b005b6102a96105d9565b6040516102b69190611350565b60405180910390f35b6102d960048036038101906102d491906112c6565b6105fe565b6040516102e691906112ad565b60405180910390f35b6102f7610643565b005b610301610656565b60405161030e9190611350565b60405180910390f35b61031f61067b565b60405161032c9190611350565b60405180910390f35b61033d6106a3565b60405161034a919061117c565b60405180910390f35b61036d6004803603810190610368919061122d565b610733565b60405161037a9190611285565b60405180910390f35b61038b6107c6565b6040516103989190611350565b60405180910390f35b6103bb60048036038101906103b691906113c8565b6107eb565b6040516103c891906112ad565b60405180910390f35b6103eb60048036038101906103e691906112c6565b61086d565b005b6060600380546103fc90611433565b80601f016020809104026020016040519081016040528092919081815260200182805461042890611433565b80156104735780601f1061044a57610100808354040283529160200191610473565b820191905f5260205f20905b81548152906001019060200180831161045657829003601f168201915b5050505050905090565b5f806104876108f1565b90506104948185856108f8565b600191505092915050565b5f600254905090565b6104b061090a565b565b600b602052805f5260405f205f915090505481565b5f600b5f8573ffffffffffffffffffffffffffffffffffffffff1673ffffffffffffffffffffffffffffffffffffffff1681526020019081526020015f2054421015610548576040517f08c379a000000000000000000000000000000000000000000000000000000000815260040161053f906114ad565b60405180910390fd5b610553848484610991565b90509392505050565b60095f9054906101000a900473ffffffffffffffffffffffffffffffffffffffff1681565b5f6012905090565b60075f9054906101000a900473ffffffffffffffffffffffffffffffffffffffff1681565b6105b661090a565b6105c082826109bf565b5050565b6105cc61090a565b6105d63382610a3e565b50565b600a5f9054906101000a900473ffffffffffffffffffffffffffffffffffffffff1681565b5f805f8373ffffffffffffffffffffffffffffffffffffffff1673ffffffffffffffffffffffffffffffffffffffff1681526020019081526020015f20549050919050565b61064b61090a565b6106545f610abd565b565b60065f9054906101000a900473ffffffffffffffffffffffffffffffffffffffff1681565b5f60055f9054906101000a900473ffffffffffffffffffffffffffffffffffffffff16905090565b6060600480546106b290611433565b80601f01602080910402602001604051908101604052809291908181526020018280546106de90611433565b80156107295780601f1061070057610100808354040283529160200191610729565b820191905f5260205f20905b81548152906001019060200180831161070c57829003601f168201915b5050505050905090565b5f600b5f3373ffffffffffffffffffffffffffffffffffffffff1673ffffffffffffffffffffffffffffffffffffffff1681526020019081526020015f20544210156107b4576040517f08c379a00000000000000000000000000000000000000000000000000000000081526004016107ab906114ad565b60405180910390fd5b6107be8383610b80565b905092915050565b60085f9054906101000a900473ffffffffffffffffffffffffffffffffffffffff1681565b5f60015f8473ffffffffffffffffffffffffffffffffffffffff1673ffffffffffffffffffffffffffffffffffffffff1681526020019081526020015f205f8373ffffffffffffffffffffffffffffffffffffffff1673ffffffffffffffffffffffffffffffffffffffff1681526020019081526020015f2054905092915050565b61087561090a565b5f73ffffffffffffffffffffffffffffffffffffffff168173ffffffffffffffffffffffffffffffffffffffff16036108e5575f6040517f1e4fbdf70000000000000000000000000000000000000000000000000000000081526004016108dc9190611350565b60405180910390fd5b6108ee81610abd565b50565b5f33905090565b6109058383836001610ba2565b505050565b6109126108f1565b73ffffffffffffffffffffffffffffffffffffffff1661093061067b565b73ffffffffffffffffffffffffffffffffffffffff161461098f576109536108f1565b6040517f118cdaa70000000000000000000000000000000000000000000000000000000081526004016109869190611350565b60405180910390fd5b565b5f8061099b6108f1565b90506109a8858285610d71565b6109b3858585610e03565b60019150509392505050565b5f73ffffffffffffffffffffffffffffffffffffffff168273ffffffffffffffffffffffffffffffffffffffff1603610a2f575f6040517fec442f05000000000000000000000000000000000000000000000000000000008152600401610a269190611350565b60405180910390fd5b610a3a5f8383610ef3565b5050565b5f73ffffffffffffffffffffffffffffffffffffffff168273ffffffffffffffffffffffffffffffffffffffff1603610aae575f6040517f96c6fd1e000000000000000000000000000000000000000000000000000000008152600401610aa59190611350565b60405180910390fd5b610ab9825f83610ef3565b5050565b5f60055f9054906101000a900473ffffffffffffffffffffffffffffffffffffffff1690508160055f6101000a81548173ffffffffffffffffffffffffffffffffffffffff021916908373ffffffffffffffffffffffffffffffffffffffff1602179055508173ffffffffffffffffffffffffffffffffffffffff168173ffffffffffffffffffffffffffffffffffffffff167f8be0079c531659141344cd1fd0a4f28419497f9722a3daafe3b4186f6b6457e060405160405180910390a35050565b5f80610b8a6108f1565b9050610b97818585610e03565b600191505092915050565b5f73ffffffffffffffffffffffffffffffffffffffff168473ffffffffffffffffffffffffffffffffffffffff1603610c12575f6040517fe602df05000000000000000000000000000000000000000000000000000000008152600401610c099190611350565b60405180910390fd5b5f73ffffffffffffffffffffffffffffffffffffffff168373ffffffffffffffffffffffffffffffffffffffff1603610c82575f6040517f94280d62000000000000000000000000000000000000000000000000000000008152600401610c799190611350565b60405180910390fd5b8160015f8673ffffffffffffffffffffffffffffffffffffffff1673ffffffffffffffffffffffffffffffffffffffff1681526020019081526020015f205f8573ffffffffffffffffffffffffffffffffffffffff1673ffffffffffffffffffffffffffffffffffffffff1681526020019081526020015f20819055508015610d6b578273ffffffffffffffffffffffffffffffffffffffff168473ffffffffffffffffffffffffffffffffffffffff167f8c5be1e5ebec7d5bd14f71427d1e84f3dd0314c0f7b2291e5b200ac8c7c3b92584604051610d6291906112ad565b60405180910390a35b50505050565b5f610d7c84846107eb565b90507fffffffffffffffffffffffffffffffffffffffffffffffffffffffffffffffff8114610dfd5781811015610dee578281836040517ffb8f41b2000000000000000000000000000000000000000000000000000000008152600401610de5939291906114cb565b60405180910390fd5b610dfc84848484035f610ba2565b5b50505050565b5f73ffffffffffffffffffffffffffffffffffffffff168373ffffffffffffffffffffffffffffffffffffffff1603610e73575f6040517f96c6fd1e000000000000000000000000000000000000000000000000000000008152600401610e6a9190611350565b60405180910390fd5b5f73ffffffffffffffffffffffffffffffffffffffff168273ffffffffffffffffffffffffffffffffffffffff1603610ee3575f6040517fec442f05000000000000000000000000000000000000000000000000000000008152600401610eda9190611350565b60405180910390fd5b610eee838383610ef3565b505050565b5f73ffffffffffffffffffffffffffffffffffffffff168373ffffffffffffffffffffffffffffffffffffffff1603610f43578060025f828254610f37919061152d565b92505081905550611011565b5f805f8573ffffffffffffffffffffffffffffffffffffffff1673ffffffffffffffffffffffffffffffffffffffff1681526020019081526020015f2054905081811015610fcc578381836040517fe450d38c000000000000000000000000000000000000000000000000000000008152600401610fc3939291906114cb565b60405180910390fd5b8181035f808673ffffffffffffffffffffffffffffffffffffffff1673ffffffffffffffffffffffffffffffffffffffff1681526020019081526020015f2081905550505b5f73ffffffffffffffffffffffffffffffffffffffff168273ffffffffffffffffffffffffffffffffffffffff1603611058578060025f82825403925050819055506110a2565b805f808473ffffffffffffffffffffffffffffffffffffffff1673ffffffffffffffffffffffffffffffffffffffff1681526020019081526020015f205f82825401925050819055505b8173ffffffffffffffffffffffffffffffffffffffff168373ffffffffffffffffffffffffffffffffffffffff167fddf252ad1be2c89b69c2b068fc378daa952ba7f163c4a11628f55a4df523b3ef836040516110ff91906112ad565b60405180910390a3505050565b5f81519050919050565b5f82825260208201905092915050565b8281835e5f83830152505050565b5f601f19601f8301169050919050565b5f61114e8261110c565b6111588185611116565b9350611168818560208601611126565b61117181611134565b840191505092915050565b5f6020820190508181035f8301526111948184611144565b905092915050565b5f80fd5b5f73ffffffffffffffffffffffffffffffffffffffff82169050919050565b5f6111c9826111a0565b9050919050565b6111d9816111bf565b81146111e3575f80fd5b50565b5f813590506111f4816111d0565b92915050565b5f819050919050565b61120c816111fa565b8114611216575f80fd5b50565b5f8135905061122781611203565b92915050565b5f80604083850312156112435761124261119c565b5b5f611250858286016111e6565b925050602061126185828601611219565b9150509250929050565b5f8115159050919050565b61127f8161126b565b82525050565b5f6020820190506112985f830184611276565b92915050565b6112a7816111fa565b82525050565b5f6020820190506112c05f83018461129e565b92915050565b5f602082840312156112db576112da61119c565b5b5f6112e8848285016111e6565b91505092915050565b5f805f606084860312156113085761130761119c565b5b5f611315868287016111e6565b9350506020611326868287016111e6565b925050604061133786828701611219565b9150509250925092565b61134a816111bf565b82525050565b5f6020820190506113635f830184611341565b92915050565b5f60ff82169050919050565b61137e81611369565b82525050565b5f6020820190506113975f830184611375565b92915050565b5f602082840312156113b2576113b161119c565b5b5f6113bf84828501611219565b91505092915050565b5f80604083850312156113de576113dd61119c565b5b5f6113eb858286016111e6565b92505060206113fc858286016111e6565b9150509250929050565b7f4e487b71000000000000000000000000000000000000000000000000000000005f52602260045260245ffd5b5f600282049050600182168061144a57607f821691505b60208210810361145d5761145c611406565b5b50919050565b7f546f6b656e7320617265206c6f636b65640000000000000000000000000000005f82015250565b5f611497601183611116565b91506114a282611463565b602082019050919050565b5f6020820190508181035f8301526114c48161148b565b9050919050565b5f6060820190506114de5f830186611341565b6114eb602083018561129e565b6114f8604083018461129e565b949350505050565b7f4e487b71000000000000000000000000000000000000000000000000000000005f52601160045260245ffd5b5f611537826111fa565b9150611542836111fa565b925082820190508082111561155a57611559611500565b5b9291505056fea2646970667358221220cd062e27254d501db682d580f07091f6d39f2fa3ca55df2b6caada0f6b665a0664736f6c634300081a0033",
					"opcodes": "PUSH1 0x80 PUSH1 0x40 MSTORE CALLVALUE DUP1 ISZERO PUSH2 0xF JUMPI PUSH0 DUP1 REVERT JUMPDEST POP PUSH1 0x40 MLOAD PUSH2 0x2359 CODESIZE SUB DUP1 PUSH2 0x2359 DUP4 CODECOPY DUP2 DUP2 ADD PUSH1 0x40 MSTORE DUP2 ADD SWAP1 PUSH2 0x31 SWAP2 SWAP1 PUSH2 0x81E JUMP JUMPDEST DUP7 PUSH1 0x40 MLOAD DUP1 PUSH1 0x40 ADD PUSH1 0x40 MSTORE DUP1 PUSH1 0x1E DUP2 MSTORE PUSH1 0x20 ADD PUSH32 0x496E646570656E64656E74204361706974616C2046756E6420546F6B656E0000 DUP2 MSTORE POP PUSH1 0x40 MLOAD DUP1 PUSH1 0x40 ADD PUSH1 0x40 MSTORE DUP1 PUSH1 0x4 DUP2 MSTORE PUSH1 0x20 ADD PUSH32 0x4943465400000000000000000000000000000000000000000000000000000000 DUP2 MSTORE POP DUP2 PUSH1 0x3 SWAP1 DUP2 PUSH2 0xAD SWAP2 SWAP1 PUSH2 0xAEC JUMP JUMPDEST POP DUP1 PUSH1 0x4 SWAP1 DUP2 PUSH2 0xBD SWAP2 SWAP1 PUSH2 0xAEC JUMP JUMPDEST POP POP POP PUSH0 PUSH20 0xFFFFFFFFFFFFFFFFFFFFFFFFFFFFFFFFFFFFFFFF AND DUP2 PUSH20 0xFFFFFFFFFFFFFFFFFFFFFFFFFFFFFFFFFFFFFFFF AND SUB PUSH2 0x130 JUMPI PUSH0 PUSH1 0x40 MLOAD PUSH32 0x1E4FBDF700000000000000000000000000000000000000000000000000000000 DUP2 MSTORE PUSH1 0x4 ADD PUSH2 0x127 SWAP2 SWAP1 PUSH2 0xBCA JUMP JUMPDEST PUSH1 0x40 MLOAD DUP1 SWAP2 SUB SWAP1 REVERT JUMPDEST PUSH2 0x13F DUP2 PUSH2 0x42C PUSH1 0x20 SHL PUSH1 0x20 SHR JUMP JUMPDEST POP PUSH0 PUSH20 0xFFFFFFFFFFFFFFFFFFFFFFFFFFFFFFFFFFFFFFFF AND DUP8 PUSH20 0xFFFFFFFFFFFFFFFFFFFFFFFFFFFFFFFFFFFFFFFF AND SUB PUSH2 0x1AE JUMPI PUSH1 0x40 MLOAD PUSH32 0x8C379A000000000000000000000000000000000000000000000000000000000 DUP2 MSTORE PUSH1 0x4 ADD PUSH2 0x1A5 SWAP1 PUSH2 0xC3D JUMP JUMPDEST PUSH1 0x40 MLOAD DUP1 SWAP2 SUB SWAP1 REVERT JUMPDEST DUP6 PUSH1 0x6 PUSH0 PUSH2 0x100 EXP DUP2 SLOAD DUP2 PUSH20 0xFFFFFFFFFFFFFFFFFFFFFFFFFFFFFFFFFFFFFFFF MUL NOT AND SWAP1 DUP4 PUSH20 0xFFFFFFFFFFFFFFFFFFFFFFFFFFFFFFFFFFFFFFFF AND MUL OR SWAP1 SSTORE POP DUP5 PUSH1 0x7 PUSH0 PUSH2 0x100 EXP DUP2 SLOAD DUP2 PUSH20 0xFFFFFFFFFFFFFFFFFFFFFFFFFFFFFFFFFFFFFFFF MUL NOT AND SWAP1 DUP4 PUSH20 0xFFFFFFFFFFFFFFFFFFFFFFFFFFFFFFFFFFFFFFFF AND MUL OR SWAP1 SSTORE POP DUP4 PUSH1 0x8 PUSH0 PUSH2 0x100 EXP DUP2 SLOAD DUP2 PUSH20 0xFFFFFFFFFFFFFFFFFFFFFFFFFFFFFFFFFFFFFFFF MUL NOT AND SWAP1 DUP4 PUSH20 0xFFFFFFFFFFFFFFFFFFFFFFFFFFFFFFFFFFFFFFFF AND MUL OR SWAP1 SSTORE POP DUP3 PUSH1 0x9 PUSH0 PUSH2 0x100 EXP DUP2 SLOAD DUP2 PUSH20 0xFFFFFFFFFFFFFFFFFFFFFFFFFFFFFFFFFFFFFFFF MUL NOT AND SWAP1 DUP4 PUSH20 0xFFFFFFFFFFFFFFFFFFFFFFFFFFFFFFFFFFFFFFFF AND MUL OR SWAP1 SSTORE POP DUP2 PUSH1 0xA PUSH0 PUSH2 0x100 EXP DUP2 SLOAD DUP2 PUSH20 0xFFFFFFFFFFFFFFFFFFFFFFFFFFFFFFFFFFFFFFFF MUL NOT AND SWAP1 DUP4 PUSH20 0xFFFFFFFFFFFFFFFFFFFFFFFFFFFFFFFFFFFFFFFF AND MUL OR SWAP1 SSTORE POP PUSH0 PUSH1 0x64 PUSH1 0x3C DUP4 PUSH2 0x2FE SWAP2 SWAP1 PUSH2 0xC88 JUMP JUMPDEST PUSH2 0x308 SWAP2 SWAP1 PUSH2 0xCF6 JUMP JUMPDEST SWAP1 POP PUSH0 PUSH1 0x64 PUSH1 0x14 DUP5 PUSH2 0x31A SWAP2 SWAP1 PUSH2 0xC88 JUMP JUMPDEST PUSH2 0x324 SWAP2 SWAP1 PUSH2 0xCF6 JUMP JUMPDEST SWAP1 POP PUSH0 PUSH1 0x64 PUSH1 0xA DUP6 PUSH2 0x336 SWAP2 SWAP1 PUSH2 0xC88 JUMP JUMPDEST PUSH2 0x340 SWAP2 SWAP1 PUSH2 0xCF6 JUMP JUMPDEST SWAP1 POP PUSH0 PUSH1 0x64 PUSH1 0x5 DUP7 PUSH2 0x352 SWAP2 SWAP1 PUSH2 0xC88 JUMP JUMPDEST PUSH2 0x35C SWAP2 SWAP1 PUSH2 0xCF6 JUMP JUMPDEST SWAP1 POP PUSH0 PUSH1 0x64 PUSH1 0x5 DUP8 PUSH2 0x36E SWAP2 SWAP1 PUSH2 0xC88 JUMP JUMPDEST PUSH2 0x378 SWAP2 SWAP1 PUSH2 0xCF6 JUMP JUMPDEST SWAP1 POP PUSH2 0x38A DUP12 DUP7 PUSH2 0x4EF PUSH1 0x20 SHL PUSH1 0x20 SHR JUMP JUMPDEST PUSH2 0x39A DUP11 DUP6 PUSH2 0x4EF PUSH1 0x20 SHL PUSH1 0x20 SHR JUMP JUMPDEST PUSH2 0x3AA DUP10 DUP5 PUSH2 0x4EF PUSH1 0x20 SHL PUSH1 0x20 SHR JUMP JUMPDEST PUSH2 0x3BA DUP9 DUP4 PUSH2 0x4EF PUSH1 0x20 SHL PUSH1 0x20 SHR JUMP JUMPDEST PUSH2 0x3CA DUP8 DUP3 PUSH2 0x4EF PUSH1 0x20 SHL PUSH1 0x20 SHR JUMP JUMPDEST PUSH4 0x1E13380 TIMESTAMP PUSH2 0x3DA SWAP2 SWAP1 PUSH2 0xD26 JUMP JUMPDEST PUSH1 0xB PUSH0 DUP13 PUSH20 0xFFFFFFFFFFFFFFFFFFFFFFFFFFFFFFFFFFFFFFFF AND PUSH20 0xFFFFFFFFFFFFFFFFFFFFFFFFFFFFFFFFFFFFFFFF AND DUP2 MSTORE PUSH1 0x20 ADD SWAP1 DUP2 MSTORE PUSH1 0x20 ADD PUSH0 KECCAK256 DUP2 SWAP1 SSTORE POP POP POP POP POP POP POP POP POP POP POP POP POP PUSH2 0xDB6 JUMP JUMPDEST PUSH0 PUSH1 0x5 PUSH0 SWAP1 SLOAD SWAP1 PUSH2 0x100 EXP SWAP1 DIV PUSH20 0xFFFFFFFFFFFFFFFFFFFFFFFFFFFFFFFFFFFFFFFF AND SWAP1 POP DUP2 PUSH1 0x5 PUSH0 PUSH2 0x100 EXP DUP2 SLOAD DUP2 PUSH20 0xFFFFFFFFFFFFFFFFFFFFFFFFFFFFFFFFFFFFFFFF MUL NOT AND SWAP1 DUP4 PUSH20 0xFFFFFFFFFFFFFFFFFFFFFFFFFFFFFFFFFFFFFFFF AND MUL OR SWAP1 SSTORE POP DUP2 PUSH20 0xFFFFFFFFFFFFFFFFFFFFFFFFFFFFFFFFFFFFFFFF AND DUP2 PUSH20 0xFFFFFFFFFFFFFFFFFFFFFFFFFFFFFFFFFFFFFFFF AND PUSH32 0x8BE0079C531659141344CD1FD0A4F28419497F9722A3DAAFE3B4186F6B6457E0 PUSH1 0x40 MLOAD PUSH1 0x40 MLOAD DUP1 SWAP2 SUB SWAP1 LOG3 POP POP JUMP JUMPDEST PUSH0 PUSH20 0xFFFFFFFFFFFFFFFFFFFFFFFFFFFFFFFFFFFFFFFF AND DUP3 PUSH20 0xFFFFFFFFFFFFFFFFFFFFFFFFFFFFFFFFFFFFFFFF AND SUB PUSH2 0x55F JUMPI PUSH0 PUSH1 0x40 MLOAD PUSH32 0xEC442F0500000000000000000000000000000000000000000000000000000000 DUP2 MSTORE PUSH1 0x4 ADD PUSH2 0x556 SWAP2 SWAP1 PUSH2 0xBCA JUMP JUMPDEST PUSH1 0x40 MLOAD DUP1 SWAP2 SUB SWAP1 REVERT JUMPDEST PUSH2 0x570 PUSH0 DUP4 DUP4 PUSH2 0x574 PUSH1 0x20 SHL PUSH1 0x20 SHR JUMP JUMPDEST POP POP JUMP JUMPDEST PUSH0 PUSH20 0xFFFFFFFFFFFFFFFFFFFFFFFFFFFFFFFFFFFFFFFF AND DUP4 PUSH20 0xFFFFFFFFFFFFFFFFFFFFFFFFFFFFFFFFFFFFFFFF AND SUB PUSH2 0x5C4 JUMPI DUP1 PUSH1 0x2 PUSH0 DUP3 DUP3 SLOAD PUSH2 0x5B8 SWAP2 SWAP1 PUSH2 0xD26 JUMP JUMPDEST SWAP3 POP POP DUP2 SWAP1 SSTORE POP PUSH2 0x692 JUMP JUMPDEST PUSH0 DUP1 PUSH0 DUP6 PUSH20 0xFFFFFFFFFFFFFFFFFFFFFFFFFFFFFFFFFFFFFFFF AND PUSH20 0xFFFFFFFFFFFFFFFFFFFFFFFFFFFFFFFFFFFFFFFF AND DUP2 MSTORE PUSH1 0x20 ADD SWAP1 DUP2 MSTORE PUSH1 0x20 ADD PUSH0 KECCAK256 SLOAD SWAP1 POP DUP2 DUP2 LT ISZERO PUSH2 0x64D JUMPI DUP4 DUP2 DUP4 PUSH1 0x40 MLOAD PUSH32 0xE450D38C00000000000000000000000000000000000000000000000000000000 DUP2 MSTORE PUSH1 0x4 ADD PUSH2 0x644 SWAP4 SWAP3 SWAP2 SWAP1 PUSH2 0xD68 JUMP JUMPDEST PUSH1 0x40 MLOAD DUP1 SWAP2 SUB SWAP1 REVERT JUMPDEST DUP2 DUP2 SUB PUSH0 DUP1 DUP7 PUSH20 0xFFFFFFFFFFFFFFFFFFFFFFFFFFFFFFFFFFFFFFFF AND PUSH20 0xFFFFFFFFFFFFFFFFFFFFFFFFFFFFFFFFFFFFFFFF AND DUP2 MSTORE PUSH1 0x20 ADD SWAP1 DUP2 MSTORE PUSH1 0x20 ADD PUSH0 KECCAK256 DUP2 SWAP1 SSTORE POP POP JUMPDEST PUSH0 PUSH20 0xFFFFFFFFFFFFFFFFFFFFFFFFFFFFFFFFFFFFFFFF AND DUP3 PUSH20 0xFFFFFFFFFFFFFFFFFFFFFFFFFFFFFFFFFFFFFFFF AND SUB PUSH2 0x6D9 JUMPI DUP1 PUSH1 0x2 PUSH0 DUP3 DUP3 SLOAD SUB SWAP3 POP POP DUP2 SWAP1 SSTORE POP PUSH2 0x723 JUMP JUMPDEST DUP1 PUSH0 DUP1 DUP5 PUSH20 0xFFFFFFFFFFFFFFFFFFFFFFFFFFFFFFFFFFFFFFFF AND PUSH20 0xFFFFFFFFFFFFFFFFFFFFFFFFFFFFFFFFFFFFFFFF AND DUP2 MSTORE PUSH1 0x20 ADD SWAP1 DUP2 MSTORE PUSH1 0x20 ADD PUSH0 KECCAK256 PUSH0 DUP3 DUP3 SLOAD ADD SWAP3 POP POP DUP2 SWAP1 SSTORE POP JUMPDEST DUP2 PUSH20 0xFFFFFFFFFFFFFFFFFFFFFFFFFFFFFFFFFFFFFFFF AND DUP4 PUSH20 0xFFFFFFFFFFFFFFFFFFFFFFFFFFFFFFFFFFFFFFFF AND PUSH32 0xDDF252AD1BE2C89B69C2B068FC378DAA952BA7F163C4A11628F55A4DF523B3EF DUP4 PUSH1 0x40 MLOAD PUSH2 0x780 SWAP2 SWAP1 PUSH2 0xD9D JUMP JUMPDEST PUSH1 0x40 MLOAD DUP1 SWAP2 SUB SWAP1 LOG3 POP POP POP JUMP JUMPDEST PUSH0 DUP1 REVERT JUMPDEST PUSH0 PUSH20 0xFFFFFFFFFFFFFFFFFFFFFFFFFFFFFFFFFFFFFFFF DUP3 AND SWAP1 POP SWAP2 SWAP1 POP JUMP JUMPDEST PUSH0 PUSH2 0x7BA DUP3 PUSH2 0x791 JUMP JUMPDEST SWAP1 POP SWAP2 SWAP1 POP JUMP JUMPDEST PUSH2 0x7CA DUP2 PUSH2 0x7B0 JUMP JUMPDEST DUP2 EQ PUSH2 0x7D4 JUMPI PUSH0 DUP1 REVERT JUMPDEST POP JUMP JUMPDEST PUSH0 DUP2 MLOAD SWAP1 POP PUSH2 0x7E5 DUP2 PUSH2 0x7C1 JUMP JUMPDEST SWAP3 SWAP2 POP POP JUMP JUMPDEST PUSH0 DUP2 SWAP1 POP SWAP2 SWAP1 POP JUMP JUMPDEST PUSH2 0x7FD DUP2 PUSH2 0x7EB JUMP JUMPDEST DUP2 EQ PUSH2 0x807 JUMPI PUSH0 DUP1 REVERT JUMPDEST POP JUMP JUMPDEST PUSH0 DUP2 MLOAD SWAP1 POP PUSH2 0x818 DUP2 PUSH2 0x7F4 JUMP JUMPDEST SWAP3 SWAP2 POP POP JUMP JUMPDEST PUSH0 DUP1 PUSH0 DUP1 PUSH0 DUP1 PUSH0 PUSH1 0xE0 DUP9 DUP11 SUB SLT ISZERO PUSH2 0x839 JUMPI PUSH2 0x838 PUSH2 0x78D JUMP JUMPDEST JUMPDEST PUSH0 PUSH2 0x846 DUP11 DUP3 DUP12 ADD PUSH2 0x7D7 JUMP JUMPDEST SWAP8 POP POP PUSH1 0x20 PUSH2 0x857 DUP11 DUP3 DUP12 ADD PUSH2 0x7D7 JUMP JUMPDEST SWAP7 POP POP PUSH1 0x40 PUSH2 0x868 DUP11 DUP3 DUP12 ADD PUSH2 0x7D7 JUMP JUMPDEST SWAP6 POP POP PUSH1 0x60 PUSH2 0x879 DUP11 DUP3 DUP12 ADD PUSH2 0x7D7 JUMP JUMPDEST SWAP5 POP POP PUSH1 0x80 PUSH2 0x88A DUP11 DUP3 DUP12 ADD PUSH2 0x7D7 JUMP JUMPDEST SWAP4 POP POP PUSH1 0xA0 PUSH2 0x89B DUP11 DUP3 DUP12 ADD PUSH2 0x7D7 JUMP JUMPDEST SWAP3 POP POP PUSH1 0xC0 PUSH2 0x8AC DUP11 DUP3 DUP12 ADD PUSH2 0x80A JUMP JUMPDEST SWAP2 POP POP SWAP3 SWAP6 SWAP9 SWAP2 SWAP5 SWAP8 POP SWAP3 SWAP6 POP JUMP JUMPDEST PUSH0 DUP2 MLOAD SWAP1 POP SWAP2 SWAP1 POP JUMP JUMPDEST PUSH32 0x4E487B7100000000000000000000000000000000000000000000000000000000 PUSH0 MSTORE PUSH1 0x41 PUSH1 0x4 MSTORE PUSH1 0x24 PUSH0 REVERT JUMPDEST PUSH32 0x4E487B7100000000000000000000000000000000000000000000000000000000 PUSH0 MSTORE PUSH1 0x22 PUSH1 0x4 MSTORE PUSH1 0x24 PUSH0 REVERT JUMPDEST PUSH0 PUSH1 0x2 DUP3 DIV SWAP1 POP PUSH1 0x1 DUP3 AND DUP1 PUSH2 0x936 JUMPI PUSH1 0x7F DUP3 AND SWAP2 POP JUMPDEST PUSH1 0x20 DUP3 LT DUP2 SUB PUSH2 0x949 JUMPI PUSH2 0x948 PUSH2 0x8F2 JUMP JUMPDEST JUMPDEST POP SWAP2 SWAP1 POP JUMP JUMPDEST PUSH0 DUP2 SWAP1 POP DUP2 PUSH0 MSTORE PUSH1 0x20 PUSH0 KECCAK256 SWAP1 POP SWAP2 SWAP1 POP JUMP JUMPDEST PUSH0 PUSH1 0x20 PUSH1 0x1F DUP4 ADD DIV SWAP1 POP SWAP2 SWAP1 POP JUMP JUMPDEST PUSH0 DUP3 DUP3 SHL SWAP1 POP SWAP3 SWAP2 POP POP JUMP JUMPDEST PUSH0 PUSH1 0x8 DUP4 MUL PUSH2 0x9AB PUSH32 0xFFFFFFFFFFFFFFFFFFFFFFFFFFFFFFFFFFFFFFFFFFFFFFFFFFFFFFFFFFFFFFFF DUP3 PUSH2 0x970 JUMP JUMPDEST PUSH2 0x9B5 DUP7 DUP4 PUSH2 0x970 JUMP JUMPDEST SWAP6 POP DUP1 NOT DUP5 AND SWAP4 POP DUP1 DUP7 AND DUP5 OR SWAP3 POP POP POP SWAP4 SWAP3 POP POP POP JUMP JUMPDEST PUSH0 DUP2 SWAP1 POP SWAP2 SWAP1 POP JUMP JUMPDEST PUSH0 PUSH2 0x9F0 PUSH2 0x9EB PUSH2 0x9E6 DUP5 PUSH2 0x7EB JUMP JUMPDEST PUSH2 0x9CD JUMP JUMPDEST PUSH2 0x7EB JUMP JUMPDEST SWAP1 POP SWAP2 SWAP1 POP JUMP JUMPDEST PUSH0 DUP2 SWAP1 POP SWAP2 SWAP1 POP JUMP JUMPDEST PUSH2 0xA09 DUP4 PUSH2 0x9D6 JUMP JUMPDEST PUSH2 0xA1D PUSH2 0xA15 DUP3 PUSH2 0x9F7 JUMP JUMPDEST DUP5 DUP5 SLOAD PUSH2 0x97C JUMP JUMPDEST DUP3 SSTORE POP POP POP POP JUMP JUMPDEST PUSH0 SWAP1 JUMP JUMPDEST PUSH2 0xA31 PUSH2 0xA25 JUMP JUMPDEST PUSH2 0xA3C DUP2 DUP5 DUP5 PUSH2 0xA00 JUMP JUMPDEST POP POP POP JUMP JUMPDEST JUMPDEST DUP2 DUP2 LT ISZERO PUSH2 0xA5F JUMPI PUSH2 0xA54 PUSH0 DUP3 PUSH2 0xA29 JUMP JUMPDEST PUSH1 0x1 DUP2 ADD SWAP1 POP PUSH2 0xA42 JUMP JUMPDEST POP POP JUMP JUMPDEST PUSH1 0x1F DUP3 GT ISZERO PUSH2 0xAA4 JUMPI PUSH2 0xA75 DUP2 PUSH2 0x94F JUMP JUMPDEST PUSH2 0xA7E DUP5 PUSH2 0x961 JUMP JUMPDEST DUP2 ADD PUSH1 0x20 DUP6 LT ISZERO PUSH2 0xA8D JUMPI DUP2 SWAP1 POP JUMPDEST PUSH2 0xAA1 PUSH2 0xA99 DUP6 PUSH2 0x961 JUMP JUMPDEST DUP4 ADD DUP3 PUSH2 0xA41 JUMP JUMPDEST POP POP JUMPDEST POP POP POP JUMP JUMPDEST PUSH0 DUP3 DUP3 SHR SWAP1 POP SWAP3 SWAP2 POP POP JUMP JUMPDEST PUSH0 PUSH2 0xAC4 PUSH0 NOT DUP5 PUSH1 0x8 MUL PUSH2 0xAA9 JUMP JUMPDEST NOT DUP1 DUP4 AND SWAP2 POP POP SWAP3 SWAP2 POP POP JUMP JUMPDEST PUSH0 PUSH2 0xADC DUP4 DUP4 PUSH2 0xAB5 JUMP JUMPDEST SWAP2 POP DUP3 PUSH1 0x2 MUL DUP3 OR SWAP1 POP SWAP3 SWAP2 POP POP JUMP JUMPDEST PUSH2 0xAF5 DUP3 PUSH2 0x8BB JUMP JUMPDEST PUSH8 0xFFFFFFFFFFFFFFFF DUP2 GT ISZERO PUSH2 0xB0E JUMPI PUSH2 0xB0D PUSH2 0x8C5 JUMP JUMPDEST JUMPDEST PUSH2 0xB18 DUP3 SLOAD PUSH2 0x91F JUMP JUMPDEST PUSH2 0xB23 DUP3 DUP3 DUP6 PUSH2 0xA63 JUMP JUMPDEST PUSH0 PUSH1 0x20 SWAP1 POP PUSH1 0x1F DUP4 GT PUSH1 0x1 DUP2 EQ PUSH2 0xB54 JUMPI PUSH0 DUP5 ISZERO PUSH2 0xB42 JUMPI DUP3 DUP8 ADD MLOAD SWAP1 POP JUMPDEST PUSH2 0xB4C DUP6 DUP3 PUSH2 0xAD1 JUMP JUMPDEST DUP7 SSTORE POP PUSH2 0xBB3 JUMP JUMPDEST PUSH1 0x1F NOT DUP5 AND PUSH2 0xB62 DUP7 PUSH2 0x94F JUMP JUMPDEST PUSH0 JUMPDEST DUP3 DUP2 LT ISZERO PUSH2 0xB89 JUMPI DUP5 DUP10 ADD MLOAD DUP3 SSTORE PUSH1 0x1 DUP3 ADD SWAP2 POP PUSH1 0x20 DUP6 ADD SWAP5 POP PUSH1 0x20 DUP2 ADD SWAP1 POP PUSH2 0xB64 JUMP JUMPDEST DUP7 DUP4 LT ISZERO PUSH2 0xBA6 JUMPI DUP5 DUP10 ADD MLOAD PUSH2 0xBA2 PUSH1 0x1F DUP10 AND DUP3 PUSH2 0xAB5 JUMP JUMPDEST DUP4 SSTORE POP JUMPDEST PUSH1 0x1 PUSH1 0x2 DUP9 MUL ADD DUP9 SSTORE POP POP POP JUMPDEST POP POP POP POP POP POP JUMP JUMPDEST PUSH2 0xBC4 DUP2 PUSH2 0x7B0 JUMP JUMPDEST DUP3 MSTORE POP POP JUMP JUMPDEST PUSH0 PUSH1 0x20 DUP3 ADD SWAP1 POP PUSH2 0xBDD PUSH0 DUP4 ADD DUP5 PUSH2 0xBBB JUMP JUMPDEST SWAP3 SWAP2 POP POP JUMP JUMPDEST PUSH0 DUP3 DUP3 MSTORE PUSH1 0x20 DUP3 ADD SWAP1 POP SWAP3 SWAP2 POP POP JUMP JUMPDEST PUSH32 0x496E76616C6964206F776E657220616464726573730000000000000000000000 PUSH0 DUP3 ADD MSTORE POP JUMP JUMPDEST PUSH0 PUSH2 0xC27 PUSH1 0x15 DUP4 PUSH2 0xBE3 JUMP JUMPDEST SWAP2 POP PUSH2 0xC32 DUP3 PUSH2 0xBF3 JUMP JUMPDEST PUSH1 0x20 DUP3 ADD SWAP1 POP SWAP2 SWAP1 POP JUMP JUMPDEST PUSH0 PUSH1 0x20 DUP3 ADD SWAP1 POP DUP2 DUP2 SUB PUSH0 DUP4 ADD MSTORE PUSH2 0xC54 DUP2 PUSH2 0xC1B JUMP JUMPDEST SWAP1 POP SWAP2 SWAP1 POP JUMP JUMPDEST PUSH32 0x4E487B7100000000000000000000000000000000000000000000000000000000 PUSH0 MSTORE PUSH1 0x11 PUSH1 0x4 MSTORE PUSH1 0x24 PUSH0 REVERT JUMPDEST PUSH0 PUSH2 0xC92 DUP3 PUSH2 0x7EB JUMP JUMPDEST SWAP2 POP PUSH2 0xC9D DUP4 PUSH2 0x7EB JUMP JUMPDEST SWAP3 POP DUP3 DUP3 MUL PUSH2 0xCAB DUP2 PUSH2 0x7EB JUMP JUMPDEST SWAP2 POP DUP3 DUP3 DIV DUP5 EQ DUP4 ISZERO OR PUSH2 0xCC2 JUMPI PUSH2 0xCC1 PUSH2 0xC5B JUMP JUMPDEST JUMPDEST POP SWAP3 SWAP2 POP POP JUMP JUMPDEST PUSH32 0x4E487B7100000000000000000000000000000000000000000000000000000000 PUSH0 MSTORE PUSH1 0x12 PUSH1 0x4 MSTORE PUSH1 0x24 PUSH0 REVERT JUMPDEST PUSH0 PUSH2 0xD00 DUP3 PUSH2 0x7EB JUMP JUMPDEST SWAP2 POP PUSH2 0xD0B DUP4 PUSH2 0x7EB JUMP JUMPDEST SWAP3 POP DUP3 PUSH2 0xD1B JUMPI PUSH2 0xD1A PUSH2 0xCC9 JUMP JUMPDEST JUMPDEST DUP3 DUP3 DIV SWAP1 POP SWAP3 SWAP2 POP POP JUMP JUMPDEST PUSH0 PUSH2 0xD30 DUP3 PUSH2 0x7EB JUMP JUMPDEST SWAP2 POP PUSH2 0xD3B DUP4 PUSH2 0x7EB JUMP JUMPDEST SWAP3 POP DUP3 DUP3 ADD SWAP1 POP DUP1 DUP3 GT ISZERO PUSH2 0xD53 JUMPI PUSH2 0xD52 PUSH2 0xC5B JUMP JUMPDEST JUMPDEST SWAP3 SWAP2 POP POP JUMP JUMPDEST PUSH2 0xD62 DUP2 PUSH2 0x7EB JUMP JUMPDEST DUP3 MSTORE POP POP JUMP JUMPDEST PUSH0 PUSH1 0x60 DUP3 ADD SWAP1 POP PUSH2 0xD7B PUSH0 DUP4 ADD DUP7 PUSH2 0xBBB JUMP JUMPDEST PUSH2 0xD88 PUSH1 0x20 DUP4 ADD DUP6 PUSH2 0xD59 JUMP JUMPDEST PUSH2 0xD95 PUSH1 0x40 DUP4 ADD DUP5 PUSH2 0xD59 JUMP JUMPDEST SWAP5 SWAP4 POP POP POP POP JUMP JUMPDEST PUSH0 PUSH1 0x20 DUP3 ADD SWAP1 POP PUSH2 0xDB0 PUSH0 DUP4 ADD DUP5 PUSH2 0xD59 JUMP JUMPDEST SWAP3 SWAP2 POP POP JUMP JUMPDEST PUSH2 0x1596 DUP1 PUSH2 0xDC3 PUSH0 CODECOPY PUSH0 RETURN INVALID PUSH1 0x80 PUSH1 0x40 MSTORE CALLVALUE DUP1 ISZERO PUSH2 0xF JUMPI PUSH0 DUP1 REVERT JUMPDEST POP PUSH1 0x4 CALLDATASIZE LT PUSH2 0x135 JUMPI PUSH0 CALLDATALOAD PUSH1 0xE0 SHR DUP1 PUSH4 0x42966C68 GT PUSH2 0xB6 JUMPI DUP1 PUSH4 0x8DA5CB5B GT PUSH2 0x7A JUMPI DUP1 PUSH4 0x8DA5CB5B EQ PUSH2 0x317 JUMPI DUP1 PUSH4 0x95D89B41 EQ PUSH2 0x335 JUMPI DUP1 PUSH4 0xA9059CBB EQ PUSH2 0x353 JUMPI DUP1 PUSH4 0xCD3293DE EQ PUSH2 0x383 JUMPI DUP1 PUSH4 0xDD62ED3E EQ PUSH2 0x3A1 JUMPI DUP1 PUSH4 0xF2FDE38B EQ PUSH2 0x3D1 JUMPI PUSH2 0x135 JUMP JUMPDEST DUP1 PUSH4 0x42966C68 EQ PUSH2 0x285 JUMPI DUP1 PUSH4 0x59D7BD71 EQ PUSH2 0x2A1 JUMPI DUP1 PUSH4 0x70A08231 EQ PUSH2 0x2BF JUMPI DUP1 PUSH4 0x715018A6 EQ PUSH2 0x2EF JUMPI DUP1 PUSH4 0x8AC27F5F EQ PUSH2 0x2F9 JUMPI PUSH2 0x135 JUMP JUMPDEST DUP1 PUSH4 0x23B872DD GT PUSH2 0xFD JUMPI DUP1 PUSH4 0x23B872DD EQ PUSH2 0x1DF JUMPI DUP1 PUSH4 0x2D3E474A EQ PUSH2 0x20F JUMPI DUP1 PUSH4 0x313CE567 EQ PUSH2 0x22D JUMPI DUP1 PUSH4 0x3829B0DC EQ PUSH2 0x24B JUMPI DUP1 PUSH4 0x40C10F19 EQ PUSH2 0x269 JUMPI PUSH2 0x135 JUMP JUMPDEST DUP1 PUSH4 0x6FDDE03 EQ PUSH2 0x139 JUMPI DUP1 PUSH4 0x95EA7B3 EQ PUSH2 0x157 JUMPI DUP1 PUSH4 0x18160DDD EQ PUSH2 0x187 JUMPI DUP1 PUSH4 0x1F4E1504 EQ PUSH2 0x1A5 JUMPI DUP1 PUSH4 0x221322D5 EQ PUSH2 0x1AF JUMPI JUMPDEST PUSH0 DUP1 REVERT JUMPDEST PUSH2 0x141 PUSH2 0x3ED JUMP JUMPDEST PUSH1 0x40 MLOAD PUSH2 0x14E SWAP2 SWAP1 PUSH2 0x117C JUMP JUMPDEST PUSH1 0x40 MLOAD DUP1 SWAP2 SUB SWAP1 RETURN JUMPDEST PUSH2 0x171 PUSH1 0x4 DUP1 CALLDATASIZE SUB DUP2 ADD SWAP1 PUSH2 0x16C SWAP2 SWAP1 PUSH2 0x122D JUMP JUMPDEST PUSH2 0x47D JUMP JUMPDEST PUSH1 0x40 MLOAD PUSH2 0x17E SWAP2 SWAP1 PUSH2 0x1285 JUMP JUMPDEST PUSH1 0x40 MLOAD DUP1 SWAP2 SUB SWAP1 RETURN JUMPDEST PUSH2 0x18F PUSH2 0x49F JUMP JUMPDEST PUSH1 0x40 MLOAD PUSH2 0x19C SWAP2 SWAP1 PUSH2 0x12AD JUMP JUMPDEST PUSH1 0x40 MLOAD DUP1 SWAP2 SUB SWAP1 RETURN JUMPDEST PUSH2 0x1AD PUSH2 0x4A8 JUMP JUMPDEST STOP JUMPDEST PUSH2 0x1C9 PUSH1 0x4 DUP1 CALLDATASIZE SUB DUP2 ADD SWAP1 PUSH2 0x1C4 SWAP2 SWAP1 PUSH2 0x12C6 JUMP JUMPDEST PUSH2 0x4B2 JUMP JUMPDEST PUSH1 0x40 MLOAD PUSH2 0x1D6 SWAP2 SWAP1 PUSH2 0x12AD JUMP JUMPDEST PUSH1 0x40 MLOAD DUP1 SWAP2 SUB SWAP1 RETURN JUMPDEST PUSH2 0x1F9 PUSH1 0x4 DUP1 CALLDATASIZE SUB DUP2 ADD SWAP1 PUSH2 0x1F4 SWAP2 SWAP1 PUSH2 0x12F1 JUMP JUMPDEST PUSH2 0x4C7 JUMP JUMPDEST PUSH1 0x40 MLOAD PUSH2 0x206 SWAP2 SWAP1 PUSH2 0x1285 JUMP JUMPDEST PUSH1 0x40 MLOAD DUP1 SWAP2 SUB SWAP1 RETURN JUMPDEST PUSH2 0x217 PUSH2 0x55C JUMP JUMPDEST PUSH1 0x40 MLOAD PUSH2 0x224 SWAP2 SWAP1 PUSH2 0x1350 JUMP JUMPDEST PUSH1 0x40 MLOAD DUP1 SWAP2 SUB SWAP1 RETURN JUMPDEST PUSH2 0x235 PUSH2 0x581 JUMP JUMPDEST PUSH1 0x40 MLOAD PUSH2 0x242 SWAP2 SWAP1 PUSH2 0x1384 JUMP JUMPDEST PUSH1 0x40 MLOAD DUP1 SWAP2 SUB SWAP1 RETURN JUMPDEST PUSH2 0x253 PUSH2 0x589 JUMP JUMPDEST PUSH1 0x40 MLOAD PUSH2 0x260 SWAP2 SWAP1 PUSH2 0x1350 JUMP JUMPDEST PUSH1 0x40 MLOAD DUP1 SWAP2 SUB SWAP1 RETURN JUMPDEST PUSH2 0x283 PUSH1 0x4 DUP1 CALLDATASIZE SUB DUP2 ADD SWAP1 PUSH2 0x27E SWAP2 SWAP1 PUSH2 0x122D JUMP JUMPDEST PUSH2 0x5AE JUMP JUMPDEST STOP JUMPDEST PUSH2 0x29F PUSH1 0x4 DUP1 CALLDATASIZE SUB DUP2 ADD SWAP1 PUSH2 0x29A SWAP2 SWAP1 PUSH2 0x139D JUMP JUMPDEST PUSH2 0x5C4 JUMP JUMPDEST STOP JUMPDEST PUSH2 0x2A9 PUSH2 0x5D9 JUMP JUMPDEST PUSH1 0x40 MLOAD PUSH2 0x2B6 SWAP2 SWAP1 PUSH2 0x1350 JUMP JUMPDEST PUSH1 0x40 MLOAD DUP1 SWAP2 SUB SWAP1 RETURN JUMPDEST PUSH2 0x2D9 PUSH1 0x4 DUP1 CALLDATASIZE SUB DUP2 ADD SWAP1 PUSH2 0x2D4 SWAP2 SWAP1 PUSH2 0x12C6 JUMP JUMPDEST PUSH2 0x5FE JUMP JUMPDEST PUSH1 0x40 MLOAD PUSH2 0x2E6 SWAP2 SWAP1 PUSH2 0x12AD JUMP JUMPDEST PUSH1 0x40 MLOAD DUP1 SWAP2 SUB SWAP1 RETURN JUMPDEST PUSH2 0x2F7 PUSH2 0x643 JUMP JUMPDEST STOP JUMPDEST PUSH2 0x301 PUSH2 0x656 JUMP JUMPDEST PUSH1 0x40 MLOAD PUSH2 0x30E SWAP2 SWAP1 PUSH2 0x1350 JUMP JUMPDEST PUSH1 0x40 MLOAD DUP1 SWAP2 SUB SWAP1 RETURN JUMPDEST PUSH2 0x31F PUSH2 0x67B JUMP JUMPDEST PUSH1 0x40 MLOAD PUSH2 0x32C SWAP2 SWAP1 PUSH2 0x1350 JUMP JUMPDEST PUSH1 0x40 MLOAD DUP1 SWAP2 SUB SWAP1 RETURN JUMPDEST PUSH2 0x33D PUSH2 0x6A3 JUMP JUMPDEST PUSH1 0x40 MLOAD PUSH2 0x34A SWAP2 SWAP1 PUSH2 0x117C JUMP JUMPDEST PUSH1 0x40 MLOAD DUP1 SWAP2 SUB SWAP1 RETURN JUMPDEST PUSH2 0x36D PUSH1 0x4 DUP1 CALLDATASIZE SUB DUP2 ADD SWAP1 PUSH2 0x368 SWAP2 SWAP1 PUSH2 0x122D JUMP JUMPDEST PUSH2 0x733 JUMP JUMPDEST PUSH1 0x40 MLOAD PUSH2 0x37A SWAP2 SWAP1 PUSH2 0x1285 JUMP JUMPDEST PUSH1 0x40 MLOAD DUP1 SWAP2 SUB SWAP1 RETURN JUMPDEST PUSH2 0x38B PUSH2 0x7C6 JUMP JUMPDEST PUSH1 0x40 MLOAD PUSH2 0x398 SWAP2 SWAP1 PUSH2 0x1350 JUMP JUMPDEST PUSH1 0x40 MLOAD DUP1 SWAP2 SUB SWAP1 RETURN JUMPDEST PUSH2 0x3BB PUSH1 0x4 DUP1 CALLDATASIZE SUB DUP2 ADD SWAP1 PUSH2 0x3B6 SWAP2 SWAP1 PUSH2 0x13C8 JUMP JUMPDEST PUSH2 0x7EB JUMP JUMPDEST PUSH1 0x40 MLOAD PUSH2 0x3C8 SWAP2 SWAP1 PUSH2 0x12AD JUMP JUMPDEST PUSH1 0x40 MLOAD DUP1 SWAP2 SUB SWAP1 RETURN JUMPDEST PUSH2 0x3EB PUSH1 0x4 DUP1 CALLDATASIZE SUB DUP2 ADD SWAP1 PUSH2 0x3E6 SWAP2 SWAP1 PUSH2 0x12C6 JUMP JUMPDEST PUSH2 0x86D JUMP JUMPDEST STOP JUMPDEST PUSH1 0x60 PUSH1 0x3 DUP1 SLOAD PUSH2 0x3FC SWAP1 PUSH2 0x1433 JUMP JUMPDEST DUP1 PUSH1 0x1F ADD PUSH1 0x20 DUP1 SWAP2 DIV MUL PUSH1 0x20 ADD PUSH1 0x40 MLOAD SWAP1 DUP2 ADD PUSH1 0x40 MSTORE DUP1 SWAP3 SWAP2 SWAP1 DUP2 DUP2 MSTORE PUSH1 0x20 ADD DUP3 DUP1 SLOAD PUSH2 0x428 SWAP1 PUSH2 0x1433 JUMP JUMPDEST DUP1 ISZERO PUSH2 0x473 JUMPI DUP1 PUSH1 0x1F LT PUSH2 0x44A JUMPI PUSH2 0x100 DUP1 DUP4 SLOAD DIV MUL DUP4 MSTORE SWAP2 PUSH1 0x20 ADD SWAP2 PUSH2 0x473 JUMP JUMPDEST DUP3 ADD SWAP2 SWAP1 PUSH0 MSTORE PUSH1 0x20 PUSH0 KECCAK256 SWAP1 JUMPDEST DUP2 SLOAD DUP2 MSTORE SWAP1 PUSH1 0x1 ADD SWAP1 PUSH1 0x20 ADD DUP1 DUP4 GT PUSH2 0x456 JUMPI DUP3 SWAP1 SUB PUSH1 0x1F AND DUP3 ADD SWAP2 JUMPDEST POP POP POP POP POP SWAP1 POP SWAP1 JUMP JUMPDEST PUSH0 DUP1 PUSH2 0x487 PUSH2 0x8F1 JUMP JUMPDEST SWAP1 POP PUSH2 0x494 DUP2 DUP6 DUP6 PUSH2 0x8F8 JUMP JUMPDEST PUSH1 0x1 SWAP2 POP POP SWAP3 SWAP2 POP POP JUMP JUMPDEST PUSH0 PUSH1 0x2 SLOAD SWAP1 POP SWAP1 JUMP JUMPDEST PUSH2 0x4B0 PUSH2 0x90A JUMP JUMPDEST JUMP JUMPDEST PUSH1 0xB PUSH1 0x20 MSTORE DUP1 PUSH0 MSTORE PUSH1 0x40 PUSH0 KECCAK256 PUSH0 SWAP2 POP SWAP1 POP SLOAD DUP2 JUMP JUMPDEST PUSH0 PUSH1 0xB PUSH0 DUP6 PUSH20 0xFFFFFFFFFFFFFFFFFFFFFFFFFFFFFFFFFFFFFFFF AND PUSH20 0xFFFFFFFFFFFFFFFFFFFFFFFFFFFFFFFFFFFFFFFF AND DUP2 MSTORE PUSH1 0x20 ADD SWAP1 DUP2 MSTORE PUSH1 0x20 ADD PUSH0 KECCAK256 SLOAD TIMESTAMP LT ISZERO PUSH2 0x548 JUMPI PUSH1 0x40 MLOAD PUSH32 0x8C379A000000000000000000000000000000000000000000000000000000000 DUP2 MSTORE PUSH1 0x4 ADD PUSH2 0x53F SWAP1 PUSH2 0x14AD JUMP JUMPDEST PUSH1 0x40 MLOAD DUP1 SWAP2 SUB SWAP1 REVERT JUMPDEST PUSH2 0x553 DUP5 DUP5 DUP5 PUSH2 0x991 JUMP JUMPDEST SWAP1 POP SWAP4 SWAP3 POP POP POP JUMP JUMPDEST PUSH1 0x9 PUSH0 SWAP1 SLOAD SWAP1 PUSH2 0x100 EXP SWAP1 DIV PUSH20 0xFFFFFFFFFFFFFFFFFFFFFFFFFFFFFFFFFFFFFFFF AND DUP2 JUMP JUMPDEST PUSH0 PUSH1 0x12 SWAP1 POP SWAP1 JUMP JUMPDEST PUSH1 0x7 PUSH0 SWAP1 SLOAD SWAP1 PUSH2 0x100 EXP SWAP1 DIV PUSH20 0xFFFFFFFFFFFFFFFFFFFFFFFFFFFFFFFFFFFFFFFF AND DUP2 JUMP JUMPDEST PUSH2 0x5B6 PUSH2 0x90A JUMP JUMPDEST PUSH2 0x5C0 DUP3 DUP3 PUSH2 0x9BF JUMP JUMPDEST POP POP JUMP JUMPDEST PUSH2 0x5CC PUSH2 0x90A JUMP JUMPDEST PUSH2 0x5D6 CALLER DUP3 PUSH2 0xA3E JUMP JUMPDEST POP JUMP JUMPDEST PUSH1 0xA PUSH0 SWAP1 SLOAD SWAP1 PUSH2 0x100 EXP SWAP1 DIV PUSH20 0xFFFFFFFFFFFFFFFFFFFFFFFFFFFFFFFFFFFFFFFF AND DUP2 JUMP JUMPDEST PUSH0 DUP1 PUSH0 DUP4 PUSH20 0xFFFFFFFFFFFFFFFFFFFFFFFFFFFFFFFFFFFFFFFF AND PUSH20 0xFFFFFFFFFFFFFFFFFFFFFFFFFFFFFFFFFFFFFFFF AND DUP2 MSTORE PUSH1 0x20 ADD SWAP1 DUP2 MSTORE PUSH1 0x20 ADD PUSH0 KECCAK256 SLOAD SWAP1 POP SWAP2 SWAP1 POP JUMP JUMPDEST PUSH2 0x64B PUSH2 0x90A JUMP JUMPDEST PUSH2 0x654 PUSH0 PUSH2 0xABD JUMP JUMPDEST JUMP JUMPDEST PUSH1 0x6 PUSH0 SWAP1 SLOAD SWAP1 PUSH2 0x100 EXP SWAP1 DIV PUSH20 0xFFFFFFFFFFFFFFFFFFFFFFFFFFFFFFFFFFFFFFFF AND DUP2 JUMP JUMPDEST PUSH0 PUSH1 0x5 PUSH0 SWAP1 SLOAD SWAP1 PUSH2 0x100 EXP SWAP1 DIV PUSH20 0xFFFFFFFFFFFFFFFFFFFFFFFFFFFFFFFFFFFFFFFF AND SWAP1 POP SWAP1 JUMP JUMPDEST PUSH1 0x60 PUSH1 0x4 DUP1 SLOAD PUSH2 0x6B2 SWAP1 PUSH2 0x1433 JUMP JUMPDEST DUP1 PUSH1 0x1F ADD PUSH1 0x20 DUP1 SWAP2 DIV MUL PUSH1 0x20 ADD PUSH1 0x40 MLOAD SWAP1 DUP2 ADD PUSH1 0x40 MSTORE DUP1 SWAP3 SWAP2 SWAP1 DUP2 DUP2 MSTORE PUSH1 0x20 ADD DUP3 DUP1 SLOAD PUSH2 0x6DE SWAP1 PUSH2 0x1433 JUMP JUMPDEST DUP1 ISZERO PUSH2 0x729 JUMPI DUP1 PUSH1 0x1F LT PUSH2 0x700 JUMPI PUSH2 0x100 DUP1 DUP4 SLOAD DIV MUL DUP4 MSTORE SWAP2 PUSH1 0x20 ADD SWAP2 PUSH2 0x729 JUMP JUMPDEST DUP3 ADD SWAP2 SWAP1 PUSH0 MSTORE PUSH1 0x20 PUSH0 KECCAK256 SWAP1 JUMPDEST DUP2 SLOAD DUP2 MSTORE SWAP1 PUSH1 0x1 ADD SWAP1 PUSH1 0x20 ADD DUP1 DUP4 GT PUSH2 0x70C JUMPI DUP3 SWAP1 SUB PUSH1 0x1F AND DUP3 ADD SWAP2 JUMPDEST POP POP POP POP POP SWAP1 POP SWAP1 JUMP JUMPDEST PUSH0 PUSH1 0xB PUSH0 CALLER PUSH20 0xFFFFFFFFFFFFFFFFFFFFFFFFFFFFFFFFFFFFFFFF AND PUSH20 0xFFFFFFFFFFFFFFFFFFFFFFFFFFFFFFFFFFFFFFFF AND DUP2 MSTORE PUSH1 0x20 ADD SWAP1 DUP2 MSTORE PUSH1 0x20 ADD PUSH0 KECCAK256 SLOAD TIMESTAMP LT ISZERO PUSH2 0x7B4 JUMPI PUSH1 0x40 MLOAD PUSH32 0x8C379A000000000000000000000000000000000000000000000000000000000 DUP2 MSTORE PUSH1 0x4 ADD PUSH2 0x7AB SWAP1 PUSH2 0x14AD JUMP JUMPDEST PUSH1 0x40 MLOAD DUP1 SWAP2 SUB SWAP1 REVERT JUMPDEST PUSH2 0x7BE DUP4 DUP4 PUSH2 0xB80 JUMP JUMPDEST SWAP1 POP SWAP3 SWAP2 POP POP JUMP JUMPDEST PUSH1 0x8 PUSH0 SWAP1 SLOAD SWAP1 PUSH2 0x100 EXP SWAP1 DIV PUSH20 0xFFFFFFFFFFFFFFFFFFFFFFFFFFFFFFFFFFFFFFFF AND DUP2 JUMP JUMPDEST PUSH0 PUSH1 0x1 PUSH0 DUP5 PUSH20 0xFFFFFFFFFFFFFFFFFFFFFFFFFFFFFFFFFFFFFFFF AND PUSH20 0xFFFFFFFFFFFFFFFFFFFFFFFFFFFFFFFFFFFFFFFF AND DUP2 MSTORE PUSH1 0x20 ADD SWAP1 DUP2 MSTORE PUSH1 0x20 ADD PUSH0 KECCAK256 PUSH0 DUP4 PUSH20 0xFFFFFFFFFFFFFFFFFFFFFFFFFFFFFFFFFFFFFFFF AND PUSH20 0xFFFFFFFFFFFFFFFFFFFFFFFFFFFFFFFFFFFFFFFF AND DUP2 MSTORE PUSH1 0x20 ADD SWAP1 DUP2 MSTORE PUSH1 0x20 ADD PUSH0 KECCAK256 SLOAD SWAP1 POP SWAP3 SWAP2 POP POP JUMP JUMPDEST PUSH2 0x875 PUSH2 0x90A JUMP JUMPDEST PUSH0 PUSH20 0xFFFFFFFFFFFFFFFFFFFFFFFFFFFFFFFFFFFFFFFF AND DUP2 PUSH20 0xFFFFFFFFFFFFFFFFFFFFFFFFFFFFFFFFFFFFFFFF AND SUB PUSH2 0x8E5 JUMPI PUSH0 PUSH1 0x40 MLOAD PUSH32 0x1E4FBDF700000000000000000000000000000000000000000000000000000000 DUP2 MSTORE PUSH1 0x4 ADD PUSH2 0x8DC SWAP2 SWAP1 PUSH2 0x1350 JUMP JUMPDEST PUSH1 0x40 MLOAD DUP1 SWAP2 SUB SWAP1 REVERT JUMPDEST PUSH2 0x8EE DUP2 PUSH2 0xABD JUMP JUMPDEST POP JUMP JUMPDEST PUSH0 CALLER SWAP1 POP SWAP1 JUMP JUMPDEST PUSH2 0x905 DUP4 DUP4 DUP4 PUSH1 0x1 PUSH2 0xBA2 JUMP JUMPDEST POP POP POP JUMP JUMPDEST PUSH2 0x912 PUSH2 0x8F1 JUMP JUMPDEST PUSH20 0xFFFFFFFFFFFFFFFFFFFFFFFFFFFFFFFFFFFFFFFF AND PUSH2 0x930 PUSH2 0x67B JUMP JUMPDEST PUSH20 0xFFFFFFFFFFFFFFFFFFFFFFFFFFFFFFFFFFFFFFFF AND EQ PUSH2 0x98F JUMPI PUSH2 0x953 PUSH2 0x8F1 JUMP JUMPDEST PUSH1 0x40 MLOAD PUSH32 0x118CDAA700000000000000000000000000000000000000000000000000000000 DUP2 MSTORE PUSH1 0x4 ADD PUSH2 0x986 SWAP2 SWAP1 PUSH2 0x1350 JUMP JUMPDEST PUSH1 0x40 MLOAD DUP1 SWAP2 SUB SWAP1 REVERT JUMPDEST JUMP JUMPDEST PUSH0 DUP1 PUSH2 0x99B PUSH2 0x8F1 JUMP JUMPDEST SWAP1 POP PUSH2 0x9A8 DUP6 DUP3 DUP6 PUSH2 0xD71 JUMP JUMPDEST PUSH2 0x9B3 DUP6 DUP6 DUP6 PUSH2 0xE03 JUMP JUMPDEST PUSH1 0x1 SWAP2 POP POP SWAP4 SWAP3 POP POP POP JUMP JUMPDEST PUSH0 PUSH20 0xFFFFFFFFFFFFFFFFFFFFFFFFFFFFFFFFFFFFFFFF AND DUP3 PUSH20 0xFFFFFFFFFFFFFFFFFFFFFFFFFFFFFFFFFFFFFFFF AND SUB PUSH2 0xA2F JUMPI PUSH0 PUSH1 0x40 MLOAD PUSH32 0xEC442F0500000000000000000000000000000000000000000000000000000000 DUP2 MSTORE PUSH1 0x4 ADD PUSH2 0xA26 SWAP2 SWAP1 PUSH2 0x1350 JUMP JUMPDEST PUSH1 0x40 MLOAD DUP1 SWAP2 SUB SWAP1 REVERT JUMPDEST PUSH2 0xA3A PUSH0 DUP4 DUP4 PUSH2 0xEF3 JUMP JUMPDEST POP POP JUMP JUMPDEST PUSH0 PUSH20 0xFFFFFFFFFFFFFFFFFFFFFFFFFFFFFFFFFFFFFFFF AND DUP3 PUSH20 0xFFFFFFFFFFFFFFFFFFFFFFFFFFFFFFFFFFFFFFFF AND SUB PUSH2 0xAAE JUMPI PUSH0 PUSH1 0x40 MLOAD PUSH32 0x96C6FD1E00000000000000000000000000000000000000000000000000000000 DUP2 MSTORE PUSH1 0x4 ADD PUSH2 0xAA5 SWAP2 SWAP1 PUSH2 0x1350 JUMP JUMPDEST PUSH1 0x40 MLOAD DUP1 SWAP2 SUB SWAP1 REVERT JUMPDEST PUSH2 0xAB9 DUP3 PUSH0 DUP4 PUSH2 0xEF3 JUMP JUMPDEST POP POP JUMP JUMPDEST PUSH0 PUSH1 0x5 PUSH0 SWAP1 SLOAD SWAP1 PUSH2 0x100 EXP SWAP1 DIV PUSH20 0xFFFFFFFFFFFFFFFFFFFFFFFFFFFFFFFFFFFFFFFF AND SWAP1 POP DUP2 PUSH1 0x5 PUSH0 PUSH2 0x100 EXP DUP2 SLOAD DUP2 PUSH20 0xFFFFFFFFFFFFFFFFFFFFFFFFFFFFFFFFFFFFFFFF MUL NOT AND SWAP1 DUP4 PUSH20 0xFFFFFFFFFFFFFFFFFFFFFFFFFFFFFFFFFFFFFFFF AND MUL OR SWAP1 SSTORE POP DUP2 PUSH20 0xFFFFFFFFFFFFFFFFFFFFFFFFFFFFFFFFFFFFFFFF AND DUP2 PUSH20 0xFFFFFFFFFFFFFFFFFFFFFFFFFFFFFFFFFFFFFFFF AND PUSH32 0x8BE0079C531659141344CD1FD0A4F28419497F9722A3DAAFE3B4186F6B6457E0 PUSH1 0x40 MLOAD PUSH1 0x40 MLOAD DUP1 SWAP2 SUB SWAP1 LOG3 POP POP JUMP JUMPDEST PUSH0 DUP1 PUSH2 0xB8A PUSH2 0x8F1 JUMP JUMPDEST SWAP1 POP PUSH2 0xB97 DUP2 DUP6 DUP6 PUSH2 0xE03 JUMP JUMPDEST PUSH1 0x1 SWAP2 POP POP SWAP3 SWAP2 POP POP JUMP JUMPDEST PUSH0 PUSH20 0xFFFFFFFFFFFFFFFFFFFFFFFFFFFFFFFFFFFFFFFF AND DUP5 PUSH20 0xFFFFFFFFFFFFFFFFFFFFFFFFFFFFFFFFFFFFFFFF AND SUB PUSH2 0xC12 JUMPI PUSH0 PUSH1 0x40 MLOAD PUSH32 0xE602DF0500000000000000000000000000000000000000000000000000000000 DUP2 MSTORE PUSH1 0x4 ADD PUSH2 0xC09 SWAP2 SWAP1 PUSH2 0x1350 JUMP JUMPDEST PUSH1 0x40 MLOAD DUP1 SWAP2 SUB SWAP1 REVERT JUMPDEST PUSH0 PUSH20 0xFFFFFFFFFFFFFFFFFFFFFFFFFFFFFFFFFFFFFFFF AND DUP4 PUSH20 0xFFFFFFFFFFFFFFFFFFFFFFFFFFFFFFFFFFFFFFFF AND SUB PUSH2 0xC82 JUMPI PUSH0 PUSH1 0x40 MLOAD PUSH32 0x94280D6200000000000000000000000000000000000000000000000000000000 DUP2 MSTORE PUSH1 0x4 ADD PUSH2 0xC79 SWAP2 SWAP1 PUSH2 0x1350 JUMP JUMPDEST PUSH1 0x40 MLOAD DUP1 SWAP2 SUB SWAP1 REVERT JUMPDEST DUP2 PUSH1 0x1 PUSH0 DUP7 PUSH20 0xFFFFFFFFFFFFFFFFFFFFFFFFFFFFFFFFFFFFFFFF AND PUSH20 0xFFFFFFFFFFFFFFFFFFFFFFFFFFFFFFFFFFFFFFFF AND DUP2 MSTORE PUSH1 0x20 ADD SWAP1 DUP2 MSTORE PUSH1 0x20 ADD PUSH0 KECCAK256 PUSH0 DUP6 PUSH20 0xFFFFFFFFFFFFFFFFFFFFFFFFFFFFFFFFFFFFFFFF AND PUSH20 0xFFFFFFFFFFFFFFFFFFFFFFFFFFFFFFFFFFFFFFFF AND DUP2 MSTORE PUSH1 0x20 ADD SWAP1 DUP2 MSTORE PUSH1 0x20 ADD PUSH0 KECCAK256 DUP2 SWAP1 SSTORE POP DUP1 ISZERO PUSH2 0xD6B JUMPI DUP3 PUSH20 0xFFFFFFFFFFFFFFFFFFFFFFFFFFFFFFFFFFFFFFFF AND DUP5 PUSH20 0xFFFFFFFFFFFFFFFFFFFFFFFFFFFFFFFFFFFFFFFF AND PUSH32 0x8C5BE1E5EBEC7D5BD14F71427D1E84F3DD0314C0F7B2291E5B200AC8C7C3B925 DUP5 PUSH1 0x40 MLOAD PUSH2 0xD62 SWAP2 SWAP1 PUSH2 0x12AD JUMP JUMPDEST PUSH1 0x40 MLOAD DUP1 SWAP2 SUB SWAP1 LOG3 JUMPDEST POP POP POP POP JUMP JUMPDEST PUSH0 PUSH2 0xD7C DUP5 DUP5 PUSH2 0x7EB JUMP JUMPDEST SWAP1 POP PUSH32 0xFFFFFFFFFFFFFFFFFFFFFFFFFFFFFFFFFFFFFFFFFFFFFFFFFFFFFFFFFFFFFFFF DUP2 EQ PUSH2 0xDFD JUMPI DUP2 DUP2 LT ISZERO PUSH2 0xDEE JUMPI DUP3 DUP2 DUP4 PUSH1 0x40 MLOAD PUSH32 0xFB8F41B200000000000000000000000000000000000000000000000000000000 DUP2 MSTORE PUSH1 0x4 ADD PUSH2 0xDE5 SWAP4 SWAP3 SWAP2 SWAP1 PUSH2 0x14CB JUMP JUMPDEST PUSH1 0x40 MLOAD DUP1 SWAP2 SUB SWAP1 REVERT JUMPDEST PUSH2 0xDFC DUP5 DUP5 DUP5 DUP5 SUB PUSH0 PUSH2 0xBA2 JUMP JUMPDEST JUMPDEST POP POP POP POP JUMP JUMPDEST PUSH0 PUSH20 0xFFFFFFFFFFFFFFFFFFFFFFFFFFFFFFFFFFFFFFFF AND DUP4 PUSH20 0xFFFFFFFFFFFFFFFFFFFFFFFFFFFFFFFFFFFFFFFF AND SUB PUSH2 0xE73 JUMPI PUSH0 PUSH1 0x40 MLOAD PUSH32 0x96C6FD1E00000000000000000000000000000000000000000000000000000000 DUP2 MSTORE PUSH1 0x4 ADD PUSH2 0xE6A SWAP2 SWAP1 PUSH2 0x1350 JUMP JUMPDEST PUSH1 0x40 MLOAD DUP1 SWAP2 SUB SWAP1 REVERT JUMPDEST PUSH0 PUSH20 0xFFFFFFFFFFFFFFFFFFFFFFFFFFFFFFFFFFFFFFFF AND DUP3 PUSH20 0xFFFFFFFFFFFFFFFFFFFFFFFFFFFFFFFFFFFFFFFF AND SUB PUSH2 0xEE3 JUMPI PUSH0 PUSH1 0x40 MLOAD PUSH32 0xEC442F0500000000000000000000000000000000000000000000000000000000 DUP2 MSTORE PUSH1 0x4 ADD PUSH2 0xEDA SWAP2 SWAP1 PUSH2 0x1350 JUMP JUMPDEST PUSH1 0x40 MLOAD DUP1 SWAP2 SUB SWAP1 REVERT JUMPDEST PUSH2 0xEEE DUP4 DUP4 DUP4 PUSH2 0xEF3 JUMP JUMPDEST POP POP POP JUMP JUMPDEST PUSH0 PUSH20 0xFFFFFFFFFFFFFFFFFFFFFFFFFFFFFFFFFFFFFFFF AND DUP4 PUSH20 0xFFFFFFFFFFFFFFFFFFFFFFFFFFFFFFFFFFFFFFFF AND SUB PUSH2 0xF43 JUMPI DUP1 PUSH1 0x2 PUSH0 DUP3 DUP3 SLOAD PUSH2 0xF37 SWAP2 SWAP1 PUSH2 0x152D JUMP JUMPDEST SWAP3 POP POP DUP2 SWAP1 SSTORE POP PUSH2 0x1011 JUMP JUMPDEST PUSH0 DUP1 PUSH0 DUP6 PUSH20 0xFFFFFFFFFFFFFFFFFFFFFFFFFFFFFFFFFFFFFFFF AND PUSH20 0xFFFFFFFFFFFFFFFFFFFFFFFFFFFFFFFFFFFFFFFF AND DUP2 MSTORE PUSH1 0x20 ADD SWAP1 DUP2 MSTORE PUSH1 0x20 ADD PUSH0 KECCAK256 SLOAD SWAP1 POP DUP2 DUP2 LT ISZERO PUSH2 0xFCC JUMPI DUP4 DUP2 DUP4 PUSH1 0x40 MLOAD PUSH32 0xE450D38C00000000000000000000000000000000000000000000000000000000 DUP2 MSTORE PUSH1 0x4 ADD PUSH2 0xFC3 SWAP4 SWAP3 SWAP2 SWAP1 PUSH2 0x14CB JUMP JUMPDEST PUSH1 0x40 MLOAD DUP1 SWAP2 SUB SWAP1 REVERT JUMPDEST DUP2 DUP2 SUB PUSH0 DUP1 DUP7 PUSH20 0xFFFFFFFFFFFFFFFFFFFFFFFFFFFFFFFFFFFFFFFF AND PUSH20 0xFFFFFFFFFFFFFFFFFFFFFFFFFFFFFFFFFFFFFFFF AND DUP2 MSTORE PUSH1 0x20 ADD SWAP1 DUP2 MSTORE PUSH1 0x20 ADD PUSH0 KECCAK256 DUP2 SWAP1 SSTORE POP POP JUMPDEST PUSH0 PUSH20 0xFFFFFFFFFFFFFFFFFFFFFFFFFFFFFFFFFFFFFFFF AND DUP3 PUSH20 0xFFFFFFFFFFFFFFFFFFFFFFFFFFFFFFFFFFFFFFFF AND SUB PUSH2 0x1058 JUMPI DUP1 PUSH1 0x2 PUSH0 DUP3 DUP3 SLOAD SUB SWAP3 POP POP DUP2 SWAP1 SSTORE POP PUSH2 0x10A2 JUMP JUMPDEST DUP1 PUSH0 DUP1 DUP5 PUSH20 0xFFFFFFFFFFFFFFFFFFFFFFFFFFFFFFFFFFFFFFFF AND PUSH20 0xFFFFFFFFFFFFFFFFFFFFFFFFFFFFFFFFFFFFFFFF AND DUP2 MSTORE PUSH1 0x20 ADD SWAP1 DUP2 MSTORE PUSH1 0x20 ADD PUSH0 KECCAK256 PUSH0 DUP3 DUP3 SLOAD ADD SWAP3 POP POP DUP2 SWAP1 SSTORE POP JUMPDEST DUP2 PUSH20 0xFFFFFFFFFFFFFFFFFFFFFFFFFFFFFFFFFFFFFFFF AND DUP4 PUSH20 0xFFFFFFFFFFFFFFFFFFFFFFFFFFFFFFFFFFFFFFFF AND PUSH32 0xDDF252AD1BE2C89B69C2B068FC378DAA952BA7F163C4A11628F55A4DF523B3EF DUP4 PUSH1 0x40 MLOAD PUSH2 0x10FF SWAP2 SWAP1 PUSH2 0x12AD JUMP JUMPDEST PUSH1 0x40 MLOAD DUP1 SWAP2 SUB SWAP1 LOG3 POP POP POP JUMP JUMPDEST PUSH0 DUP2 MLOAD SWAP1 POP SWAP2 SWAP1 POP JUMP JUMPDEST PUSH0 DUP3 DUP3 MSTORE PUSH1 0x20 DUP3 ADD SWAP1 POP SWAP3 SWAP2 POP POP JUMP JUMPDEST DUP3 DUP2 DUP4 MCOPY PUSH0 DUP4 DUP4 ADD MSTORE POP POP POP JUMP JUMPDEST PUSH0 PUSH1 0x1F NOT PUSH1 0x1F DUP4 ADD AND SWAP1 POP SWAP2 SWAP1 POP JUMP JUMPDEST PUSH0 PUSH2 0x114E DUP3 PUSH2 0x110C JUMP JUMPDEST PUSH2 0x1158 DUP2 DUP6 PUSH2 0x1116 JUMP JUMPDEST SWAP4 POP PUSH2 0x1168 DUP2 DUP6 PUSH1 0x20 DUP7 ADD PUSH2 0x1126 JUMP JUMPDEST PUSH2 0x1171 DUP2 PUSH2 0x1134 JUMP JUMPDEST DUP5 ADD SWAP2 POP POP SWAP3 SWAP2 POP POP JUMP JUMPDEST PUSH0 PUSH1 0x20 DUP3 ADD SWAP1 POP DUP2 DUP2 SUB PUSH0 DUP4 ADD MSTORE PUSH2 0x1194 DUP2 DUP5 PUSH2 0x1144 JUMP JUMPDEST SWAP1 POP SWAP3 SWAP2 POP POP JUMP JUMPDEST PUSH0 DUP1 REVERT JUMPDEST PUSH0 PUSH20 0xFFFFFFFFFFFFFFFFFFFFFFFFFFFFFFFFFFFFFFFF DUP3 AND SWAP1 POP SWAP2 SWAP1 POP JUMP JUMPDEST PUSH0 PUSH2 0x11C9 DUP3 PUSH2 0x11A0 JUMP JUMPDEST SWAP1 POP SWAP2 SWAP1 POP JUMP JUMPDEST PUSH2 0x11D9 DUP2 PUSH2 0x11BF JUMP JUMPDEST DUP2 EQ PUSH2 0x11E3 JUMPI PUSH0 DUP1 REVERT JUMPDEST POP JUMP JUMPDEST PUSH0 DUP2 CALLDATALOAD SWAP1 POP PUSH2 0x11F4 DUP2 PUSH2 0x11D0 JUMP JUMPDEST SWAP3 SWAP2 POP POP JUMP JUMPDEST PUSH0 DUP2 SWAP1 POP SWAP2 SWAP1 POP JUMP JUMPDEST PUSH2 0x120C DUP2 PUSH2 0x11FA JUMP JUMPDEST DUP2 EQ PUSH2 0x1216 JUMPI PUSH0 DUP1 REVERT JUMPDEST POP JUMP JUMPDEST PUSH0 DUP2 CALLDATALOAD SWAP1 POP PUSH2 0x1227 DUP2 PUSH2 0x1203 JUMP JUMPDEST SWAP3 SWAP2 POP POP JUMP JUMPDEST PUSH0 DUP1 PUSH1 0x40 DUP4 DUP6 SUB SLT ISZERO PUSH2 0x1243 JUMPI PUSH2 0x1242 PUSH2 0x119C JUMP JUMPDEST JUMPDEST PUSH0 PUSH2 0x1250 DUP6 DUP3 DUP7 ADD PUSH2 0x11E6 JUMP JUMPDEST SWAP3 POP POP PUSH1 0x20 PUSH2 0x1261 DUP6 DUP3 DUP7 ADD PUSH2 0x1219 JUMP JUMPDEST SWAP2 POP POP SWAP3 POP SWAP3 SWAP1 POP JUMP JUMPDEST PUSH0 DUP2 ISZERO ISZERO SWAP1 POP SWAP2 SWAP1 POP JUMP JUMPDEST PUSH2 0x127F DUP2 PUSH2 0x126B JUMP JUMPDEST DUP3 MSTORE POP POP JUMP JUMPDEST PUSH0 PUSH1 0x20 DUP3 ADD SWAP1 POP PUSH2 0x1298 PUSH0 DUP4 ADD DUP5 PUSH2 0x1276 JUMP JUMPDEST SWAP3 SWAP2 POP POP JUMP JUMPDEST PUSH2 0x12A7 DUP2 PUSH2 0x11FA JUMP JUMPDEST DUP3 MSTORE POP POP JUMP JUMPDEST PUSH0 PUSH1 0x20 DUP3 ADD SWAP1 POP PUSH2 0x12C0 PUSH0 DUP4 ADD DUP5 PUSH2 0x129E JUMP JUMPDEST SWAP3 SWAP2 POP POP JUMP JUMPDEST PUSH0 PUSH1 0x20 DUP3 DUP5 SUB SLT ISZERO PUSH2 0x12DB JUMPI PUSH2 0x12DA PUSH2 0x119C JUMP JUMPDEST JUMPDEST PUSH0 PUSH2 0x12E8 DUP5 DUP3 DUP6 ADD PUSH2 0x11E6 JUMP JUMPDEST SWAP2 POP POP SWAP3 SWAP2 POP POP JUMP JUMPDEST PUSH0 DUP1 PUSH0 PUSH1 0x60 DUP5 DUP7 SUB SLT ISZERO PUSH2 0x1308 JUMPI PUSH2 0x1307 PUSH2 0x119C JUMP JUMPDEST JUMPDEST PUSH0 PUSH2 0x1315 DUP7 DUP3 DUP8 ADD PUSH2 0x11E6 JUMP JUMPDEST SWAP4 POP POP PUSH1 0x20 PUSH2 0x1326 DUP7 DUP3 DUP8 ADD PUSH2 0x11E6 JUMP JUMPDEST SWAP3 POP POP PUSH1 0x40 PUSH2 0x1337 DUP7 DUP3 DUP8 ADD PUSH2 0x1219 JUMP JUMPDEST SWAP2 POP POP SWAP3 POP SWAP3 POP SWAP3 JUMP JUMPDEST PUSH2 0x134A DUP2 PUSH2 0x11BF JUMP JUMPDEST DUP3 MSTORE POP POP JUMP JUMPDEST PUSH0 PUSH1 0x20 DUP3 ADD SWAP1 POP PUSH2 0x1363 PUSH0 DUP4 ADD DUP5 PUSH2 0x1341 JUMP JUMPDEST SWAP3 SWAP2 POP POP JUMP JUMPDEST PUSH0 PUSH1 0xFF DUP3 AND SWAP1 POP SWAP2 SWAP1 POP JUMP JUMPDEST PUSH2 0x137E DUP2 PUSH2 0x1369 JUMP JUMPDEST DUP3 MSTORE POP POP JUMP JUMPDEST PUSH0 PUSH1 0x20 DUP3 ADD SWAP1 POP PUSH2 0x1397 PUSH0 DUP4 ADD DUP5 PUSH2 0x1375 JUMP JUMPDEST SWAP3 SWAP2 POP POP JUMP JUMPDEST PUSH0 PUSH1 0x20 DUP3 DUP5 SUB SLT ISZERO PUSH2 0x13B2 JUMPI PUSH2 0x13B1 PUSH2 0x119C JUMP JUMPDEST JUMPDEST PUSH0 PUSH2 0x13BF DUP5 DUP3 DUP6 ADD PUSH2 0x1219 JUMP JUMPDEST SWAP2 POP POP SWAP3 SWAP2 POP POP JUMP JUMPDEST PUSH0 DUP1 PUSH1 0x40 DUP4 DUP6 SUB SLT ISZERO PUSH2 0x13DE JUMPI PUSH2 0x13DD PUSH2 0x119C JUMP JUMPDEST JUMPDEST PUSH0 PUSH2 0x13EB DUP6 DUP3 DUP7 ADD PUSH2 0x11E6 JUMP JUMPDEST SWAP3 POP POP PUSH1 0x20 PUSH2 0x13FC DUP6 DUP3 DUP7 ADD PUSH2 0x11E6 JUMP JUMPDEST SWAP2 POP POP SWAP3 POP SWAP3 SWAP1 POP JUMP JUMPDEST PUSH32 0x4E487B7100000000000000000000000000000000000000000000000000000000 PUSH0 MSTORE PUSH1 0x22 PUSH1 0x4 MSTORE PUSH1 0x24 PUSH0 REVERT JUMPDEST PUSH0 PUSH1 0x2 DUP3 DIV SWAP1 POP PUSH1 0x1 DUP3 AND DUP1 PUSH2 0x144A JUMPI PUSH1 0x7F DUP3 AND SWAP2 POP JUMPDEST PUSH1 0x20 DUP3 LT DUP2 SUB PUSH2 0x145D JUMPI PUSH2 0x145C PUSH2 0x1406 JUMP JUMPDEST JUMPDEST POP SWAP2 SWAP1 POP JUMP JUMPDEST PUSH32 0x546F6B656E7320617265206C6F636B6564000000000000000000000000000000 PUSH0 DUP3 ADD MSTORE POP JUMP JUMPDEST PUSH0 PUSH2 0x1497 PUSH1 0x11 DUP4 PUSH2 0x1116 JUMP JUMPDEST SWAP2 POP PUSH2 0x14A2 DUP3 PUSH2 0x1463 JUMP JUMPDEST PUSH1 0x20 DUP3 ADD SWAP1 POP SWAP2 SWAP1 POP JUMP JUMPDEST PUSH0 PUSH1 0x20 DUP3 ADD SWAP1 POP DUP2 DUP2 SUB PUSH0 DUP4 ADD MSTORE PUSH2 0x14C4 DUP2 PUSH2 0x148B JUMP JUMPDEST SWAP1 POP SWAP2 SWAP1 POP JUMP JUMPDEST PUSH0 PUSH1 0x60 DUP3 ADD SWAP1 POP PUSH2 0x14DE PUSH0 DUP4 ADD DUP7 PUSH2 0x1341 JUMP JUMPDEST PUSH2 0x14EB PUSH1 0x20 DUP4 ADD DUP6 PUSH2 0x129E JUMP JUMPDEST PUSH2 0x14F8 PUSH1 0x40 DUP4 ADD DUP5 PUSH2 0x129E JUMP JUMPDEST SWAP5 SWAP4 POP POP POP POP JUMP JUMPDEST PUSH32 0x4E487B7100000000000000000000000000000000000000000000000000000000 PUSH0 MSTORE PUSH1 0x11 PUSH1 0x4 MSTORE PUSH1 0x24 PUSH0 REVERT JUMPDEST PUSH0 PUSH2 0x1537 DUP3 PUSH2 0x11FA JUMP JUMPDEST SWAP2 POP PUSH2 0x1542 DUP4 PUSH2 0x11FA JUMP JUMPDEST SWAP3 POP DUP3 DUP3 ADD SWAP1 POP DUP1 DUP3 GT ISZERO PUSH2 0x155A JUMPI PUSH2 0x1559 PUSH2 0x1500 JUMP JUMPDEST JUMPDEST SWAP3 SWAP2 POP POP JUMP INVALID LOG2 PUSH5 0x6970667358 0x22 SLT KECCAK256 0xCD MOD 0x2E 0x27 0x25 0x4D POP SAR 0xB6 DUP3 0xD5 DUP1 CREATE PUSH17 0x91F6D39F2FA3CA55DF2B6CAADA0F6B665A MOD PUSH5 0x736F6C6343 STOP ADDMOD BYTE STOP CALLER "
				},
				"gasEstimates": {
					"creation": {
						"codeDepositCost": "1105200",
						"executionCost": "infinite",
						"totalCost": "infinite"
					},
					"external": {
						"allowance(address,address)": "infinite",
						"approve(address,uint256)": "infinite",
						"balanceOf(address)": "2896",
						"burn(uint256)": "infinite",
						"communityIncentives()": "2553",
						"decimals()": "405",
						"investors()": "2619",
						"lockupExpiry(address)": "2914",
						"marketing()": "2553",
						"mint(address,uint256)": "infinite",
						"name()": "infinite",
						"owner()": "2537",
						"projectTeam()": "2597",
						"renounceOwnership()": "infinite",
						"reserve()": "2596",
						"symbol()": "infinite",
						"totalSupply()": "2500",
						"transfer(address,uint256)": "infinite",
						"transferFrom(address,address,uint256)": "infinite",
						"transferOwnership(address)": "infinite",
						"upgradeContract()": "infinite"
					}
				},
				"methodIdentifiers": {
					"allowance(address,address)": "dd62ed3e",
					"approve(address,uint256)": "095ea7b3",
					"balanceOf(address)": "70a08231",
					"burn(uint256)": "42966c68",
					"communityIncentives()": "59d7bd71",
					"decimals()": "313ce567",
					"investors()": "8ac27f5f",
					"lockupExpiry(address)": "221322d5",
					"marketing()": "2d3e474a",
					"mint(address,uint256)": "40c10f19",
					"name()": "06fdde03",
					"owner()": "8da5cb5b",
					"projectTeam()": "3829b0dc",
					"renounceOwnership()": "715018a6",
					"reserve()": "cd3293de",
					"symbol()": "95d89b41",
					"totalSupply()": "18160ddd",
					"transfer(address,uint256)": "a9059cbb",
					"transferFrom(address,address,uint256)": "23b872dd",
					"transferOwnership(address)": "f2fde38b",
					"upgradeContract()": "1f4e1504"
				}
			},
			"storageLayout": {
				"storage": [
					{
						"astId": 307,
						"contract": "contracts/ICFT.sol:IndependentCapitalFundToken",
						"label": "_balances",
						"offset": 0,
						"slot": "0",
						"type": "t_mapping(t_address,t_uint256)"
					},
					{
						"astId": 313,
						"contract": "contracts/ICFT.sol:IndependentCapitalFundToken",
						"label": "_allowances",
						"offset": 0,
						"slot": "1",
						"type": "t_mapping(t_address,t_mapping(t_address,t_uint256))"
					},
					{
						"astId": 315,
						"contract": "contracts/ICFT.sol:IndependentCapitalFundToken",
						"label": "_totalSupply",
						"offset": 0,
						"slot": "2",
						"type": "t_uint256"
					},
					{
						"astId": 317,
						"contract": "contracts/ICFT.sol:IndependentCapitalFundToken",
						"label": "_name",
						"offset": 0,
						"slot": "3",
						"type": "t_string_storage"
					},
					{
						"astId": 319,
						"contract": "contracts/ICFT.sol:IndependentCapitalFundToken",
						"label": "_symbol",
						"offset": 0,
						"slot": "4",
						"type": "t_string_storage"
					},
					{
						"astId": 8,
						"contract": "contracts/ICFT.sol:IndependentCapitalFundToken",
						"label": "_owner",
						"offset": 0,
						"slot": "5",
						"type": "t_address"
					},
					{
						"astId": 943,
						"contract": "contracts/ICFT.sol:IndependentCapitalFundToken",
						"label": "investors",
						"offset": 0,
						"slot": "6",
						"type": "t_address"
					},
					{
						"astId": 945,
						"contract": "contracts/ICFT.sol:IndependentCapitalFundToken",
						"label": "projectTeam",
						"offset": 0,
						"slot": "7",
						"type": "t_address"
					},
					{
						"astId": 947,
						"contract": "contracts/ICFT.sol:IndependentCapitalFundToken",
						"label": "reserve",
						"offset": 0,
						"slot": "8",
						"type": "t_address"
					},
					{
						"astId": 949,
						"contract": "contracts/ICFT.sol:IndependentCapitalFundToken",
						"label": "marketing",
						"offset": 0,
						"slot": "9",
						"type": "t_address"
					},
					{
						"astId": 951,
						"contract": "contracts/ICFT.sol:IndependentCapitalFundToken",
						"label": "communityIncentives",
						"offset": 0,
						"slot": "10",
						"type": "t_address"
					},
					{
						"astId": 955,
						"contract": "contracts/ICFT.sol:IndependentCapitalFundToken",
						"label": "lockupExpiry",
						"offset": 0,
						"slot": "11",
						"type": "t_mapping(t_address,t_uint256)"
					}
				],
				"types": {
					"t_address": {
						"encoding": "inplace",
						"label": "address",
						"numberOfBytes": "20"
					},
					"t_mapping(t_address,t_mapping(t_address,t_uint256))": {
						"encoding": "mapping",
						"key": "t_address",
						"label": "mapping(address => mapping(address => uint256))",
						"numberOfBytes": "32",
						"value": "t_mapping(t_address,t_uint256)"
					},
					"t_mapping(t_address,t_uint256)": {
						"encoding": "mapping",
						"key": "t_address",
						"label": "mapping(address => uint256)",
						"numberOfBytes": "32",
						"value": "t_uint256"
					},
					"t_string_storage": {
						"encoding": "bytes",
						"label": "string",
						"numberOfBytes": "32"
					},
					"t_uint256": {
						"encoding": "inplace",
						"label": "uint256",
						"numberOfBytes": "32"
					}
				}
			},
			"userdoc": {
				"kind": "user",
				"methods": {},
				"version": 1
			}
		}
	}
}